:020000040800F2
:10000000400C00209D010008953E0008493800087A
:10001000353E00088D0F00088D57000800000000D5
:1000200000000000000000000000000091490008EE
:10003000152A000800000000954100083D4C00080A
:10004000B7010008B7010008B7010008B7010008B0
:10005000B7010008B7010008B7010008B7010008A0
:10006000B7010008B7010008B7010008B701000890
:100070009D250008B7010008B7010008B701000876
:10008000B7010008B7010008B7010008B701000870
:1000900099110008B7010008B7010008B70100086E
:1000A000B7010008B7010008B7010008B701000850
:1000B000814D0008B7010008B7010008B70100082A
:1000C000B7010008B7010008B7010008B701000830
:1000D000B7010008B7010008B7010008B701000820
:1000E000B7010008B7010008B7010008B701000810
:1000F000B7010008B7010008B7010008B701000800
:10010000B7010008B7010008FD4D0008B70100085D
:10011000B7010008B7010008B7010008B7010008DF
:10012000B7010008C5250008ED250008B701000843
:10013000B7010008B7010008B7010008B7010008BF
:10014000B7010008B1140008B7010008B7010008A2
:10015000B70100081D270008B7010008B701000813
:10016000B7010008B7010008B7010008B70100088F
:10017000B7010008B7010008B7010008B70100087F
:10018000B7010008B7010008DFF80CD000F00CFB45
:1001900000480047F9780008400C002006488047D6
:1001A00006480047FEE7FEE7FEE7FEE7FEE7FEE75C
:1001B000FEE7FEE7FEE7FEE7414C00088901000884
:1001C0002DE9FE4F804681EA0300C00F0C460090E7
:1001D00021F0004123F00045B8EB0200A94105D20F
:1001E0004046214690461C460B46024623F00040FE
:1001F000104347D0270DC7F30A00C3F30A510290FA
:10020000401A019040286BDAC3F3130040F4801BBE
:100210000098924620B10023D2EB030A63EB0B0B4C
:1002200001985946C0F14002504600F0B7F9064621
:100230000D4650465946019A00F0BFF910EB0800F0
:100240006141002487EA115284EAE7731A4340D0DF
:10025000009A62B3019A012A4FEA075215DC001B8B
:1002600061EB02014FF0004202EA0752CDE9004281
:10027000001C41F5801132462B4600F0F6F903B020
:10028000BDE8F08F40462146F9E7001B61EB020113
:10029000001C41F5801300185B412018A2F50017DF
:1002A00047EB030140EAD570B6196D4111E06D08C6
:1002B0004FEA360645EAC0754FEA0752001B61EB6C
:1002C0000201001C41F5801149084FEA3000001975
:1002D000514132462B4603B0BDE8F04F00F0B6B9AD
:1002E0000098012240000023D0EB020263EBE07390
:1002F000009821464FEAE074B8EB000061EB04017E
:10030000E9E783F000435BE781F0004158E72DE91E
:10031000FE4F81EA030404F0004421F00041009400
:100320004FF0000B23F0004350EA01045ED052EA84
:1003300003045BD0C3F30A54C1F30A552C44A4F25E
:10034000F3340194A0FB0254C1F3130141F4801172
:10035000C3F3130343F4801301FB024400FB034E79
:10036000840A970A44EA815447EA8357A4FB076842
:1003700002958D0A05FB07854FEA932C04FB0C546C
:100380002705029D4FEA065847EA1637B5EB0805E0
:100390006EEB070C870E920E47EA811742EA831232
:1003A000A7FB0201B6EB0B0164EB00042B0D43EA43
:1003B0000C335E1844EB1C50DA465146E7FB020151
:1003C000C5F313044FEA0B3343EA14534FEA0432E4
:1003D000019C43EA0603A4F10C040294009CCDE9BD
:1003E00000B400F042F903B0BDE8F08F00200146F0
:1003F000F9E72DE9F04D81EA030404F0004B21F008
:10040000004514464FF0000A23F0004150EA05026F
:1004100020D054EA01021DD0C5F30A570246C5F3A5
:100420001303C1F31300C1F30A5640F4801543F4DB
:100430008013A7EB0608101BD64608F2FD3873EBB5
:10044000050002D308F1010801E092185B41B8F100
:10045000000F03DA00200146BDE8F08D00204FF4C4
:100460008011064684460EE0171B73EB050705D383
:10047000121B63EB050306434CEA010C49084FEAE3
:10048000300092185B4150EA0107EDD152EA0300B7
:1004900012D082EA040083EA0501084305D0101B4C
:1004A000AB4106D20122002306E000224FF00043B8
:1004B00002E06FF0010253101AEB06004CEB0851FA
:1004C00010EB0A0041EB0B01BDE8F04D00F0BEB8A7
:1004D0000EB5C10F80EAE0700844CA07002140F25F
:1004E00033438DE80E000A460B4600F0BEF803B019
:1004F00000BD0EB540F2334102910021CDE900115B
:100500000A460B4600F0B1F803B000BD00F000420F
:1005100030F000400AD0C10D01F56071C0F3160043
:1005200042EA0151C20840071143704700200146CA
:100530007047000030B5041E71F1000404DB4FF079
:100540000044404264EB0101141E73F1000405DB1A
:100550001C464FF00043524263EB0403994208BF2C
:10056000904230BD01F0004330B421F0004150EA28
:10057000010206D00A0DA2F56072C1F31301002A30
:1005800002DC30BC00207047440F44EAC104C100C3
:10059000E01830BC00EBC25000F021B8202A04DB88
:1005A000203A00FA02F1002070479140C2F1200386
:1005B00020FA03F3194390407047202A06DBCB173B
:1005C000203A41FA02F043EAE07306E041FA02F30E
:1005D000D040C2F1200291400843194670470029DB
:1005E000A8BF7047401C490008BF20F001007047B9
:1005F00010B4B0FA80FC00FA0CF050EA010404BF19
:1006000010BC704749B1CCF1200421FA04F411FA6E
:100610000CF118BF012121430843A3EB0C01CB1DB2
:100620004FEA00614FEA102042BF002010BC704723
:1006300000EBC35010440029A4BF10BC7047401CFD
:10064000490008BF20F0010010BC704710B5141E0F
:1006500073F1000408DA401C41F1000192185B417B
:100660001A4301D120F0010010BD2DE9F04D924652
:100670009B4611B1B1FA81F202E0B0FA80F2203269
:100680009046FFF78BFF04460F4640EA0A0041EA16
:100690000B0153465A46084313D0114653EA010052
:1006A00019D0C8F14002504600F090F805460E46B9
:1006B000504659464246FFF771FF084305D00120D6
:1006C00004E020463946BDE8F08D0020054346EAA7
:1006D000E0762C4337430A986305E40AA0EB080050
:1006E0000022FD0A44EA47540A3002D500200146A0
:1006F000E9E7010510196941DDE90845001969417B
:10070000BDE8F04DA2E72DE9F04D00231A461B1A73
:100710008A4103DB00200146BDE8F08DC1F30A5297
:10072000C1F3130141F480154FF0000BD10702D142
:1007300000186D41521E0027044640F2FF11384652
:1007400001EB620A3E468046024600204FF48011CB
:1007500000F03CF8C2197141BB1846EB0100B4EB44
:10076000030C75EB000C04D3E41A65EB0005174687
:100770000E46241908F101006D4180463428E3DD5E
:10078000F91946EB0600091BA84103D24FF0FF32CE
:10079000134601E0002213461BEB070046EB0A510B
:1007A000BDE8F04DFFF752BF064C074D06E0E0688C
:1007B00040F0010394E8070098471034AC42F6D3A8
:1007C000FFF7E6FC2084000840840008202A04DBB0
:1007D000203A21FA02F00021704721FA02F3D040BA
:1007E000C2F12002914008431946704770B5C1F329
:1007F0000A5201F000450024C1F3130140F2FF3317
:1008000041F480119A4201DA002070BD40F2334376
:100810009A42A2F2334203DC5242FFF7D7FF00E0D4
:1008200090402C43F1D0404270BD70B58C1810F848
:10083000015B15F0070301D110F8013B2A1106D125
:1008400010F8012B03E010F8016B01F8016B5B1E3F
:10085000F9D12B0705D40023521E0DD401F8013B1A
:10086000FAE710F8013BCB1A921C03E013F8015B86
:1008700001F8015B521EF9D5A142D8D3002070BD0A
:1008800021B1826842F00102826003E0826822F0B6
:1008900001028260704700000021084A1168084A7E
:1008A0001140D0E900231A4383681A43C3681A43EE
:1008B0001143044AC2F804137047000004230140A6
:1008C000E030FCFF002001400146C86C80B2704758
:1008D0000246002013680B400BB1012000E000200D
:1008E0007047000030B50246002000235068104CCD
:1008F00020400D790C6844EA05242043506090683C
:100900000C4C2040D1E903542C438D682C434D7985
:1009100044EA450420439060D06A20F470000C7DC6
:10092000641EE4B2234340EA0350D06230BD0000AD
:10093000FFFEFFFCFDF7FFC0F0B504460D460020AA
:100940000021092D11DDE068A5F10A0606EB460736
:10095000072606FA07F18843A5F10A0606EB4606C4
:1009600003FA06F10843E0600CE0206905EB450757
:10097000072606FA07F1884305EB450603FA06F158
:1009800008432061072A0FDA606B561E06EB8607C4
:100990001F2606FA07F18843561E06EB860605FA5F
:1009A00006F10843606322E00D2A0FDA206BD61FA0
:1009B00006EB86071F2606FA07F18843D61F06EBCB
:1009C000860605FA06F10843206310E0E06AA2F10A
:1009D0000D0606EB86071F2606FA07F18843A2F1EB
:1009E0000D0606EB860605FA06F10843E062F0BD47
:1009F000816841F0804181607047000000B58DB092
:100A00000121042003F014FD0121080203F040FD40
:100A100004200B9003208DF8300001208DF8330066
:100A20000BA9154802F0CAF80121080203F040FDA5
:100A300000214FF4807003F03BFD002007900A90E6
:100A400009904FF48030089007A8FFF725FF002099
:100A500001908DF808008DF80900039005900120A1
:100A60008DF8180001A90548FFF73CFF0121034854
:100A7000FFF706FF0DB000BD000802400020014056
:100A800010B5044634480068012804D19FED330AAC
:100A9000334880ED000A3048006820B99FED310AE4
:100AA0002F4880ED000A03F093FE2F4890ED000AD6
:100AB0002E4880ED000A2E48D0ED000A00EE104AC4
:100AC000B8EEC00A9FED2B1A40EE010AC0ED000AF5
:100AD00090ED000ADFED280AB4EEE00AF1EE10FA1C
:100AE00002DD9FED250A0FE0214890ED000ADFEDC1
:100AF000230AB4EEE00AF1EE10FA02D29FED1F0ACB
:100B000002E01B4890ED000A194880ED000A90EDC4
:100B1000000AB1EE400A1A4880ED000A02F070FFA8
:100B2000184890ED000ABDEEC00A10EE100A02B29D
:100B3000154890ED000ABDEEC00A10EE100A01B291
:100B4000124890ED000ABDEEC00A10EE100A00B285
:100B500000F09EFE10BD0000600200200000254550
:100B60005802002000000000FC0100205C02002070
:100B7000500200200AD7233C0000C0460000C0C637
:100B8000540200204C0200204402002048020020B1
:100B900000B56D48007801287ED16C48006880B9A6
:100BA0006B48006868B100206A49087008460178FF
:100BB000012088406849087065480068401E644903
:100BC00008606348006880B96448006868B1012023
:100BD0006049087008460178012088405E49087025
:100BE0005E480068401E5D4908605C48006880B946
:100BF0005B48006868B102205649087008460178D1
:100C0000012088405449087055480068401E5449E6
:100C100008605348006880B95248006868B10320F2
:100C20004C49087008460178012088404A490870FC
:100C30004C480068401E4B4908604A48006880B92B
:100C40004948006868B104204249087008460178A4
:100C5000012088404049087043480068401E4249CE
:100C600008604148006880B94048006868B10520C4
:100C700038490870084601780120884036490870D4
:100C80003A480068401E394908603848006890B901
:100C90003748006878B100E054E006202D4908701C
:100CA00008460178012088402B49087030480068C8
:100CB000401E2F4908602E48006880B92D48006802
:100CC00068B1072023490870084601780120884050
:100CD0002149087027480068401E264908602548B9
:100CE000006810BB24480068F8B1244890ED000A61
:100CF000DFED230AB4EEE00AF1EE10FA10DB90ED1E
:100D0000000AF2EE080A30EE600A80ED000A1D4883
:100D100090ED000AF2EE080A30EE200A80ED000A9B
:100D200015480068401E144908601348006848B917
:100D300000200949087000F07DF800201249087071
:100D40000149087000BD0000270100202801002093
:100D50002C010020790100207801002030010020C2
:100D600034010020380100203C0100204001002017
:100D700044010020480100204C01002050020020C6
:100D800000504346540200202601002010B50446BE
:100D9000102C36D008DC012C0DD0022C0ED0042CE7
:100DA00028D0082C3AD128E0202C2ED0402C2FD04F
:100DB000802C33D12FE005F0ADFF30E0194890EDE5
:100DC000000ADFED190AB4EEE00AF1EE10FA10D8CD
:100DD00090ED000AF2EE0C0A30EE200A80ED000AD7
:100DE000124890ED000AF2EE0C0A30EE600A80ED37
:100DF000000A14E006F03AFE11E001200C490860F8
:100E00000DE000200A49086009E006F039FE06E01E
:100E100005F022FF03E006F029FE00E000BF00BF5E
:100E200010BD0000500200200000C0465402002007
:100E300060020020144800681449086014480068E3
:100E40001449086014480068144908601448006890
:100E50001449086014480068144908601448006880
:100E60001449086014480068144908601448006870
:100E70001449086014480068144908601448006860
:100E8000144908607047000050010020280100202C
:100E9000540100202C0100205801002030010020C6
:100EA0005C01002034010020600100203801002096
:100EB000640100203C010020680100204001002066
:100EC0006C01002044010020700100204801002036
:100ED000740100204C01002008B5A82005F024FF73
:100EE00004F07CFA40F2473140F2CF7003F0DEFFAD
:100EF00002F05AFD01F034FB02F0A8FC00F048F8C3
:100F000002F032FDFFF77AFD4FF4E13004F00CFA05
:100F100004F078F903F09EFC03F04EFB002003235D
:100F200008221946009000F0B7F800200323082299
:100F30001946009000F038FA03F0B6FE04F07AFC8F
:100F400003F02EFF4FF4FA7005F00CFF03F080FF62
:100F500008BD00000848006868B908480068012812
:100F600009D10749086007480068401C0549086026
:100F70000020054908607047880000208C00002090
:100F80007C000020F40000208000002000BFFEE76D
:100F900000B58BB00121022003F05AFA0121022092
:100FA00003F046FA02220421234801F04FFE1020EC
:100FB000099002208DF828008DF8290000208DF876
:100FC0002A0001208DF82B0009A91B4801F0F6FD2D
:100FD0004FF4FA6007904720ADF818000020ADF8F4
:100FE0001A00ADF8200001221146144804F013F84D
:100FF00006A9124804F0C4F86020ADF804000120EE
:10100000ADF806000020ADF8100001A90B4804F06F
:101010000BF80821094804F045F80121074803F0BE
:10102000BFFF0121054803F0CAFF0021034804F077
:10103000A2F80BB000BD0000000402400004004014
:1010400030B585B004460D4640F2FF1000900020F8
:101050008DF808008DF8090008208DF80A00200A94
:101060008DF80B00E1B28DF80C10290A8DF80D10E7
:10107000E9B28DF80E1000218DF80F108DF81010C8
:101080008DF811108DF812106946024800F0A1FE8B
:1010900005B030BD006400402DE9F0418AB004463F
:1010A0000D4616461F46DDF840800121082003F05A
:1010B000BFF90121480603F0CBF903200890022074
:1010C0008DF8240000208DF8260003208DF82500DF
:1010D00001208DF8270008A92D4801F06FFD092295
:1010E00000212B4801F0B2FD09220121284801F01E
:1010F000ADFD00208DF81A0001208DF81B000020A6
:101100008DF81C0001208DF81D0000208DF81E00B8
:101110008DF81F008DF816808DF817408DF8186037
:101120008DF81950ADF8147005A91A4800F04FFD5C
:1011300000208DF80E008DF80F0001208DF81000B2
:101140000020ADF80400ADF80600ADF80800ADF8D9
:101150000A00ADF80C0001208DF8110001A800F084
:1011600019FC012202210B4800F028FD14208DF803
:10117000000000208DF8010001208DF802008DF89C
:101180000300684602F088FE00200AB0BDE8F08146
:10119000000C02400064004010B50221394800F004
:1011A0007DFC00286CD00221364800F09FFB364AB7
:1011B0000021344800F095FD3348006840F20621D4
:1011C000884209D13048007B2F49C97A40EA012082
:1011D00000B22E4908804EE02B48006840F20521FD
:1011E000884209D12848007B2749C97A40EA012072
:1011F00000B2274908803EE02348006840F20721FA
:10120000884238D020480068891F884208D11E488B
:10121000817B407B41EA002000B21E4908802AE021
:101220001948006840F20221884208D11648817BA3
:10123000407B41EA002000B2174908801BE01248B9
:10124000006840F20321884208D10F48817B407B2F
:1012500041EA002000B2114908800CE00A48006809
:10126000B0F5017F07D10848817B407B41EA00202F
:1012700000B20B4908800B480068401C094908600F
:1012800010BD00000064004064060020D001002072
:10129000D2010020D4010020D6010020D801002076
:1012A000DA01002008020020F0B585B004460D46A2
:1012B00016461F464FF400700090002001908DF8F4
:1012C00008008DF8090008208DF80A00200A8DF822
:1012D0000B00E1B28DF80C10290A8DF80D10E9B25F
:1012E0008DF80E10310A8DF80F10F1B28DF8101034
:1012F000390A8DF81110F9B28DF8121069460248BA
:1013000000F067FD05B0F0BD0064004010B586B088
:1013100004464FF40070019000208DF80C008DF809
:101320000D0008208DF80E001C4890ED000ABCEE60
:10133000C00A10EE100AC0B200128DF80F00174854
:1013400090ED000ABCEEC00A10EE100AC1B28DF892
:10135000101000218DF811108DF81210104890ED2A
:10136000000ABCEEC00A10EE100AC0B201128DF8DD
:1013700013100B4890ED000ABCEEC00A10EE100AE4
:10138000C1B28DF81410210A8DF815108DF8164091
:1013900001A9044800F01DFD06B010BD4802002060
:1013A0004C020020006800402DE9F0418AB004465C
:1013B0000D4616461F46DDF840800121022003F04D
:1013C00037F80121880603F043F84FF440500890A5
:1013D00002208DF8240000208DF8260003208DF8CF
:1013E000250001208DF8270008A92F4801F0E6FB11
:1013F00009220C212C4801F029FC09220D212A4840
:1014000001F024FC00208DF81A0001208DF81B004B
:1014100000208DF81C0001208DF81D0000208DF8A3
:101420001E008DF81F008DF816808DF817408DF87E
:1014300018608DF81950ADF8147005A91B4800F01C
:10144000C6FB0E208DF80E0000208DF80F00012045
:101450008DF810000020ADF80400ADF80600ADF8DE
:101460000800ADF80A000120ADF80C008DF811005D
:1014700001A800F08FFA012210210C4800F09EFB19
:1014800041208DF8000000208DF8010002208DF829
:10149000020001208DF80300684602F0FDFC0020E8
:1014A0000AB0BDE8F081000000040240006800407E
:1014B00010B52DED0A8B1021DD4800F0EFFA002861
:1014C00072D01021DA4800F011FADA4A0121D84826
:1014D00000F007FCD748006840F20121884264D13F
:1014E000D448817B407B41EA002000B2D249088089
:1014F000D048007BCF49C97A40EA012000B2CF49E9
:101500000880CF48B0F90000401CE8B308460088C6
:10151000CB490988401A00B2CA4908800846B0F988
:101520000000B0F5805F01DDC74809E0C548B0F9AB
:10153000000010F5805F02DA4FF4005000E0002058
:10154000C0490988084400B2BE4908800846B0F97D
:101550000000FEF7BDFF41EC1C0B9FEDBC0B53ECF4
:10156000102BFEF7D4FE41EC1B0B9FEDBA0B53EC96
:10157000102BFEF73EFF41EC190BB8480068FEF750
:10158000C5FF41EC1A0B00E009E053EC192BFEF704
:1015900017FE41EC180BFEF7E5FFB0490860A748BD
:1015A000B0F90000A64908803EE1A248006840F278
:1015B0000221884264D19F48817B407B41EA002020
:1015C00000B2A74908809B48007B9A49C97A40EA43
:1015D000012000B2A3490880A348B0F90000401CD4
:1015E000E8B308460088A0490988401A00B2954926
:1015F00008800846B0F90000B0F5805F01DD924830
:1016000009E09048B0F9000010F5805F02DA4FF46D
:10161000005000E000208B490988084400B2894945
:1016200008800846B0F90000FEF752FF41EC1C0BA1
:101630009FED860B53EC102BFEF769FE41EC1B0B64
:101640009FED840B53EC102BFEF7D3FE41EC190BEE
:1016500086480068FEF75AFF41EC1A0B00E009E0EB
:1016600053EC192BFEF7ACFD41EC180BFEF77AFF9B
:101670007E4908607B48B0F900007B490880D3E0D0
:101680006C48006840F20321884264D16948817B3C
:10169000407B41EA002000B2754908806548007B24
:1016A0006449C97A40EA012000B272490880724850
:1016B000B0F90000401CE8B3084600886E4909886C
:1016C000401A00B25F4908800846B0F90000B0F542
:1016D000805F01DD5C4809E05A48B0F9000010F570
:1016E000805F02DA4FF4005000E00020554909887D
:1016F000084400B2534908800846B0F90000FEF7DC
:10170000E7FE41EC1C0B9FED510B53EC102BFEF749
:10171000FEFD41EC1B0B9FED4F0B53EC102BFEF726
:1017200068FE41EC190B55480068FEF7EFFE41ECEE
:101730001A0B00E009E053EC192BFEF741FD41ECD8
:10174000180BFEF70FFF4D4908604A48B0F900003A
:101750004949088068E037480068B0F5017F63D1E7
:101760003448817B407B41EA002000B24449088034
:101770003048007B2F49C97A40EA012000B2414934
:1017800008804148B0F90000401CE8B308460088D2
:101790003D490988401A00B22A4908800846B0F934
:1017A0000000B0F5805F01DD274809E02548B0F969
:1017B000000010F5805F02DA4FF4005000E00020D6
:1017C00020490988084400B21E4908800846B0F93B
:1017D0000000FEF77DFE41EC1C0B9FED1C0B53EC53
:1017E000102BFEF794FD41EC180B9FED1A0B53ECF8
:1017F000102BFEF7FEFD41EC1A0B24480068FEF7A3
:1018000085FE41EC1B0B00E009E053EC1A2BFEF7C0
:10181000D7FC41EC190BFEF7A5FE1C4908601948DE
:10182000B0F9000018490880BDEC0A8B10BD00001B
:101830000068004078060020DC010020E401002060
:10184000EC0100200402002000E0FFFF0000000087
:101850000000F03F0000000000003340F4010020D1
:10186000DE010020E6010020F0010020FC01002044
:10187000E0010020E8010020EE010020F801002036
:10188000E2010020EA010020F20100200002002015
:1018900070B586B004460D4616464FF400700190B0
:1018A000002002908DF80C008DF80D0008208DF8B6
:1018B0000E00200A8DF80F008DF81040290A8DF8CF
:1018C00011108DF81250310A8DF813108DF8146034
:1018D00000218DF815108DF8161001A9024800F0AE
:1018E00078FA06B070BD000000680040B1F5007FD6
:1018F0003AD00FDC202928D006DC01291CD004298D
:101900001DD0082940D11DE0402921D0B1F5807FAC
:101910003AD126E0B1F5004F31D006DCB1F5806F49
:1019200025D0B1F5006F2FD124E0B1F5803F12D062
:10193000B1F5003F28D111E0154A826025E0082268
:10194000C26022E01022C2601FE0082202611CE097
:101950001022026119E00822426016E01022426063
:1019600013E00422426010E0042242600DE00422F1
:1019700042600AE0002282610422426005E0002207
:1019800082610422426000E000BF00BF7047000097
:101990000101010010B50021837A012202FA03F14E
:1019A0003D4A126842F001023B4B1A603A4A1C322F
:1019B00012688A43384B1C331A60027BCAB9364A14
:1019C0000C3212688A43344B0C331A604288C38845
:1019D00042EA0343304A4032847A42F83430028883
:1019E000838842EA03432C4A4032847A02EBC402E1
:1019F0005360027B012A19D1274A0C3212680A432C
:101A0000254B0C331A604288038842EA0343224A7A
:101A10004032847A42F83430C288838842EA0343F1
:101A20001D4A4032847A02EBC4025360C27A3AB94A
:101A3000194A121D12688A43174B1B1D1A6006E0D3
:101A4000154A121D12680A43134B1B1D1A600289A6
:101A500032B9114A143212688A430F4B14331A6098
:101A60000289012A06D10C4A143212680A430A4B31
:101A700014331A60427B012A06D1074A1C321268CD
:101A80000A43054B1C331A60034A126822F0010214
:101A9000014B1A6010BD00000066004070B504469E
:101AA0000D46002660692840002871D0B5F5807F7A
:101AB0005CD010DC082D35D006DC012D20D0022DA5
:101AC00024D0042D72D127E0102D31D0202D35D017
:101AD000402D6BD138E0B5F5004F60D009DCB5F58D
:101AE000007F49D0B5F5806F4CD0B5F5006F5DD162
:101AF0004FE0B5F5803F2DD0B5F5003F56D12FE032
:101B0000A0682D4900F099FC064651E0E0680321E9
:101B100000F093FC06464BE0E068082100F08DFCE5
:101B2000064645E0E068102100F087FC06463FE0ED
:101B30002069032100F081FC064639E02069082174
:101B400000F07BFC064633E02069102100F075FCB4
:101B500006462DE06068082100F06FFC064627E08D
:101B60006068102100F069FC064621E0A0690121AF
:101B700000F063FC06461BE0A069022100F05DFC5A
:101B8000064615E0A069042100F057FC06460FE068
:101B90000FE0A069702100F050FC064608E0606884
:101BA000042100F04AFC064602E0FFE7002600BFE1
:101BB00000E00026304670BD010101001AB1436902
:101BC0000B43436102E043698B434361704730B587
:101BD000024600200023146824F0020414601468F4
:101BE00044F00104146000E05B1C546804F001043C
:101BF0001CB94FF6FF74A342F6D1546804F00104F7
:101C00000CB900206CE08C79012C04D1146844F0EC
:101C10008004146003E0146824F080041460CC791C
:101C2000012C04D1146844F04004146003E01468EB
:101C300024F0400414600C7A012C04D1146844F0A0
:101C40002004146003E0146824F0200414604C7A2B
:101C5000012C04D1146844F01004146003E01468EB
:101C600024F0100414608C7A012C04D1146844F020
:101C70000804146003E0146824F008041460CC7AAB
:101C8000012C04D1146844F00404146003E01468C7
:101C900024F0040414608C78A407CD7844EA056429
:101CA0000D7944EA05444D7944EA05540D886D1ECA
:101CB0002C43D461146824F001041460002300E074
:101CC0005B1C546804F001041CB14FF6FF74A3427E
:101CD000F6D1546804F001040CB1002000E00120AA
:101CE00030BD10B500F5D87303EB01131B6803F08A
:101CF00004031372137A53B900F5D87303EB01137D
:101D00001B6840F2FF7404EA5353136009E000F5C6
:101D1000D87303EB01131B686FF0604404EAD3032C
:101D2000536000F5D87303EB01131B6803F0020343
:101D3000537200F5D87303EB01135B6803F00F03D4
:101D4000937200F5D87303EB01135B681B0AD3741D
:101D500000F5D87303EB01139B68D37200F5D873B9
:101D600003EB01139B681C0A147300F5D87303EB93
:101D700001139B681C0C547300F5D87303EB01131B
:101D80009B681B0E937300F5D87303EB0113DB689C
:101D9000D37300F5D87303EB0113DB681C0A1474CA
:101DA00000F5D87303EB0113DB681C0C547400F5C9
:101DB000D87303EB0113DB681B0E937421B9C3685E
:101DC00043F02003C36003E0036943F02003036191
:101DD00010BD10B502460020936803F08063B3F194
:101DE000806F00D110E0936803F00063B3F1006FDF
:101DF00001D1012008E0936803F08053B3F1805FC4
:101E000001D1022000E00420042874D002F5C07340
:101E100003EB00131B6803F0010402F5C07303EB2E
:101E200000131C600B7A7BB94B7A0C8843EA44534D
:101E300002F5C07404EB00142468234302F5C07457
:101E400004EB0014236010E00B7A4C6843EAC403EF
:101E50004C7A234302F5C07404EB00142468234336
:101E600002F5C07404EB001423608B7A03F00F03B7
:101E70008B7202F5C07303EB00135B6823F00F0451
:101E800002F5C07303EB00135C6002F5C07303EB53
:101E900000135B688C7A234302F5C07404EB0014D2
:101EA00063608B7B1C064B7B44EA03440B7B44EA58
:101EB0000323CC7A234302F5C07404EB0014A3601F
:101EC0008B7C1C064B7C44EA03440B7C44EA0323D2
:101ED000CC7B234302F5C07404EB0014E36002F5ED
:101EE000C07303EB00131B6843F0010402F5C073D9
:101EF00003EB00131C6010BD10B500F025F90023A2
:101F00001A461946184600F057F810BD10B5234878
:101F10000078042806D100231A461946184600F016
:101F20004BF839E01D48007801280AD11C4A528933
:101F300002EB8202520011B2194A508A05F016FAD9
:101F40002AE016480078032802D100F050F923E077
:101F50001248007810B900F04AF91DE00F480078E7
:101F6000022819D10F48B0F9000000EE100AB8EEAF
:101F7000C00A05F007F80C4908800949488A0A494F
:101F8000B1F9001005F0F2F901200849088000209D
:101F9000074908800749088010BD000000000020A4
:101FA0003C06002030000020040000203600002005
:101FB00034000020060000202DE9F04107460C46C1
:101FC00015461E4642F210715748584AB2F9002091
:101FD00000EE102AF8EEC00A00EE107AB8EEC00A41
:101FE00002F05CF8BDEEC00A10EE100A07B242F231
:101FF00010714D484E4AB2F9002000EE102AF8EE5A
:10200000C00A00EE104AB8EEC00A02F047F8BDEE72
:10201000C00A10EE100A04B242F210714248454A5A
:10202000B2F9002000EE102AF8EEC00A00EE105AB5
:10203000B8EEC00A02F032F8BDEEC00A10EE100A87
:1020400005B242F2107138483B4AB2F9002000EE66
:10205000102AF8EEC00A00EE106AB8EEC00A02F0CC
:102060001DF8BDEEC00A10EE100A06B2334890ED1E
:10207000000A334880ED000A90ED000A384600F06F
:10208000BFF807462E4890ED000A204600F0B8F849
:1020900004462B4890ED000A284600F0B1F80546AA
:1020A000274890ED000A304600F0AAF80646DFED1A
:1020B000250A00EE107AB8EEC00A00F081F8BDEEF5
:1020C000C00A10EE100A07B2DFED1E0A00EE104A39
:1020D000B8EEC00A00F074F8BDEEC00A10EE100AA7
:1020E00004B2DFED180A00EE105AB8EEC00A00F094
:1020F00067F8BDEEC00A10EE100A05B2DFED110A56
:1021000000EE106AB8EEC00A00F05AF8BDEEC00A40
:1021100010EE100A06B233462A4621463846FFF72B
:10212000C3F8BDE8F08100007C020020D40100204B
:10213000D6010020D8010020DA010020140100207F
:102140002400002000C0DA4510B5DFED132A9FED12
:10215000132ADFED131A9FED101ADFED120A9FED1F
:10216000120A124801F0B0FF2F21104802F011FCB2
:10217000DFED092A9FED092ADFED091A9FED0C1A00
:10218000DFED0C0A9FED0C0A0C4801F09DFF2F219A
:102190000A4802F0FEFB10BD0000000000004843AA
:1021A000000048C36666C640CDCC2C407C020020AF
:1021B000295C8F3D9A99993ECDCC4C3FB4020020CA
:1021C000B0EE401AB1EE600AB4EEC01AF1EE10FAA9
:1021D00002D2B1EE600A7047B4EEE01AF1EE10FAE6
:1021E00002DDB0EE600AF6E7B0EE410AF3E710B5A3
:1021F00000231A4619461846FFF756F810BD00008E
:1022000010B52DED0E8B0446B0EE408A18EE100A84
:10221000FEF77CF941EC1A0BB0EE4A0AF0EE6A0ABE
:1022200003F0BAFFB0EE409AF0EE609A9FED210BFA
:1022300053EC102B51EC190BFEF77CF903D2002064
:10224000BDEC0E8B10BD18EE100AFEF75FF941ECE5
:102250001E0BB0EE4E0AF0EE6E0A03F09DFFB0EEDC
:1022600040DAF0EE60DA9FED130B53EC102B51ECDB
:102270001D0BFEF7BEF841EC1C0B9FED100B53EC51
:10228000102BFEF741F841EC1A0B2046FEF720F91F
:1022900041EC1B0B53EC1A2BFEF739F841EC190BF0
:1022A000FEF760F908EE900ABDEEE80A10EE100A9B
:1022B00000B2C5E700000000000018400000000068
:1022C0000000F03F10B54A48007804280CD10020E7
:1022D000484908709621484802F04DFF00221146F7
:1022E0001046FFF7D5FA81E041480078012851D126
:1022F0004FF49671404802F03EFF404890ED000ACE
:10230000B5EEC00AF1EE10FA11D03A48007870B973
:102310003B4890ED000A394880ED000A394890EDBD
:10232000000A394880ED000A01203249087004F0A3
:1023300007FE3648B0F90600354908803348007C6E
:1023400010B10120334908703048407C28B1314831
:102350000078012801D1304908702C48807C00F0B9
:10236000C000402802D0802806D102E005F088FB9A
:1023700003E005F07BFB00E000BF00BFFEF708FCB8
:1023800026480078FEF702FD2148B0F90000FEF76C
:1023900077FB2BE01648007803280CD10020154964
:1023A00008708C21144802F0E6FE00221146104607
:1023B000FFF76EFA1AE00E48007860B900200D4968
:1023C000087096210C4802F0D6FE002211461046F5
:1023D000FFF75EFA0AE006480078022806D10020DE
:1023E000044908709621044802F0C5FE10BD0000A3
:1023F00000000020200100200004014050020020C5
:10240000F4010020F8010020540200203C060020C6
:102410002201002026010020270100207801002051
:1024200010B505F037FB04F021FC05F0FDF90022A2
:1024300011461046FFF72CFA10BD0246002002EAB2
:1024400001030BB1012000E00020704710B54048A7
:102450000068401C3E49086002F088F905F050FA17
:1024600000F084FCFFF72EFF394800680521B0FB1F
:10247000F1F201FB1200022801D105F023FD3448DE
:1024800000680A21B0FBF1F201FB120008B9FFF766
:102490003DFD2F4800680A21B0FBF1F201FB12005C
:1024A000012801D102F024FB294800687D21B0FBFE
:1024B000F1F201FB120070B92648007858B926489D
:1024C000006880F48040244908602448406980F016
:1024D0008000224948611E4800684FF4FA71B0FB41
:1024E000F1F201FB120078B91A48007803280BD1E9
:1024F0001948006880F4804017490860174840690F
:1025000080F08000154948611148006840F2E731C9
:10251000B0FBF1F201FB120001280FD10D48007849
:1025200001280BD10C48006880F480400A490860FB
:102530000A48406980F08000084948610448006802
:1025400042F21071884202D100200149086010BD9A
:10255000A8010020000000201414024000100240D6
:102560001CB50121080201F063FF012000908DF8E5
:10257000040000208DF8060003208DF805000120DE
:102580008DF807006946044800F018FB0121024855
:1025900000F088FB1CBD00000020024010B5074978
:1025A000074800F0BBF938B10449054800F0CAF803
:1025B0000249034800F0E0F810BD00000088001058
:1025C0002860024010B50749074800F0A7F938B164
:1025D0000449054800F0B6F80249034800F0CCF879
:1025E00010BD0000008800102864024010B5464964
:1025F000464800F093F900287ED04FF081514348BF
:1026000000F0A0F84049414800F0B6F84048007892
:102610003F49497840EA0120C0F30A003D4908805B
:102620003B484078C0103A49897840EA4110C0F3ED
:102630000A00384948803648807880113449C97882
:1026400040EA81003249097940EA8120C0F30A005A
:10265000304988802E48007940102D49497940EA58
:10266000C110C0F30A002B49C880294840790011E5
:102670008008087226484079C0F301104872244847
:1026800080792349C97940EA012000B22149488173
:102690001F48007A1E49497A40EA012001B21D48CC
:1026A00081811B48807A1A49C97A40EA012001B227
:1026B0001848C1811648017B164801741448417BB3
:1026C000144841741248807B1149C97B40EA0120BB
:1026D000104948820E48007C0D49497C40EA01209F
:1026E0000C4988820C48B0F90000642802DB002005
:1026F00009490880084800E004E00088401C00B256
:102700000549088010BD0000008020104064024090
:102710005206002026060020CA01002010B50749F5
:10272000074800F0FBF838B10449054800F00AF802
:102730000249034800F020F810BD0000008020206E
:10274000A06402400246094B9A4201D2084801E0C7
:102750000648103801F000531BB1064B0B40C36014
:1027600002E0044B0B40836070470000106402409D
:10277000006002407D0F7D0F0246094B9A4201D254
:10278000084801E00648103801F000531BB1064B21
:102790000B40C36002E0044B0B40836070470000B5
:1027A00010640240006002407D0F7D0F21B102687D
:1027B00042F00102026003E0026822F001020260BE
:1027C00070470000016821F00101016000210160F3
:1027D00041608160C1600161212141614A498842B3
:1027E00004D13D21484A103A91608CE046491831A5
:1027F000884205D14FF47461434A103A916082E0F7
:1028000041493031884205D14FF474113E4A103AA3
:10281000916078E03C494831884205D14FF07461BD
:10282000394A103A91606EE037496031884204D1EC
:102830003649354A103AD16065E0334978318842EB
:1028400004D13349304A103AD1605CE02E499031CE
:10285000884204D12F492C4A103AD16053E02A49CA
:10286000A831884205D14FF03D51274A103AD16036
:1028700049E02949884204D13D21274A083A11609C
:1028800041E025491831884205D14FF47461224A4C
:10289000083A116037E020493031884205D14FF4C1
:1028A00074111D4A083A11602DE01B4948318842D5
:1028B00005D14FF07461184A083A116023E01649B7
:1028C0006031884204D11149134A121F11601AE085
:1028D00011497831884204D10D490F4A121F116005
:1028E00011E00D499031884204D10A490A4A121F69
:1028F000116008E00849A831884204D14FF03D51E9
:10290000054A121F11607047106002403D00002010
:10291000400F002000003D201064024070B50246C8
:10292000002000240025124EB24201D2114B01E0DA
:102930000F4B103B104E0E4036B11E2606EAD12436
:10294000166806EA040502E0566906F0800501F003
:1029500000560EB15C6800E01C68084E344004EA82
:10296000010616B10DB1012000E0002070BD00008D
:1029700010640240006002403C0F3C0F7D0F7D0F51
:1029800010B501F080034BB122B1436943F08003DD
:10299000436103E0436923F08003436180290BD046
:1029A0002AB1036801F01E042343036004E00368B6
:1029B00001F01E04A343036010BD000010B5002207
:1029C0000268134B1A40CC680B6823434C692343BD
:1029D0008C692343CC6923430C6A23434C6A234309
:1029E0008C6A23434C6B23438C6B23431A43026052
:1029F000426922F00702D1E90B3423431A434261B2
:102A00000B6943604B6883608B68C36010BD000036
:102A10003F801CF07047000000B51C480068401E55
:102A20001A4908601A4890ED000ADFED1A0AB4EE60
:102A3000E00AF1EE10FA1DDB90ED000ADFED160A58
:102A4000B4EEE00AF1EE10FA14D814480068082831
:102A500010DA0846006800280CDC1148006848B904
:102A600002F016F80D480068401C0C49086064200C
:102A70000649086009480068082805DB0120084964
:102A8000086000200549086000BD0000A00000208B
:102A90000002002000C07345002080458000002017
:102AA0007C00002010B51448008888B964211348C0
:102AB00002F061FB6421114802F05FFB9FED100AF8
:102AC000104880ED000A4FF400510F4800F0EAF87A
:102AD0000948008801280ED140F21D11074802F074
:102AE0004AFB40F21D11054802F047FB4FF400512C
:102AF000054800F0D9F810BD64000020001800401F
:102B000000000000C00000200018024010B5264858
:102B1000407C30B125480088401C00B22349088021
:102B200002E000202149088021480088B0B92148EE
:102B3000007898B920480078012806D11C490880FF
:102B400000201D490870FFF7ADFF1848008808B342
:102B5000012017490880FFF7A5FF1BE014480088F3
:102B6000012817D114480078012806D10020104907
:102B7000088011490870FFF795FF0C48B0F9000074
:102B8000282807DD00200A490880C8200949087064
:102B9000FFF788FF07480078002804DD0548007823
:102BA000401E0449087010BD3C060020660000204D
:102BB0006400002068000020C8010020F0B50A462B
:102BC00000210023002400BF3DE0012505FA01F3A8
:102BD000156805EA03049C4234D105684F000326BA
:102BE000BE40B543056015794E00B54006683543D3
:102BF00005601579012D02D01579022D16D1856851
:102C00004F000326BE40B543856055794E00B54060
:102C1000866835438560456801268E40B54345602A
:102C2000456896798E40B6B235434560C5684F0019
:102C30000326BE40B543C560D5794E00B540C66891
:102C40003543C560491C1029BFD3F0BDF0B5002342
:102C500000244D07ED0E02FA05F3CE1000F1200519
:102C600055F826504E07F70E0F26BE40B543CF103D
:102C700000F1200646F82750CE1000F1200555F847
:102C8000265045EA0304CE1000F1200545F8264001
:102C9000F0BD0246002013690B400BB1012000E09B
:102CA00000207047418370470183704710B5044688
:102CB0000723012221460848FDF73EFE0648FDF79E
:102CC00097FE00BF02210448FDF702FE0028F9D05C
:102CD0000148FDF7F9FD10BD0020014030B5034665
:102CE00013B94FF6FF7030BD09E013F8014B82EACB
:102CF0000400C0B2054D35F8100080EA2222081EFB
:102D0000A1F10101F1D11046EDE700000A800008B1
:102D100030B5034605E013F8010B80EA02040448CD
:102D2000025D081EA1F10101F5D1104630BD000081
:102D30000A7F000810B500F02BFC00F08FFC09485A
:102D400090ED000ABDEEC00A10EE100A01B206486E
:102D500090ED000ABDEEC00A10EE100A00B2FEF7B8
:102D60006FF910BD440000205000002010B541F65E
:102D70001C311548B0F9000000F0BEFC1349088072
:102D80001348C0881349088013480078012801D1EE
:102D90000020088000F026F800F040FB0F4890ED7E
:102DA000000ABDEEC00A10EE100A01B20C4890ED08
:102DB000000AB1EE400ABDEEC00A10EE100A00B2E1
:102DC000FEF73EF910BD0000D20100205C0000209B
:102DD0003C0600205E00002000000020440000208F
:102DE0005000002010B52DED088BB5480078042860
:102DF00009D19FEDB40AB44880ED020A9FEDB10AF3
:102E000080ED000A59E1AE480078012803D1002086
:102E1000AE49087051E1AA48007802287ED1AC4939
:102E2000B1F90C00FDF754FB41EC1B0B9FEDA90B16
:102E300053EC102BFDF76BFA41EC190BA24890ED07
:102E4000020A10EE101A0846FDF760FB41EC1A0B5F
:102E500053EC192BFDF755FA41EC180BFDF782FBEB
:102E6000994988609D48B0F90000B0F52F7F65DA78
:102E70009A48B0F9000010F52F7F5FDD9448B0F953
:102E80000A001E2803DD1E209149488109E0904870
:102E9000B0F90A0010F11E0F03DA6FF01D008C4923
:102EA00048818F480068012822D18E480068FDF7CC
:102EB0000FFB41EC1B0B9FED8C0B53EC102BFDF724
:102EC00026FA41EC190B804890ED000A10EE101A1A
:102ED0000846FDF71BFB41EC1A0B53EC192BFDF7D1
:102EE0006FF941EC180BFDF73DFB7749086044E0B2
:102EF0007749B1F90A00FDF7EBFA41EC1B0B9FEDA6
:102F00007A0B53EC102BFDF702FA41EC190B6E48CB
:102F100090ED000A10EE101A084600E0B8E0FDF748
:102F2000F5FA41EC1A0B53EC192BFDF749F941EC7A
:102F3000180BFDF717FB644908601EE06748B0F9FD
:102F40000000B0F52F7F09DD5F4890ED000ADFED4E
:102F5000680A30EE200A80ED000A0EE05F48B0F902
:102F6000000010F52F7F08DA574890ED000ADFEDDA
:102F7000600A30EE600A80ED000A5E4890ED000ABB
:102F80005D48D0ED000A30EE600AB1EE400ADFED98
:102F90005B0A20EE200A4C4880ED010A90ED000A01
:102FA000D0ED010A30EE600ADFED550AB4EEE00A1A
:102FB000F1EE10FA04DB9FED520A80ED000A11E0F9
:102FC000414890ED000AD0ED010A30EE600ADFEDD5
:102FD0004D0AB4EEE00AF1EE10FA03D89FED490A6B
:102FE00080ED000A484890ED000A4848D0ED000AFC
:102FF00030EE600ADFED410A20EE200A324880ED13
:10300000030A90ED000AD0ED010A30EE600ADFED10
:10301000400AB4EEE00AF1EE10FA07DD90ED000A86
:10302000DFED3C0A30EE600A80ED000A264890EDA4
:10303000000AD0ED010A30EE600ADFED370AB4EE87
:10304000E00AF1EE10FA07D290ED000ADFED310A46
:1030500030EE200A80ED000A1B48D0ED020AB0EEE7
:10306000600ABAEE041AF3EE0E0A00F0FCFE1648EF
:1030700080ED020AD0ED020AB0EE600ABAEE041A40
:10308000F3EE0E0A00F0EFFE0F4880ED020A14E0A6
:103090000B480078032808D100200C490870032051
:1030A0001E49087000F0DAFA07E00548007820B9F8
:1030B00000201A49087000F0D1FABDEC088B10BD51
:1030C0000000002000000000EC0200206000002052
:1030D0003C0600207B14AE47E17A743F5C00002080
:1030E000280000202C000020FCA9F1D24D62703F86
:1030F000A69B443C2402002030020020333365426A
:1031000000002F4400002FC42C02002034020020B5
:10311000000034430000B443000034C30100002029
:1031200010B52DED048BB0EE408A2048B0F90000B8
:1031300000EE100AB8EEC00AF0EE408A1C4890ED8E
:10314000050AB1EE400ADFED1B0A20EE200AB0EEC0
:10315000409A4FF4FA611848F0EE680AB0EE480A57
:1031600000F09CFF154880ED000A90ED000AF3EE98
:10317000040A80EE201AF0EE419A4FF47A710E485C
:103180003830F0EE490AB0EE690A00F087FF0C48CB
:1031900080ED000ADFED0B0A90ED000A00F04CFE16
:1031A000094880ED000ABDEC048B10BDD001002061
:1031B000DC04002033336542FC0200203C00002088
:1031C0004000002000409C454400002010B52DED3B
:1031D000048BB0EE408A264890ED030AF0EE408A58
:1031E000244890ED050AB1EE400ADFED230A20EEF7
:1031F000200AB0EE409A9FED210A28EE000AB0EEB8
:10320000408A9FED1E0A28EE800AF0EE408A4FF4B5
:10321000FA611B48F0EE680AB0EE480A00F03EFF83
:10322000184880ED000A90ED000AB1EE400AF3EE76
:10323000040A80EE201AF0EE419A4FF47A71104899
:103240003830F1EE490AB0EE690A00F027FF0E4867
:1032500080ED000ADFED0D0A90ED000A00F0ECFDB4
:10326000B1EE400A0A4880ED000ABDEC048B10BDA7
:10327000EC020020DC040020333365424A0CB641E6
:10328000FC0200203C0000204000002000409C4543
:103290004400002010B52DED048BB0EE408A244888
:1032A000B0F9000000EE100AB8EEC00AF0EE408A55
:1032B000204890ED060AB1EE400ADFED1F0A20EE2D
:1032C000200AB0EE409A4FF4FA611C48F0EE680A0A
:1032D000B0EE480A00F0E2FE194880ED000A90EDD9
:1032E000000AB1EE400AF3EE040A80EE201AF0EE76
:1032F000419A4FF47A7111483830F1EE490AB0EE34
:10330000690A00F0CBFE0F4880ED000ADFED0E0ADF
:1033100090ED000A00F090FD0C4880ED000A90ED61
:10332000000AB1EE400A80ED000ABDEC048B10BD2E
:103330005C000020DC040020333365426C03002075
:10334000480000204C00002000409C455000002018
:1033500010B52DED048BB0EE408A274890ED010AA0
:10336000F0EE408A254890ED060AB1EE400ADFED06
:10337000240A20EE200AB0EE409A9FED220A28EEA1
:10338000000AB0EE408A9FED1F0A28EE800AF0EE98
:10339000408A4FF4FA611C48F0EE680AB0EE480A21
:1033A00000F07CFE194880ED000A90ED000AF3EE73
:1033B000040A80EE201AF0EE419A4FF47A71124816
:1033C0003830F1EE490AB0EE690A00F067FE1048A5
:1033D00080ED000ADFED0F0A90ED000A00F02CFDF1
:1033E0000D4880ED000A90ED000AB1EE400A80ED34
:1033F000000ABDEC048B10BDEC020020DC040020B0
:10340000333365424A0CB6416C030020480000206B
:103410004C00002000401C465000002010B52548FC
:103420000078042808D19FED240AFFF779FE9FED6C
:10343000230AFFF72FFF3AE01E48007801280AD13F
:1034400000F0A6F89FED1C0AFFF76AFE9FED1B0A2D
:10345000FFF720FF2BE017480078032800D110BDAC
:103460001448007800B9FAE71248007802281ED103
:1034700000F02AF81248007838B9124890ED010A95
:1034800080ED000A01200E4908700E48D0ED020AB6
:103490009FED0A1A71EE600AB0EE600AFFF796FE21
:1034A0000848D0ED000AB0EE600AFFF751FF00BFF8
:1034B000D5E700000000002000C08A4400000000A2
:1034C00060000020EC02002010B5DFED282A9FEDFF
:1034D000282ADFED281AB6EE001AF2EE040AB3EE3F
:1034E0000C0A254800F0F0FD2F21234801F051FA85
:1034F000DFED1E2A9FED212ADFED211A9FED1B1A19
:10350000F0EE000AB3EE040A1B48383000F0DCFD90
:103510002F211948383001F03CFADFED142A9FEDD5
:10352000192ADFED191AB1EE001AF2EE040AB3EE11
:10353000090A164800F0C8FD2F21144801F029FAA5
:10354000DFED0A2A9FED0D2ADFED0D1A9FED071A18
:10355000F0EE000AB3EE040A0C48383000F0B4FD77
:103560002F210A48383001F014FA10BD0000000085
:103570000000F0420000F0C2FC0200200000704297
:10358000000070C200009643000096C36C03002048
:1035900010B5DFED282A9FED282ADFED281A9FEDD0
:1035A000251ADFED240AB1EE060A254800F08CFD4D
:1035B0002F21234801F0EDF9DFED1E2A9FED212A8E
:1035C000DFED211A9FED1B1ADFED1A0AB2EE0C0A8D
:1035D0001B48383000F078FD2F211948383001F0B1
:1035E000D8F9DFED142A9FED192ADFED191A9FEDA6
:1035F000111ADFED100AB2EE080A164800F064FD59
:103600002F21144801F0C5F9DFED0A2A9FED0D2A9C
:10361000DFED0D1A9FED101ADFED060AB3EE000A7A
:103620000C48383000F050FD2F210A48383001F0A6
:10363000B0F910BD000000000000F0420000F0C230
:10364000FC02002000007042000070C20000C8436D
:103650000000C8C36C030020CDCCCC3D9FED100A08
:10366000104880ED020A104890ED000ADFED0F0AC5
:1036700020EE200A0E48D0ED000A9FED0C1A10EE45
:10368000810A084880ED000A9FED050A094880ED8F
:10369000000A9FED030A084880ED000A7047000009
:1036A00000000000EC0200202402002033336542B9
:1036B00030020020500000204400002010B50B48CC
:1036C0000078032802D00948007870B908480078CB
:1036D00001280AD104200649087000200549087015
:1036E000FFF756FF01200149087010BD01000020BE
:1036F00000000020B60100200246501AB0F5805F9D
:1037000001DDA2F50052501A10F5805F01DA02F5D2
:103710000052521A10B2704710B50648008808B916
:1037200001F062FA03480088012801D100F004F892
:1037300010BD00006400002010B53748007C3749F8
:1037400008603548007C012807D135480068401CD6
:103750003349086000203349086030480068324926
:10376000096888420BD02D480068012807D12F48EE
:10377000006820B92E480068401C2D490860274881
:103780000068294908602B48006820B12948006872
:10379000401E284908602548006820B12348006879
:1037A000401E224908602348006818B91C48006878
:1037B000002806DC1F48006860BB1A480068002823
:1037C00028DD01211C48FFF76FFA1C48006828B16A
:1037D0001A480068401E194908601BE01420174968
:1037E000086000201649086001211348FFF75AFAC3
:1037F0000F480068002807DD01F04AF964201149EC
:10380000086000200A49086000200549086064201B
:103810000849086010BD00003C060020FC000020A4
:1038200078000020840000200001002070000020AB
:10383000A80000206C00002000200240740000203E
:103840007C000020A000002000BFFEE71CB5012185
:10385000802000F0EDFD4FF48050009000208DF8A6
:10386000040003208DF8050001208DF8070069464B
:103870000448FFF7A3F94FF480510348FFF714FA07
:103880001CBD0000000C0240001C024032480088B1
:10389000A0F5806000B2314908802F484088A0F52B
:1038A000806000B248802C488088A0F5806000B21B
:1038B00088802948C088A0F5806000B2C88026486A
:1038C000007A08722448407A48722348B0F90A0006
:1038D000282801DD28200BE01F48B0F90A0010F16C
:1038E000280F02DA6FF0270002E01B48B0F90A0047
:1038F0001A4948811848B0F90C00282801DD282011
:103900000BE01548B0F90C0010F1280F02DA6FF047
:10391000270002E01048B0F90C00104988810E48D9
:10392000017C0E4801740C48417C0C4841740A48E3
:10393000408A0A4948820A480078012806D1084688
:10394000007A032802D10120064908700348007A52
:103950000349087070470000260600203C0600203E
:10396000C9010020C80100201CB50121402000F041
:103970005FFD4FF40050009001208DF804000020FE
:103980008DF8060003208DF8050001208DF8070052
:1039900069460448FFF712F94FF400510148FFF758
:1039A00081F91CBD001802401CB50121302000F037
:1039B0003FFD4FF48040009001208DF8040000206E
:1039C0008DF8060003208DF8050001208DF8070012
:1039D00069460948FFF7F2F88020009069460748D9
:1039E000FFF7ECF84FF480410348FFF75DF98021C1
:1039F0000248FFF757F91CBD0014024000100240B6
:103A000010B52DED028B3D4890ED000A3C48D0EDFD
:103A1000000A30EE600AB0EE408AB2EE040AB4EE5C
:103A2000C08AF1EE10FA06DCBAEE040AB4EEC08ADF
:103A3000F1EE10FA0ED24FF4FA613248304AD2ED6C
:103A4000000A2E4A92ED000A00F028FB2E4880ED75
:103A5000000A04E09FED2D0A2B4880ED000A2C4857
:103A600090ED000A2B48D0ED000A30EE600AB0EE6F
:103A7000408AB2EE040AB4EEC08AF1EE10FA06DC17
:103A8000BAEE040AB4EEC08AF1EE10FA0ED24FF488
:103A9000FA6121481F4AD2ED000A1D4A92ED000A40
:103AA00000F0FCFA1D4880ED000A04E09FED170AC3
:103AB0001A4880ED000A1448D0ED000AB7EE001A4B
:103AC00060EE810AB0EE600ADFED150A00F02AF818
:103AD0000D4880ED000A1148D0ED000AB7EE001A3B
:103AE00060EE810AB0EE600ADFED0D0A00F01AF810
:103AF0000A4880ED000ABDEC028B10BD5002002088
:103B0000F4010020D007002048020020000000003F
:103B100054020020F8010020080800204C02002078
:103B20000000FA45B0EE401AB1EE600AB4EEC01AD9
:103B3000F1EE10FA02D2B1EE600A7047B4EEE01A6C
:103B4000F1EE10FA02DDB0EE600AF6E7B0EE410ADF
:103B5000F3E700002DE9F04105460C46164600202B
:103B60000A49086045F0800000F0EAFE002706E000
:103B7000FF2000F0E5FE2070641C781CC7B2B7423D
:103B8000F6DB012001490860BDE8F08198824242DD
:103B900070B5044600200849086044F0800000F039
:103BA000CFFEFF2000F0CCFE054601200349C1F8FE
:103BB0009802284670BD000098824242008042422E
:103BC00070B505460C46002007490860284600F0FD
:103BD000B7FE0646204600F0B3FE01200349C1F8B7
:103BE0009802304670BD00009882424200804242F6
:103BF00010B54FF47A7003F0B5F803F045FA0028D9
:103C000043D00A2003F0AEF880216B20FFF7D8FFE5
:103C1000642003F0A7F803216B20FFF7D1FF0A20EF
:103C200003F0A0F800216C20FFF7CAFF0A2003F080
:103C300099F800211920FFF7C3FF0A2003F092F83A
:103C400002211A20FFF7BCFF0A2003F08BF80221A3
:103C50003720FFF7B5FF0A2003F084F810211B205E
:103C6000FFF7AEFF0A2003F07DF802211C20FFF7CA
:103C7000A7FF0A2003F076F808211D20FFF7A0FF18
:103C80000A2003F06FF803F00BFA10BD00B52DED1C
:103C9000048B85B00E2201A93B20FFF75BFF9DF846
:103CA0000400000200B29DF805100843584908803E
:103CB0000846B0F9000000EE100AB8EEC00ADFEDC9
:103CC000550A80EE201A544880ED001A9DF806002F
:103CD000000200B29DF8071008434D49488008468D
:103CE000B0F9020000EE100AB8EEC00ADFED490A92
:103CF00080EE201A484880ED011A9DF80800000265
:103D000000B29DF809100843414988800846B0F97F
:103D1000040000EE100AB8EEC00ADFED3E0A80EEA5
:103D2000201A3D4880ED021A9DF80A00000200B2F8
:103D30009DF80B1008433649C880B1F90600FCF71E
:103D4000C7FB41EC190B9FED350B53EC102BFCF727
:103D5000DEFA41EC180BFCF705FC2F49C8609DF812
:103D60000C00000200B29DF80D100843284908819C
:103D70000846B0F9080000EE100AF8EEC00A9FED00
:103D8000291A80EE810A2848D0ED000A30EE600A38
:103D9000214880ED040A9DF80E00000200B29DF853
:103DA0000F1008431A4948810846B0F90A0000EE8E
:103DB000100AB8EEC00ADFED1B0A80EE201A1B487D
:103DC00090ED000A31EE400A134880ED050A9DF897
:103DD0001000000200B29DF8111008430C498881C0
:103DE0000846B0F90C0000EE100AB8EEC00ADFED8C
:103DF0000D0A80EE201A0E4890ED000A31EE400ABE
:103E0000054880ED060A05B0BDEC048B00BD00003E
:103E1000CC04002000008046DC04002000000000EC
:103E20000000F03F0000EB44B8010020BC0100207E
:103E3000C001002000BFFEE7B0EE401AB1EE600AFC
:103E4000B4EEC01AF1EE10FA02D2B1EE600A704779
:103E5000B4EEE01AF1EE10FA02DDB0EE600AF6E719
:103E6000B0EE410AF3E7F0EE401AF4EEC11AF1EEBB
:103E700010FA02D2B0EE412A09E0F4EEE01AF1EEB7
:103E800010FA02DDB0EE602A01E0B0EE612AB0EE79
:103E9000420A70477047000070B5002100230F22CE
:103EA000C4781CB3174C246804F4E064C4F5E064DF
:103EB000C4F30721C1F10404E3B20A4144789C40F1
:103EC000E1B28478144021430C07210E0E4C057892
:103ED0006155047804F01F050124AC4005786D118C
:103EE000AD0005F1E025C5F8004109E0047804F0D3
:103EF0001F050124AC40054D0678761145F8264093
:103F000070BD00000CED00E000E400E080E100E0A6
:103F1000024601208840104008B10120704700206F
:103F2000FCE7000030B504460D469FED5A0AF0EE5E
:103F3000401A94F836000021FFF7EAFF10B120463E
:103F400000F0D4F894F834000521FFF7E1FF68BBD6
:103F5000206B281A00EE100AB8EE400ADFED4E2A58
:103F600060EE220A256394F836000121FFF7D0FFA6
:103F700030B194F8360020F0020084F8360030BDED
:103F800094F834000621FFF7C3FFB8B194ED070A97
:103F9000B4EEE00AF1EE10FA10D29FED3E0A84ED85
:103FA000090A84ED0A0A84ED0B0AE8E700EE105ACC
:103FB000B8EE400ADFED382A60EE220A94F83400A9
:103FC0000321FFF7A5FF00285FD094ED000AD4ED90
:103FD000012A30EE621A94F834000021FFF798FFAE
:103FE00038B1D4ED022AB0EE610A02EE810AF0EE99
:103FF000401A94F834000121FFF78AFF48B394ED8A
:104000000B0A01EE200A84ED0B0A94ED0B0AD4EDA5
:10401000062AB4EEE20AF1EE10FA03DD94ED060A88
:1040200084ED0B0A94ED0B0AD4ED052AB4EEE20AF6
:10403000F1EE10FA03D294ED050A84ED0B0AD4EDEB
:10404000032A94ED0B3AB0EE610A02EE830AF0EE19
:10405000401A94F834000221FFF75AFFA8B194EDFA
:10406000090AD4ED0A2A30EE620A80EE202A94ED85
:10407000090A84ED0A0A84ED091AD4ED042AB0EE87
:10408000610A02EE820AF0EE401AC4ED081A00BF7F
:1040900075E7000000000000BD37863530B5F0EE52
:1040A000403AB0EE604A04460D46C4ED003A84ED55
:1040B000014A29462046FFF735FF94ED080AF0EE45
:1040C000404AB0EE640A30BD183000ED040A40EDFD
:1040D000030A00ED021A40ED011A80ED002A0021CA
:1040E00001774177817718387047000030B5034673
:1040F00013F8340F597880EA010413F8340900EA00
:10410000040503212046FFF703FF98B19FED200A25
:1041100083ED090A83ED0A0A83ED0B0A0321284681
:10412000FFF7F6FE50B393F8360040F0020083F834
:10413000360023E001212046FFF7EAFE70B101219D
:104140002846FFF7E5FE48B193F834000421FFF755
:10415000DFFE18B99FED0E0A83ED0B0A02212046FF
:10416000FFF7D6FE50B102212846FFF7D1FE28B155
:104170009FED070A83ED090A83ED0A0A3433587864
:104180001870987820F001009870343B30BD000022
:10419000000000007047B0EE401AB1EE600AB4EEC5
:1041A000C01AF1EE10FA02D2B1EE600A7047B4EE16
:1041B000E01AF1EE10FA02DDB0EE600AF6E7B0EEBA
:1041C000410AF3E710B52DED048BF0EE409A1F483D
:1041D00090ED000AB0EE408A1D48B0F9000000EEF4
:1041E000100AB8EEC00AF0EE408A42F21071194887
:1041F000F0EE480A9FED180AFFF750FF174880EDD0
:10420000000A90ED000AF3EE040A80EE201AB0EEE8
:10421000419A42F210710F483830F0EE680AB0EE61
:10422000490AFFF73BFF0E4880ED000ADFED0D0A5B
:1042300090ED000AFFF7AFFF0B4880ED000A90ED0C
:10424000000A80ED000ABDEC048B10BD00020020C6
:10425000E2010020DC03002000007A45B8000020C5
:10426000BC00002000409C45C000002010B5DFEDE0
:10427000142A9FED142ADFED141A9FED111AF0EEA7
:10428000080A9FED120A1248FFF71EFF2F2110485F
:1042900000F07FFBDFED0A2A9FED0A2ADFED0A1A04
:1042A0009FED0C1AF7EE000AB1EE000A084838300C
:1042B000FFF70AFF2F210648383000F06AFB10BDD7
:1042C0000000000000004843000048C300001842FE
:1042D000DC030020EC51383D10B52DED0A8B0C208D
:1042E000FEF7E4FC0446FCF704F941EC1C0B9FEDDF
:1042F0002A0B53EC102BFCF77CF841EC1B0B9FEDC9
:10430000280B53EC102BFCF702F841EC1A0B9FED35
:10431000260B53EC102BFBF7F4FF41EC190B9FED30
:10432000240B53EC102BFCF764F841EC180BFCF752
:1043300019F92149086008460068FCF7E7F841ECE4
:10434000190BB0EE490AF0EE690A01F025FFB0EE54
:10435000408AF0EE608A51EC180BFCF703F916491D
:104360000860084690ED000AF9EE040AB4EEE00A8F
:10437000F1EE10FA08D390ED000AF1EE040AB4EE63
:10438000E00AF1EE10FA04DD9FED0C0A0A4880ED18
:10439000000ABDEC0A8B10BD000000000000B04018
:1043A0000000006066660A40D7A3703D0AD703404C
:1043B0000000008014AEC73F14010020CDCCCC3FDC
:1043C0001548807C00F01000102803D1012013490B
:1043D000086003E000201149086000BF00BF0F48DB
:1043E0000068012809D10E48006830B90D480068FE
:1043F0000D49086000200D4908600A4801680A4814
:104400000068401C814202D100200849086003482E
:1044100000680349086070473C0600200401002042
:1044200008010020F40000200C0100207C00002086
:1044300029B1064A12680243044B1A6004E0034A99
:1044400012688243014B1A60704700003038024006
:1044500029B1064A12680243044B1A6004E0034A79
:1044600012688243014B1A607047000040380240D6
:1044700029B1064A12680243044B1A6004E0034A59
:1044800012688243014B1A607047000020380240D6
:1044900029B1064A12680243044B1A6004E0034A39
:1044A00012688243014B1A60704700004438024092
:1044B00029B1064A12680243044B1A6004E0034A19
:1044C00012688243014B1A60704700002438024092
:1044D000F0B5002100220024022500260223324FDD
:1044E0003F6807F00C0121B1042905D0082937D114
:1044F00005E02E4F076036E02D4F076033E02A4F6E
:104500003F1F3F68C7F38056274F3F1F3F6807F0A4
:104510003F036EB1264FB7FBF3F7DFF88CC0ACF169
:10452000040CDCF800C0CCF3881C07FB0CF40CE096
:104530001E4FB7FBF3F7DFF870C0ACF1040CDCF8EA
:1045400000C0CCF3881C07FB0CF4174F3F1F3F68DB
:10455000C7F301477F1C7D00B4FBF5F7076002E05D
:10456000124F076000BF00BF0F4F3F6807F0F00118
:104570000909104F7A5C0768D74047600A4F3F68C7
:1045800007F4E051890A0B4F7A5C4768D74087608F
:10459000054F3F6807F46041490B064F7A5C476856
:1045A000D740C760F0BD0000083802400024F40086
:1045B000001BB7006502002000B58FB00121404804
:1045C000FFF736FF01211020FFF762FF0722114697
:1045D0003C48FEF73BFB80200D9002208DF8380010
:1045E00000208DF83A0003208DF8390000208DF866
:1045F0003B000DA93348FEF7E1FA334800F0DCFF39
:10460000324809900020ADF82800ADF82A004FF498
:104610008060ADF82C000420ADF82E000020ADF82D
:10462000300009A9284801F047F80121264800F088
:10463000AEFF01224021244800F0B5FF3A208DF85A
:10464000380001208DF839008DF83A008DF83B00D4
:104650000EA8FFF721FC1E48FEF7B4F84FF00060EB
:1046600000901948001D01901A4802900020039004
:1046700012200490002005904FF4806006900020E6
:10468000079008904FF4807009904FF440300A90E2
:1046900000200B900C900D900E9069460C48FEF790
:1046A0008DF9012210210A48FEF76AF90021084815
:1046B000FEF77CF801210648FEF778F80FB000BD40
:1046C000020040000004024000100140A0860100EA
:1046D00040640240520600201048B0F90000104922
:1046E000B1F9001088420FD10E48B0F900001E2821
:1046F00003DD00200C49087009E00A480088401CCE
:1047000000B20849088002E00020064908800348FA
:10471000B0F900000249088070470000CA0100207B
:10472000CC010020180100200000002010B507482F
:104730000068074908604FF480510648FEF7A9FA5F
:1047400002490860FCF706FC10BD00008C00002048
:1047500088000020001C024010B5FFF797F80420E5
:104760000149087010BD00000000002010B5FFF7DF
:104770008DF800F003F8FEF7A1FF10BD1148007896
:10478000F8B1114890F9090030B1012808D0022889
:104790000AD0032810D10BE000200C4908700FE06C
:1047A00001200A4908700BE003200849087007E05F
:1047B00002200649087003E004200449087000BF85
:1047C00000BF7047B60100203C060020000000201A
:1047D00010B542F210711848184AD2ED000A184A72
:1047E00092ED000AFFF75AFC164880ED000ADFED53
:1047F000160A90ED000AFFF795F9124880ED000ABD
:1048000042F210711148124AB2F9002000EE102A4B
:10481000F8EEC00A0B4A92ED000AFFF73FFC094888
:1048200080ED000ADFED080A90ED000AFFF77AF943
:10483000044880ED000A10BDF0060020FC010020B5
:10484000580200204402002000803B452807002039
:10485000DE0100201CB500243548006840F020002F
:104860003349086032481430006840F48010304901
:10487000143108604FF46070009002208DF804003D
:1048800000208DF8060001208DF8070003208DF828
:10489000050069462748FEF791F9052207212548BA
:1048A000FEF7D4F9052208212248FEF7CFF90522A8
:1048B00009212048FEF7CAF94020009001208DF818
:1048C000040000208DF8060001208DF80700032069
:1048D0008DF8050069461748FEF770F90120164962
:1048E000086013480C38006840F4801010490C39F7
:1048F00008600846006820F48010086000BF44F09B
:10490000040444F4807400BF44F0020444F0010441
:1049100044F4007444F0380400BF44F040040748F5
:104920000480808B20F40060044988831CBD000053
:104930003038024000140240988242420050014048
:104940000246002106E0481C81B2B1F5167F01DD68
:10495000002070470D48008900F002000028F2D0C6
:104960000A488281002106E0481C81B2B1F5167F19
:1049700001DD0020EDE70548008900F00100002876
:10498000F2D002488089C0B2E3E700000050014045
:10499000704700F8351F427842F001024270353806
:1049A000704700000CB5002001900090344800686A
:1049B00040F480303249086000BF3148006800F49C
:1049C000003000900198401C0190009818B901989F
:1049D000B0F5A06FF1D12A48006800F4003010B1A2
:1049E0000120009001E0002000900098012846D1AD
:1049F00023484030006840F0805021494031086031
:104A00002048006840F480401E4908601C48083077
:104A100000681B49083108600846006840F40040FF
:104A200008600846006840F4A05008601648091F56
:104A30000860081F006840F08070091F086000BF10
:104A40000F48006800F000700028F9D040F20560BF
:104A50000E4908600A480830006820F00300084941
:104A6000083108600846006840F00200086000BF96
:104A700003480830006800F00C000828F8D10CBD8D
:104A800000380240007000400C544007003C0240D7
:104A90000A4890ED000ADFED0A0A30EE600A80ED68
:104AA000000A08480068401C06490860084600687B
:104AB000012802DB4FF0FF30086070470002002041
:104AC000000080448400002010B5FFF7CFFBC82110
:104AD000064800F050FBC821044800F04EFB4FF49C
:104AE0007A7002F03FF900F07FF810BD0018004026
:104AF00010B53748007837490870354800780428E1
:104B00000CD100F071F8344890ED000ABDEEC00AF7
:104B100010EE100A00B2FCF7F9FB54E02C480078C4
:104B200001280CD100F060F82B4890ED000ABDEE92
:104B3000C00A10EE100A00B2FCF7E8FB43E024487C
:104B4000007802281FD12348007824490978884238
:104B500004D09FED230A234880ED000AFDF7D6FF1D
:104B6000FEF7DAFDFFF72CFC02F01AF8FDF754FF10
:104B7000194890ED000ABDEEC00A10EE100A00B20E
:104B8000FCF7C4FB1FE01248007803280CD100F0AA
:104B90002BF8114890ED000ABDEEC00A10EE100A85
:104BA00000B2FCF7B3FB0EE00948007858B900F0FA
:104BB0001BF8094890ED000ABDEEC00A10EE100A7D
:104BC00000B2FCF7A3FB034800780449087010BD4D
:104BD00000000020A4000020C0000020A50000204C
:104BE00000007A450002002010B56421064800F05C
:104BF000C2FA6421044800F0C0FA9FED040A044898
:104C000080ED000A10BD0000001800400000000008
:104C1000C0000020042808D14FF0E021096941F0CC
:104C200004014FF0E022116107E04FF0E021096933
:104C300021F004014FF0E02211617047704700003D
:104C400010B51548006840F4700013490860134817
:104C5000006840F001001149086000200F49083148
:104C600008600E4800680E4908400C4908600D486D
:104C7000091D0860081F006820F48020091F0860D3
:104C8000002006490C310860FFF78CFE4FF00060F1
:104C900001498039086010BD88ED00E0003802400D
:104CA000FFFFF6FE1030002400B58BB0012140203C
:104CB000FFF7CEFB01218020FFF7BAFB0922114646
:104CC0002D48FDF7C3FF092206212B48FDF7BEFF43
:104CD0004FF41070099002208DF828008DF82900FB
:104CE00000208DF82A0001208DF82B0009A9224808
:104CF000FDF764FF40F2CF70079040F2CF20ADF88F
:104D000018000020ADF81A00ADF82000012211466D
:104D10001A4800F080F906A9184800F031FA60201E
:104D2000ADF804000120ADF806000020ADF8100039
:104D300001A9124800F078F96020ADF804000120C4
:104D4000ADF806000020ADF8100001A90B4800F0F6
:104D5000B3F90821094800F0A5F90821074800F037
:104D6000FDF90121054800F01BF90121034800F07D
:104D700026F90BB000BD0000001C024000180040E6
:104D800010B50121880700F035F9012803D102F0A0
:104D9000E1FEFFF7CBFC0121880700F00DF910BD03
:104DA0001FB501210846FFF753FB4FF47A700290BC
:104DB0005320ADF804000020ADF80600ADF80C005B
:104DC00001A94FF0804000F0DBF901221146900765
:104DD00000F021F90121880700F0F1F81C208DF87E
:104DE000000000208DF8010001208DF802008DF8F0
:104DF00003006846FFF750F81FBD000010B5012101
:104E0000104800F0F7F8012817D10F48007890B942
:104E10000E480088B0F5FA6F05DA0C480088401C8F
:104E20000A49088007E00020084908800120064957
:104E30000870FEF749FBFDF709FB0121014800F06E
:104E4000BBF810BD000C0040B6010020B4010020EA
:104E50001FB501210820FFF7FBFA4FF47A7002908A
:104E60005320ADF804000020ADF80600ADF80C00AA
:104E700001A90D4800F084F9012211460A4800F00A
:104E8000CAF832208DF8000000208DF801000120C2
:104E90008DF802008DF803006846FEF7FDFF012142
:104EA000014800F08CF81FBD000C004030B58BB0FD
:104EB00004460D4601210220FFF7EAFA012108020B
:104EC000FFF7B6FA032205213348FDF7BFFE0322A0
:104ED00006213148FDF7BAFE032207212E48FDF7CF
:104EE000B5FE032202212C48FDF7B0FEE420099014
:104EF00002208DF828008DF8290000208DF82A0066
:104F000001208DF82B0009A92348FDF757FE4FF427
:104F1000FA60079040F24730ADF818000020ADF875
:104F20001A00ADF82000012211461C4800F073F869
:104F300006A91A4800F024F96020ADF80400012009
:104F4000ADF806000020ADF8100001A9134800F0EC
:104F50006BF86020ADF804000120ADF806000020D9
:104F6000ADF8100001A90D4800F0A6F808210B4883
:104F700000F098F80821094800F0F0F801210748EE
:104F800000F00EF80121054800F025F80121034842
:104F900000F015F80BB030BD0020024000040140C5
:104FA00021B1028842F08002028004E002884FF6BC
:104FB0007F731A4002807047CA430282704721B152
:104FC000028842F00102028004E002884FF6FE737C
:104FD0001A400280704731B1B0F8442042F40042D8
:104FE000A0F8442005E0B0F84420C2F30E02A0F877
:104FF0004420704730B50246002000230024158A63
:1050000005EA0103958905EA010413B10CB10120F9
:1050100000E0002030BD1AB183890B43838102E098
:1050200083898B438381704770B50024002200235D
:10503000058C4FF6FE7635400584028C8388048B00
:105040004FF68F752C40B51E2C400D882C43751ED5
:105050002A408D892A434D882A43104DA84202D008
:105060000F4DA84213D14FF6F7752A40CD892A4338
:105070004FF6FB752A408D882A434FF6FF652B407B
:105080004FF6FF552B400D8A2B434D8A2B438380CF
:1050900004838D684563028470BD000000000140F8
:1050A000000401400A460021018B4FF6F7731940B6
:1050B000114301837047000070B5002400220023D3
:1050C000058C4FF6EF7635400584028C8388048B7F
:1050D00048F6FF752C404FF6FF452C400D884FF6E3
:1050E000FF7606EA05252C434FF6DF752A408D89A9
:1050F00006EA05152A434D8806EA05152A43154D8B
:10510000A84202D0144DA8421DD14FF67F752A4007
:10511000CD894FF6FF7606EA05152A434FF6BF758F
:105120002A408D8806EA05152A434FF6FF352B40A5
:105130004FF2FF752B400D8A06EA85052B434D8AF9
:1051400006EA85052B43838004838D68856302848A
:1051500070BD000000000140000401400A4600212B
:10516000018B4FF2FF7319404FF6FF7303EA0223DE
:1051700019430183704741637047816370470000A2
:1051800000220288184B98420ED0184B98420BD040
:10519000B0F1804F08D0164B984205D0154B98427D
:1051A00002D0154B984204D14FF68F731A404B88AA
:1051B0001A43124B984207D0114B984204D04FF635
:1051C000FF431A400B891A4302804B68C3620B8865
:1051D0000385054B984202D0044B984201D18B7A4B
:1051E00003860123838270470000014000040140D0
:1051F0000004004000080040000C00400010004087
:105200000014004000B58FB001214248FFF710F9AB
:1052100001218804FFF71CF9072208213E48FDF709
:1052200015FD072209213C48FDF710FD4FF44070A1
:105230000D9002208DF8380000208DF83A000320F0
:105240008DF8390000208DF83B000DA93248FDF79C
:10525000B5FC324800F0B0F94FF4E130099000207D
:10526000ADF82800ADF82A00ADF82C000C20ADF800
:105270002E000020ADF8300009A9284800F01CFAE3
:105280000121264800F083F901224021234800F043
:105290008AF90C208DF8380002208DF8390003209F
:1052A0008DF83A0001208DF83B000EA8FEF7F4FDC2
:1052B0001B48FDF787FA4FF0006000901748001D6B
:1052C0000190184802900020039064200490002070
:1052D00005904FF4806006900020079008904FF4EE
:1052E000807009904FF440300A9000200B900C9091
:1052F0000D900E9069460A48FDF760FB01221021CF
:105300000748FDF73DFB01210548FDF74FFA0FB0B7
:1053100000BD000008002000000C024000480040D2
:10532000286002408C06002010B588B00446012198
:105330004020FFF77DF801212020FFF7A9F808227F
:105340000E212448FDF782FC082209212148FDF79F
:105350007DFC4FF48440069002208DF81C008DF8EF
:105360001D0000208DF81E0001208DF81F0006A9E9
:105370001848FDF723FC02940020ADF80C00ADF8AE
:105380000E00ADF81000ADF814000C20ADF81200BE
:1053900002A9114800F090F901210F4800F0F7F838
:1053A00040210D4800F0EAF8012240F225510A4858
:1053B00000F05CF947208DF8040003208DF805000B
:1053C0008DF8060001208DF8070001A8FEF764FDA6
:1053D00008B010BD001802400014014000B58FB0A5
:1053E00001214020FFF724F801218805FFF720F86C
:1053F00001212020FFF74CF808220E215A48FDF722
:1054000025FC082209215848FDF720FC4FF4844070
:105410000D9002208DF8380000208DF83A0003200E
:105420008DF8390001208DF83B000DA94E48FDF79D
:10543000C5FB4E4800F0C0F84FF4E1300990002061
:10544000ADF82800ADF82A00ADF82C000C20ADF81E
:105450002E000020ADF8300009A9444800F02CF9D6
:105460000121424800F093F84021404800F086F8BE
:10547000012280213D4800F096F8012240213B485E
:1054800000F091F839208DF8380001208DF83900AE
:105490008DF83A008DF83B000EA8FEF7FDFC452084
:1054A0008DF8380001208DF839008DF83A008DF81C
:1054B0003B000EA8FEF7F0FC2D48FDF783F94FF0F6
:1054C000206000902948001D01902A480290002089
:1054D000039050200490002005904FF480600690C7
:1054E0000020079008904FF4807009904FF44030EE
:1054F0000A9000200B900C900D900E9069461C486D
:10550000FDF75CFA012210211948FDF739FA012153
:105510001748FDF74BF916487830FDF753F94FF06F
:10552000206000901148001D019013480290402017
:10553000039015200490002005904FF480600690A1
:1055400000200790089009904FF480300A900020C6
:105550000B900C900D900E90694605487830FDF741
:105560002DFA0FB000BD00000018024000140140E9
:1055700028640240C00500201006002001F40072DB
:10558000B2F5007F00D100BFCA430280704721B14D
:10559000828942F40052828104E082894DF6FF73D1
:1055A0001A40828170471AB1838A0B43838202E0DA
:1055B000838A8B438382704710B504462548844212
:1055C00008D101211020FEF773FF00211020FEF703
:1055D0006FFF3EE02048844209D101214804FEF7D4
:1055E00047FF00214FF40030FEF742FF31E01B4837
:1055F000844209D101218804FEF73AFF00214FF4CB
:105600008020FEF735FF24E01548844209D10121AE
:10561000C804FEF72DFF00214FF40020FEF728FFFD
:1056200017E01048844209D101210805FEF720FF48
:1056300000214FF48010FEF71BFF0AE00A48844265
:1056400007D101212020FEF733FF00212020FEF7A3
:105650002FFF10BD001001400044004000480040F2
:10566000004C00400050004000140140F0B50346DB
:10567000002400260025002040F66A17B94200D118
:1056800000BF1846C1F3421401F01F06012707FAB4
:1056900006F5012C01D10C3004E0022C01D11030B0
:1056A00000E014301AB107682F43076002E0076872
:1056B000AF430760F0BD00002DE9FF4705460E46E9
:1056C0000024A14600BFA046B08900B100BF2C8ACB
:1056D00024F44054F08804432C82AC8941F20C60DD
:1056E0008443B08831890843718908430443AC81FD
:1056F000AC8A24F44074B0890443AC826846FEF757
:10570000E7FE2048854202D01F48854202D1DDF8DD
:105710000C9001E0DDF80890A88900F4004040B149
:1057200009EBC90000EB091031684900B0FBF1F743
:1057300007E009EBC90000EB091031688900B0FBF4
:10574000F1F76420B7FBF0F004012009642101FBAC
:105750001078A88900F4004040B1322000EBC80066
:10576000B0FBF1F000F00700044308E0322000EB4A
:1057700008106421B0FBF1F000F00F0004432C810D
:10578000BDE8FF87001001400014014000BFFEE7A4
:1057900070B505460C4600260DB1022C01D800203C
:1057A00070BDA11E094802882846FDF797FA0646F3
:1057B000F1B2A01E285C814206D1601E285CB0EBCD
:1057C000162F01D10120EBE70020E9E79E01002020
:1057D00070B505460C4600260DB1022C01D80020FC
:1057E00070BD611EFF222846FDF792FA0646601E34
:1057F000285CB04201D10120F2E70020F0E730B58B
:1058000004462078A52801D0002030BD601C01F09E
:10581000B5F900F1090505212046FFF7D9FF30B1A0
:1058200029462046FFF7B4FF08B10120EDE700202C
:10583000EBE7000010B5FFF747F9FEF7D9F901F0E3
:10584000CFFCFEF789FFFCF757FBFDF773FAFCF777
:10585000E7FD40F2DC510748FFF78DFCFA2001F02C
:1058600081FA00210348FFF786FC0020FBF74EFD7C
:1058700010BD00000004004003B4019841000098EE
:1058800050EAC12018BF04204A0D18BF40F00100A3
:1058900040F2FF72B2EB515F08BF40F002000128F6
:1058A00008BF052002B0704770B5C1482DED020B4E
:1058B0002DED0E8B82B0119D25F000449FEDBEDBD7
:1058C0009FEDBFEB84423EDBA4F140511098A1F163
:1058D0007F6108430FD0BC48844202DC28D1109875
:1058E00030B39DED100B02B0BDEC0E8B02B0BDE8E5
:1058F000704001F0E9B89DED100B53EC1D2B51ECFD
:10590000100BFAF704FD9DED100B41EC180B53EC56
:105910001E2B51EC100BFAF7FAFC53EC182BFAF78C
:105920004FFC41EC100B02B0BDEC0E8B02B070BD11
:10593000012001F00DF902B0BDEC0E8B02B0BDE804
:10594000704001F0D5B8A1489FEDA18B844256DA92
:105950009DED100BB4F1795F0ADA51EC100BFFF7F3
:105960008BFF042808BF01F0D3F89DED100BDAE798
:1059700053EC102B51EC100BFAF7C9FC41EC190B4E
:1059800095480621B0EE490AF0EE690A784400F025
:1059900087FF53EC192B51EC100BFAF7B8FC41ECD4
:1059A0001A0B8E48B0EE490AF0EE690A04217844D9
:1059B00000F076FF53EC192B51EC100BFAF7A7FC13
:1059C00053EC182BFAF7FCFB41EC100B51EC1A0BC3
:1059D00053EC102BFAF70DFDCDE900019DED000B06
:1059E00053EC102B9DED100B51EC100BFAF78FFCC4
:1059F0009DED101B53EC112BFAF7E2FBD2E09DED6D
:105A0000100B51EC100B01F08FFA53EC182BFAF736
:105A10007BFC9FED730BCDE9000153EC102B9DED4A
:105A2000000B51EC100BFAF772FC41EC190B6E48AD
:105A30000621B0EE490AF0EE690A784400F030FF22
:105A400053EC192B51EC100BFAF761FC41EC1B0BDA
:105A50006648B0EE490AF0EE690A0421784400F085
:105A60001FFF53EC192B51EC100BFAF750FC53ECC1
:105A7000182BFAF7A5FB41EC1C0B51EC190B02F0AB
:105A800031F841EC180B5A489FED5BABA04222DC89
:105A900053EC1C2B51EC1B0BFAF7ABFCCDE90001CE
:105AA0009DED000B51EC180B53EC102BFAF72FFC6B
:105AB00053EC182BFAF784FB53EC1A2BFAF727FC5C
:105AC00053EC1D2BFAF71DFC53EC1E2BFAF71CFCB4
:105AD00041EC100B5FE08DED008B002000909DED00
