:020000040800F2
:10000000200B00209D010008553D0008093700081D
:10001000F53C0008050F00083755000800000000F7
:10002000000000000000000000000000E1470008A0
:100030002D2900080000000055400008894A0008EA
:10004000B7010008B7010008B7010008B7010008B0
:10005000B7010008B7010008B7010008B7010008A0
:10006000B7010008B7010008B7010008B701000890
:1000700005250008B7010008B7010008B70100080E
:10008000B7010008B7010008B7010008B701000870
:1000900011110008B7010008B7010008B7010008F6
:1000A000B7010008B7010008B7010008B701000850
:1000B000CD4B0008B7010008B7010008B7010008E0
:1000C000B7010008B7010008B7010008B701000830
:1000D000B7010008B7010008B7010008B701000820
:1000E000B7010008B7010008B7010008B701000810
:1000F000B7010008B7010008B7010008B701000800
:10010000B7010008B7010008494C0008B701000812
:10011000B7010008B7010008B7010008B7010008DF
:10012000B7010008B70100082D250008B701000835
:10013000B7010008B7010008B7010008B7010008BF
:10014000B701000829140008B7010008B70100082A
:10015000B7010008B7010008B701000829520008DC
:10016000B7010008B7010008B7010008B70100088F
:10017000B7010008B7010008B7010008B70100087F
:10018000B7010008B7010008DFF80CD000F00CFB45
:100190000048004765740008200B0020064880478F
:1001A00006480047FEE7FEE7FEE7FEE7FEE7FEE75C
:1001B000FEE7FEE7FEE7FEE78D4A0008890100083A
:1001C0002DE9FE4F804681EA0300C00F0C460090E7
:1001D00021F0004123F00045B8EB0200A94105D20F
:1001E0004046214690461C460B46024623F00040FE
:1001F000104347D0270DC7F30A00C3F30A510290FA
:10020000401A019040286BDAC3F3130040F4801BBE
:100210000098924620B10023D2EB030A63EB0B0B4C
:1002200001985946C0F14002504600F0B7F9064621
:100230000D4650465946019A00F0BFF910EB0800F0
:100240006141002487EA115284EAE7731A4340D0DF
:10025000009A62B3019A012A4FEA075215DC001B8B
:1002600061EB02014FF0004202EA0752CDE9004281
:10027000001C41F5801132462B4600F0F6F903B020
:10028000BDE8F08F40462146F9E7001B61EB020113
:10029000001C41F5801300185B412018A2F50017DF
:1002A00047EB030140EAD570B6196D4111E06D08C6
:1002B0004FEA360645EAC0754FEA0752001B61EB6C
:1002C0000201001C41F5801149084FEA3000001975
:1002D000514132462B4603B0BDE8F04F00F0B6B9AD
:1002E0000098012240000023D0EB020263EBE07390
:1002F000009821464FEAE074B8EB000061EB04017E
:10030000E9E783F000435BE781F0004158E72DE91E
:10031000FE4F81EA030404F0004421F00041009400
:100320004FF0000B23F0004350EA01045ED052EA84
:1003300003045BD0C3F30A54C1F30A552C44A4F25E
:10034000F3340194A0FB0254C1F3130141F4801172
:10035000C3F3130343F4801301FB024400FB034E79
:10036000840A970A44EA815447EA8357A4FB076842
:1003700002958D0A05FB07854FEA932C04FB0C546C
:100380002705029D4FEA065847EA1637B5EB0805E0
:100390006EEB070C870E920E47EA811742EA831232
:1003A000A7FB0201B6EB0B0164EB00042B0D43EA43
:1003B0000C335E1844EB1C50DA465146E7FB020151
:1003C000C5F313044FEA0B3343EA14534FEA0432E4
:1003D000019C43EA0603A4F10C040294009CCDE9BD
:1003E00000B400F042F903B0BDE8F08F00200146F0
:1003F000F9E72DE9F04D81EA030404F0004B21F008
:10040000004514464FF0000A23F0004150EA05026F
:1004100020D054EA01021DD0C5F30A570246C5F3A5
:100420001303C1F31300C1F30A5640F4801543F4DB
:100430008013A7EB0608101BD64608F2FD3873EBB5
:10044000050002D308F1010801E092185B41B8F100
:10045000000F03DA00200146BDE8F08D00204FF4C4
:100460008011064684460EE0171B73EB050705D383
:10047000121B63EB050306434CEA010C49084FEAE3
:10048000300092185B4150EA0107EDD152EA0300B7
:1004900012D082EA040083EA0501084305D0101B4C
:1004A000AB4106D20122002306E000224FF00043B8
:1004B00002E06FF0010253101AEB06004CEB0851FA
:1004C00010EB0A0041EB0B01BDE8F04D00F0BEB8A7
:1004D0000EB5C10F80EAE0700844CA07002140F25F
:1004E00033438DE80E000A460B4600F0BEF803B019
:1004F00000BD0EB540F2334102910021CDE900115B
:100500000A460B4600F0B1F803B000BD00F000420F
:1005100030F000400AD0C10D01F56071C0F3160043
:1005200042EA0151C20840071143704700200146CA
:100530007047000030B5041E71F1000404DB4FF079
:100540000044404264EB0101141E73F1000405DB1A
:100550001C464FF00043524263EB0403994208BF2C
:10056000904230BD01F0004330B421F0004150EA28
:10057000010206D00A0DA2F56072C1F31301002A30
:1005800002DC30BC00207047440F44EAC104C100C3
:10059000E01830BC00EBC25000F021B8202A04DB88
:1005A000203A00FA02F1002070479140C2F1200386
:1005B00020FA03F3194390407047202A06DBCB173B
:1005C000203A41FA02F043EAE07306E041FA02F30E
:1005D000D040C2F1200291400843194670470029DB
:1005E000A8BF7047401C490008BF20F001007047B9
:1005F00010B4B0FA80FC00FA0CF050EA010404BF19
:1006000010BC704749B1CCF1200421FA04F411FA6E
:100610000CF118BF012121430843A3EB0C01CB1DB2
:100620004FEA00614FEA102042BF002010BC704723
:1006300000EBC35010440029A4BF10BC7047401CFD
:10064000490008BF20F0010010BC704710B5141E0F
:1006500073F1000408DA401C41F1000192185B417B
:100660001A4301D120F0010010BD2DE9F04D924652
:100670009B4611B1B1FA81F202E0B0FA80F2203269
:100680009046FFF78BFF04460F4640EA0A0041EA16
:100690000B0153465A46084313D0114653EA010052
:1006A00019D0C8F14002504600F090F805460E46B9
:1006B000504659464246FFF771FF084305D00120D6
:1006C00004E020463946BDE8F08D0020054346EAA7
:1006D000E0762C4337430A986305E40AA0EB080050
:1006E0000022FD0A44EA47540A3002D500200146A0
:1006F000E9E7010510196941DDE90845001969417B
:10070000BDE8F04DA2E72DE9F04D00231A461B1A73
:100710008A4103DB00200146BDE8F08DC1F30A5297
:10072000C1F3130141F480154FF0000BD10702D142
:1007300000186D41521E0027044640F2FF11384652
:1007400001EB620A3E468046024600204FF48011CB
:1007500000F03CF8C2197141BB1846EB0100B4EB44
:10076000030C75EB000C04D3E41A65EB0005174687
:100770000E46241908F101006D4180463428E3DD5E
:10078000F91946EB0600091BA84103D24FF0FF32CE
:10079000134601E0002213461BEB070046EB0A510B
:1007A000BDE8F04DFFF752BF064C074D06E0E0688C
:1007B00040F0010394E8070098471034AC42F6D3A8
:1007C000FFF7E6FC407C0008607C0008202A04DB80
:1007D000203A21FA02F00021704721FA02F3D040BA
:1007E000C2F12002914008431946704770B5C1F329
:1007F0000A5201F000450024C1F3130140F2FF3317
:1008000041F480119A4201DA002070BD40F2334376
:100810009A42A2F2334203DC5242FFF7D7FF00E0D4
:1008200090402C43F1D0404270BD70B58C1810F848
:10083000015B15F0070301D110F8013B2A1106D125
:1008400010F8012B03E010F8016B01F8016B5B1E3F
:10085000F9D12B0705D40023521E0DD401F8013B1A
:10086000FAE710F8013BCB1A921C03E013F8015B86
:1008700001F8015B521EF9D5A142D8D3002070BD0A
:1008800021B1826842F00102826003E0826822F0B6
:1008900001028260704700000021084A1168084A7E
:1008A0001140D0E900231A4383681A43C3681A43EE
:1008B0001143044AC2F804137047000004230140A6
:1008C000E030FCFF002001400146C86C80B2704758
:1008D0000246002013680B400BB1012000E000200D
:1008E0007047000030B50246002000235068104CCD
:1008F00020400D790C6844EA05242043506090683C
:100900000C4C2040D1E903542C438D682C434D7985
:1009100044EA450420439060D06A20F470000C7DC6
:10092000641EE4B2234340EA0350D06230BD0000AD
:10093000FFFEFFFCFDF7FFC0F0B504460D460020AA
:100940000021092D11DDE068A5F10A0606EB460736
:10095000072606FA07F18843A5F10A0606EB4606C4
:1009600003FA06F10843E0600CE0206905EB450757
:10097000072606FA07F1884305EB450603FA06F158
:1009800008432061072A0FDA606B561E06EB8607C4
:100990001F2606FA07F18843561E06EB860605FA5F
:1009A00006F10843606322E00D2A0FDA206BD61FA0
:1009B00006EB86071F2606FA07F18843D61F06EBCB
:1009C000860605FA06F10843206310E0E06AA2F10A
:1009D0000D0606EB86071F2606FA07F18843A2F1EB
:1009E0000D0606EB860605FA06F10843E062F0BD47
:1009F000816841F0804181607047000000B58DB092
:100A00000121042003F03CFC0121080203F068FCF2
:100A100004200B9003208DF8300001208DF8330066
:100A20000BA9154802F056F80121080203F068FCF2
:100A300000214FF4807003F063FC002007900A90BF
:100A400009904FF48030089007A8FFF725FF002099
:100A500001908DF808008DF80900039005900120A1
:100A60008DF8180001A90548FFF73CFF0121034854
:100A7000FFF706FF0DB000BD000802400020014056
:100A800010B5044634480068012804D19FED330AAC
:100A9000334880ED000A3048006820B99FED310AE4
:100AA0002F4880ED000A03F0BBFD2F4890ED000AAF
:100AB0002E4880ED000A2E48D0ED000A00EE104AC4
:100AC000B8EEC00A9FED2B1A40EE010AC0ED000AF5
:100AD00090ED000ADFED280AB4EEE00AF1EE10FA1C
:100AE00002DD9FED250A0FE0214890ED000ADFEDC1
:100AF000230AB4EEE00AF1EE10FA02D29FED1F0ACB
:100B000002E01B4890ED000A194880ED000A90EDC4
:100B1000000AB1EE400A1A4880ED000A02F0D0FE49
:100B2000184890ED000ABDEEC00A10EE100A02B29D
:100B3000154890ED000ABDEEC00A10EE100A01B291
:100B4000124890ED000ABDEEC00A10EE100A00B285
:100B500000F05AFE10BD00002402002000002545D0
:100B60001C02002000000000C00100202002002024
:100B7000140200200AD7233C0000C0460000C0C673
:100B80001802002010020020080200200C020020A1
:100B900000B55A48007801287ED15948006880B9CC
:100BA0005848006868B10020574908700846017825
:100BB000012088405549087052480068401E51493C
:100BC00008605048006880B95148006868B1012049
:100BD0004D49087008460178012088404B4908704B
:100BE0004B480068401E4A4908604948006880B97F
:100BF0004848006868B102204349087008460178F7
:100C0000012088404149087042480068401E41491F
:100C100008604048006880B93F48006868B1032018
:100C20003949087008460178012088403749087022
:100C300039480068401E384908603748006880B964
:100C40003648006868B104202F49087008460178CA
:100C5000012088402D49087030480068401E2F4907
:100C600008602E48006880B92D48006868B10520EA
:100C700025490870084601780120884023490870FA
:100C800027480068401E264908602548006890B93A
:100C90002448006878B100E02EE006201A49087068
:100CA0000846017801208840184908701D480068EE
:100CB000401E1C4908601B48006880B91A4800683B
:100CC00068B1072010490870084601780120884063
:100CD0000E49087014480068401E13490860124805
:100CE000006848B900200949087000F075F8002034
:100CF0000E4908700149087000BD00001301002072
:100D000014010020180100205D0100205C0100207A
:100D10001C010020200100202401002028010020C7
:100D20002C0100203001002034010020120100209D
:100D300010B50446102C36D008DC012C0DD0022C46
:100D40000ED0042C28D0082C3AD128E0202C2ED00C
:100D5000402C2FD0802C33D12FE005F043FE30E023
:100D6000194890ED000ADFED190AB4EEE00AF1EE41
:100D700010FA10D890ED000AF0EE0C0A30EE200ABE
:100D800080ED000A124890ED000AF0EE0C0A30EEF9
:100D9000600A80ED000A14E006F01EFC11E001205C
:100DA0000C4908600DE000200A49086009E006F0DF
:100DB0001DFC06E005F0BAFD03E006F00DFC00E0C6
:100DC00000BF00BF10BD0000140200200000C0469C
:100DD000180200202402002012480068124908600E
:100DE00012480068124908601248006812490860F9
:100DF00012480068124908601248006812490860E9
:100E000012480068124908601248006812490860D8
:100E100012480068124908601248006812490860C8
:100E20007047000038010020140100203C01002020
:100E300018010020400100201C0100204401002076
:100E40002001002048010020240100204C01002046
:100E500028010020500100202C0100205401002016
:100E600030010020580100203401002008B5A820DE
:100E700005F0C2FD40F2473140F2CF7003F03CFF75
:100E800002F0F2FC01F020FB02F040FC00F03CF824
:100E900002F0CAFCFFF7B2FD4FF4E13004F06AF94A
:100EA00004F0D6F803F0FEFB03F0AEFA00200323B3
:100EB00008221946009000F0ABF800200323082216
:100EC0001946009000F02CFA03F014FE04F036FBF3
:100ED00003F08CFE4FF4FA7005F0ACFD03F0DEFE7B
:100EE00008BD00000448006828B9044800680128CB
:100EF00001D1034908607047880000208C00002061
:100F00007C00002000BFFEE700B58BB0012102206D
:100F100003F0C6F90121022003F0B2F902220421F4
:100F2000234801F01FFE1020099002208DF82800B0
:100F30008DF8290000208DF82A0001208DF82B0063
:100F400009A91B4801F0C6FD4FF4FA60079047203D
:100F5000ADF818000020ADF81A00ADF8200001220D
:100F60001146144803F07DFF06A9124804F02EF83C
:100F70006020ADF804000120ADF806000020ADF8B7
:100F8000100001A90B4803F075FF0821094803F080
:100F9000AFFF0121074803F029FF0121054803F0B5
:100FA00034FF0021034804F00CF80BB000BD000032
:100FB000000402400004004030B585B004460D46F0
:100FC00040F2FF10009000208DF808008DF8090015
:100FD00008208DF80A00200A8DF80B00E1B28DF888
:100FE0000C10290A8DF80D10E9B28DF80E100021B1
:100FF0008DF80F108DF810108DF811108DF812105B
:101000006946024800F0A1FE05B030BD0064004012
:101010002DE9F0418AB004460D4616461F46DDF81C
:1010200040800121082003F02BF90121480603F03C
:1010300037F90320089002208DF8240000208DF855
:10104000260003208DF8250001208DF8270008A92F
:101050002D4801F03FFD092200212B4801F082FDBF
:1010600009220121284801F07DFD00208DF81A0099
:1010700001208DF81B0000208DF81C0001208DF848
:101080001D0000208DF81E008DF81F008DF81680C1
:101090008DF817408DF818608DF81950ADF8147060
:1010A00005A91A4800F04FFD00208DF80E008DF8BC
:1010B0000F0001208DF810000020ADF80400ADF8FD
:1010C0000600ADF80800ADF80A00ADF80C000120EC
:1010D0008DF8110001A800F019FC012202210B4833
:1010E00000F028FD14208DF8000000208DF801008C
:1010F00001208DF802008DF80300684602F02CFEF6
:1011000000200AB0BDE8F081000C024000640040FD
:1011100010B50221394800F07DFC00286CD0022176
:10112000364800F09FFB364A0021344800F095FD18
:101130003348006840F20621884209D13048007BDC
:101140002F49C97A40EA012000B22E4908804EE0BA
:101150002B48006840F20521884209D12848007BCD
:101160002749C97A40EA012000B2274908803EE0B9
:101170002348006840F20721884238D020480068A0
:10118000891F884208D11E48817B407B41EA0020AC
:1011900000B21E4908802AE01948006840F2022186
:1011A000884208D11648817B407B41EA002000B28A
:1011B000174908801BE01248006840F2032188426A
:1011C00008D10F48817B407B41EA002000B21149E1
:1011D00008800CE00A480068B0F5017F07D1084894
:1011E000817B407B41EA002000B20B4908800B481C
:1011F0000068401C0949086010BD00000064004000
:101200004405002094010020960100209801002050
:101210009A0100209C0100209E010020CC010020AA
:10122000F0B585B004460D4616461F464FF40070D3
:101230000090002001908DF808008DF8090008202A
:101240008DF80A00200A8DF80B00E1B28DF80C1021
:10125000290A8DF80D10E9B28DF80E10310A8DF8BB
:101260000F10F1B28DF81010390A8DF81110F9B283
:101270008DF812106946024800F067FD05B0F0BD18
:101280000064004010B586B004464FF40070019031
:1012900000208DF80C008DF80D0008208DF80E0050
:1012A0001C4890ED000ABCEEC00A10EE100AC0B255
:1012B00000128DF80F00174890ED000ABCEEC00A2E
:1012C00010EE100AC1B28DF8101000218DF8111027
:1012D0008DF81210104890ED000ABCEEC00A10EE16
:1012E000100AC0B201128DF813100B4890ED000ADD
:1012F000BCEEC00A10EE100AC1B28DF81410210A1B
:101300008DF815108DF8164001A9044800F01DFD58
:1013100006B010BD0C020020100200200068004042
:101320002DE9F0418AB004460D4616461F46DDF809
:1013300040800121022002F0A3FF0121880602F073
:10134000AFFF4FF44050089002208DF82400002099
:101350008DF8260003208DF8250001208DF8270048
:1013600008A92F4801F0B6FB09220C212C4801F0F6
:10137000F9FB09220D212A4801F0F4FB00208DF829
:101380001A0001208DF81B0000208DF81C000120A0
:101390008DF81D0000208DF81E008DF81F008DF8BF
:1013A00016808DF817408DF818608DF81950ADF83B
:1013B000147005A91B4800F0C6FB0E208DF80E0026
:1013C00000208DF80F0001208DF810000020ADF8EE
:1013D0000400ADF80600ADF80800ADF80A000120E1
:1013E000ADF80C008DF8110001A800F08FFA012271
:1013F00010210C4800F09EFB41208DF800000020D9
:101400008DF8010002208DF8020001208DF8030004
:10141000684602F0A1FC00200AB0BDE8F08100009F
:10142000000402400068004010B52DED0A8B102129
:10143000DD4800F0EFFA002872D01021DA4800F001
:1014400011FADA4A0121D84800F007FCD7480068B1
:1014500040F20121884264D1D448817B407B41EA3B
:10146000002000B2D2490880D048007BCF49C97A19
:1014700040EA012000B2CF490880CF48B0F900000F
:10148000401CE8B308460088CB490988401A00B2DE
:10149000CA4908800846B0F90000B0F5805F01DD58
:1014A000C74809E0C548B0F9000010F5805F02DACE
:1014B0004FF4005000E00020C0490988084400B201
:1014C000BE4908800846B0F90000FFF701F841EC7A
:1014D0001C0B9FEDBC0B53EC102BFEF718FF41ECDF
:1014E0001B0B9FEDBA0B53EC102BFEF782FF41EC68
:1014F000190BB8480068FFF709F841EC1A0B00E037
:1015000009E053EC192BFEF75BFE41EC180BFFF7DB
:1015100029F8B0490860A748B0F90000A64908803A
:101520003EE1A248006840F20221884264D19F480F
:10153000817B407B41EA002000B2A74908809B489C
:10154000007B9A49C97A40EA012000B2A349088089
:10155000A348B0F90000401CE8B308460088A04941
:101560000988401A00B2954908800846B0F9000081
:10157000B0F5805F01DD924809E09048B0F90000C5
:1015800010F5805F02DA4FF4005000E000208B4934
:101590000988084400B2894908800846B0F900006B
:1015A000FEF796FF41EC1C0B9FED860B53EC102BC6
:1015B000FEF7ADFE41EC1B0B9FED840B53EC102BA3
:1015C000FEF717FF41EC190B86480068FEF79EFFF7
:1015D00041EC1A0B00E009E053EC192BFEF7F0FD8B
:1015E00041EC180BFEF7BEFF7E4908607B48B0F95E
:1015F00000007B490880D3E06C48006840F203217A
:10160000884264D16948817B407B41EA002000B276
:10161000754908806548007B6449C97A40EA012021
:1016200000B2724908807248B0F90000401CE8B36B
:10163000084600886E490988401A00B25F49088050
:101640000846B0F90000B0F5805F01DD5C4809E0B4
:101650005A48B0F9000010F5805F02DA4FF40050EC
:1016600000E0002055490988084400B25349088029
:101670000846B0F90000FEF72BFF41EC1C0B9FED74
:10168000510B53EC102BFEF742FE41EC1B0B9FED70
:101690004F0B53EC102BFEF7ACFE41EC190B5548E9
:1016A0000068FEF733FF41EC1A0B00E009E053EC51
:1016B000192BFEF785FD41EC180BFEF753FF4D4942
:1016C00008604A48B0F900004949088068E0374896
:1016D0000068B0F5017F63D13448817B407B41EAEB
:1016E000002000B2444908803048007B2F49C97A65
:1016F00040EA012000B2414908804148B0F90000A9
:10170000401CE8B3084600883D490988401A00B2E9
:101710002A4908800846B0F90000B0F5805F01DD75
:10172000274809E02548B0F9000010F5805F02DA8B
:101730004FF4005000E0002020490988084400B21E
:101740001E4908800846B0F90000FEF7C1FE41ECD2
:101750001C0B9FED1C0B53EC102BFEF7D8FD41EC3E
:10176000180B9FED1A0B53EC102BFEF742FE41ECC9
:101770001A0B24480068FEF7C9FE41EC1B0B00E081
:1017800009E053EC1A2BFEF71BFD41EC190BFEF799
:10179000E9FE1C4908601948B0F9000018490880A2
:1017A000BDEC0A8B10BD0000006800405805002009
:1017B000A0010020A8010020B0010020C8010020E5
:1017C00000E0FFFF000000000000F03F000000000C
:1017D00000003340B8010020A2010020AA0100202F
:1017E000B4010020C0010020A4010020AC010020B1
:1017F000B2010020BC010020A6010020AE010020A3
:10180000B6010020C401002070B586B004460D4624
:1018100016464FF400700190002002908DF80C00E5
:101820008DF80D0008208DF80E00200A8DF80F00AD
:101830008DF81040290A8DF811108DF81250310AD8
:101840008DF813108DF8146000218DF815108DF8A7
:10185000161001A9024800F078FA06B070BD000029
:1018600000680040B1F5007F3AD00FDC202928D075
:1018700006DC01291CD004291DD0082940D11DE017
:10188000402921D0B1F5807F3AD126E0B1F5004F53
:1018900031D006DCB1F5806F25D0B1F5006F2FD1C6
:1018A00024E0B1F5803F12D0B1F5003F28D111E01E
:1018B000154A826025E00822C26022E01022C26040
:1018C0001FE0082202611CE01022026119E00822D8
:1018D000426016E01022426013E00422426010E0F1
:1018E000042242600DE0042242600AE0002282618C
:1018F0000422426005E0002282610422426000E08E
:1019000000BF00BF704700000101010010B50021B9
:10191000837A012202FA03F13D4A126842F0010281
:101920003B4B1A603A4A1C3212688A43384B1C33CC
:101930001A60027BCAB9364A0C3212688A43344BA9
:101940000C331A604288C38842EA0343304A40326B
:10195000847A42F834300288838842EA03432C4A6E
:101960004032847A02EBC4025360027B012A19D10F
:10197000274A0C3212680A43254B0C331A604288FE
:10198000038842EA0343224A4032847A42F83430E0
:10199000C288838842EA03431D4A4032847A02EBBC
:1019A000C4025360C27A3AB9194A121D12688A43B6
:1019B000174B1B1D1A6006E0154A121D12680A43D8
:1019C000134B1B1D1A60028932B9114A1432126876
:1019D0008A430F4B14331A600289012A06D10C4A3C
:1019E000143212680A430A4B14331A60427B012AEC
:1019F00006D1074A1C3212680A43054B1C331A6091
:101A0000034A126822F00102014B1A6010BD000067
:101A10000066004070B504460D4600266069284007
:101A2000002871D0B5F5807F5CD010DC082D35D052
:101A300006DC012D20D0022D24D0042D72D127E008
:101A4000102D31D0202D35D0402D6BD138E0B5F59B
:101A5000004F60D009DCB5F5007F49D0B5F5806F47
:101A60004CD0B5F5006F5DD14FE0B5F5803F2DD07E
:101A7000B5F5003F56D12FE0A0682D4900F09BFC42
:101A8000064651E0E068032100F095FC06464BE075
:101A9000E068082100F08FFC064645E0E068102170
:101AA00000F089FC06463FE02069032100F083FC3A
:101AB000064639E02069082100F07DFC064633E047
:101AC0002069102100F077FC06462DE060680821AF
:101AD00000F071FC064627E06068102100F06BFC06
:101AE000064621E0A069012100F065FC06461BE0E6
:101AF000A069022100F05FFC064615E0A069042100
:101B000000F059FC06460FE00FE0A069702100F0DC
:101B100052FC064608E06068042100F04CFC0646D2
:101B200002E0FFE7002600BF00E00026304670BD5F
:101B3000010101001AB143690B43436102E04369AB
:101B40008B434361704730B5024600200023146880
:101B500024F002041460146844F00104146000E0EE
:101B60005B1C546804F001041CB94FF6FF74A342D7
:101B7000F6D1546804F001040CB900206CE08C79B3
:101B8000012C04D1146844F08004146003E014684C
:101B900024F080041460CC79012C04D1146844F042
:101BA0004004146003E0146824F0400414600C7ACC
:101BB000012C04D1146844F02004146003E014687C
:101BC00024F0200414604C7A012C04D1146844F0F1
:101BD0001004146003E0146824F0100414608C7A7C
:101BE000012C04D1146844F00804146003E0146864
:101BF00024F008041460CC7A012C04D1146844F059
:101C00000404146003E0146824F0040414608C7865
:101C1000A407CD7844EA05640D7944EA05444D797A
:101C200044EA05540D886D1E2C43D461146824F0D9
:101C300001041460002300E05B1C546804F00104FC
:101C40001CB14FF6FF74A342F6D1546804F00104AE
:101C50000CB1002000E0012030BD10B500F5D873B4
:101C600003EB01131B6803F004031372137A53B9D7
:101C700000F5D87303EB01131B6840F2FF7404EA0C
:101C80005353136009E000F5D87303EB01131B688D
:101C90006FF0604404EAD303536000F5D87303EB9C
:101CA00001131B6803F00203537200F5D87303EBB2
:101CB00001135B6803F00F03937200F5D87303EB15
:101CC00001135B681B0AD37400F5D87303EB01138F
:101CD0009B68D37200F5D87303EB01139B681C0A51
:101CE000147300F5D87303EB01139B681C0C547339
:101CF00000F5D87303EB01139B681B0E937300F57B
:101D0000D87303EB0113DB68D37300F5D87303EBCF
:101D10000113DB681C0A147400F5D87303EB01137C
:101D2000DB681C0C547400F5D87303EB0113DB68FB
:101D30001B0E937421B9C36843F02003C36003E012
:101D4000036943F02003036110BD10B50246002073
:101D5000936803F08063B3F1806F00D110E0936863
:101D600003F00063B3F1006F01D1012008E0936834
:101D700003F08053B3F1805F01D1022000E0042022
:101D8000042874D002F5C07303EB00131B6803F042
:101D9000010402F5C07303EB00131C600B7A7BB9DE
:101DA0004B7A0C8843EA445302F5C07404EB0014E8
:101DB0002468234302F5C07404EB0014236010E090
:101DC0000B7A4C6843EAC4034C7A234302F5C0748F
:101DD00004EB00142468234302F5C07404EB0014E0
:101DE00023608B7A03F00F038B7202F5C07303EB51
:101DF00000135B6823F00F0402F5C07303EB0013BC
:101E00005C6002F5C07303EB00135B688C7A2343BC
:101E100002F5C07404EB001463608B7B1C064B7BE3
:101E200044EA03440B7B44EA0323CC7A234302F5C0
:101E3000C07404EB0014A3608B7C1C064B7C44EA4A
:101E400003440B7C44EA0323CC7B234302F5C07498
:101E500004EB0014E36002F5C07303EB00131B688E
:101E600043F0010402F5C07303EB00131C6010BDC6
:101E700010B500F025F900231A461946184600F05F
:101E800057F810BD10B523480078042806D1002368
:101E90001A461946184600F04BF839E01D480078FC
:101EA00001280AD11C4A528902EB8202520011B267
:101EB000194A508A05F010F82AE0164800780328DD
:101EC00002D100F050F923E01248007810B900F078
:101ED0004AF91DE00F480078022819D10F48B0F9DF
:101EE000000000EE100AB8EEC00A04F047FE0C49EC
:101EF00008800949488A0A49B1F9001004F0ECFF4A
:101F00000120084908800020074908800749088007
:101F100010BD0000000000201A0500203000002045
:101F200004000020360000203400002006000020BD
:101F30002DE9F04107460C4615461E4642F2107147
:101F40005748584AB2F9002000EE102AF8EEC00AAD
:101F500000EE107AB8EEC00A02F000F8BDEEC00A3A
:101F600010EE100A07B242F210714D484E4AB2F913
:101F7000002000EE102AF8EEC00A00EE104AB8EE7B
:101F8000C00A01F0EBFFBDEEC00A10EE100A04B269
:101F900042F210714248454AB2F9002000EE102A80
:101FA000F8EEC00A00EE105AB8EEC00A01F0D6FFF3
:101FB000BDEEC00A10EE100A05B242F210713848A8
:101FC0003B4AB2F9002000EE102AF8EEC00A00EEFB
:101FD000106AB8EEC00A01F0C1FFBDEEC00A10EEF3
:101FE000100A06B2334890ED000A334880ED000A2B
:101FF00090ED000A384600F0BFF807462E4890EDF5
:10200000000A204600F0B8F804462B4890ED000A7C
:10201000284600F0B1F80546274890ED000A304602
:1020200000F0AAF80646DFED250A00EE107AB8EEB9
:10203000C00A00F081F8BDEEC00A10EE100A07B227
:10204000DFED1E0A00EE104AB8EEC00A00F074F888
:10205000BDEEC00A10EE100A04B2DFED180A00EE61
:10206000105AB8EEC00A00F067F8BDEEC00A10EED4
:10207000100A05B2DFED110A00EE106AB8EEC00AD0
:1020800000F05AF8BDEEC00A10EE100A06B2334650
:102090002A4621463846FFF7C3F8BDE8F081000024
:1020A00040020020980100209A0100209C0100209D
:1020B0009E010020000100202400002000C0DA451D
:1020C00010B5DFED132A9FED132ADFED131A9FEDF4
:1020D000101ADFED120A9FED120A124801F054FFA8
:1020E0002F21104802F07DFBDFED092A9FED092A20
:1020F000DFED091A9FED0C1ADFED0C0A9FED0C0ABB
:102100000C4801F041FF2F210A4802F06AFB10BD84
:102110000000000000004843000048C36666C64057
:10212000CDCC2C4040020020295C8F3D9A99993EED
:10213000CDCC4C3F78020020B0EE401AB1EE600AE0
:10214000B4EEC01AF1EE10FA02D2B1EE600A704796
:10215000B4EEE01AF1EE10FA02DDB0EE600AF6E736
:10216000B0EE410AF3E710B500231A4619461846A7
:10217000FFF756F810BD000010B52DED0E8B04468C
:10218000B0EE408A18EE100AFEF7C0F941EC1A0BC7
:10219000B0EE4A0AF0EE6A0A03F082FEB0EE409A10
:1021A000F0EE609A9FED210B53EC102B51EC190BC4
:1021B000FEF7C0F903D20020BDEC0E8B10BD18EE67
:1021C000100AFEF7A3F941EC1E0BB0EE4E0AF0EE3A
:1021D0006E0A03F065FEB0EE40DAF0EE60DA9FEDD5
:1021E000130B53EC102B51EC1D0BFEF702F941ECD5
:1021F0001C0B9FED100B53EC102BFEF785F841ECF8
:102200001A0B2046FEF764F941EC1B0B53EC1A2B1A
:10221000FEF77DF841EC190BFEF7A4F908EE900AE1
:10222000BDEEE80A10EE100A00B2C5E7000000A0FB
:1022300099990940000000000000F03F10B54B489C
:10224000007804280CD1002049490870962149489B
:1022500002F0B7FE002211461046FFF7D5FA83E0E0
:1022600042480078012851D1434890ED000AB5EE6C
:10227000C00AF1EE10FA11D03D48007870B93F481D
:1022800090ED000A3C4880ED000A3D4890ED000AC0
:102290003C4880ED000A0120354908704FF49671E2
:1022A000344802F08EFE04F013FC3748B0F9060003
:1022B000364908803448007C10B101203449087048
:1022C0003148407C28B132480078012801D1314999
:1022D00008702D48807C00F0C000402802D0802883
:1022E00006D102E005F082F903E005F075F900E09F
:1022F00000BF00BFFEF74CFC27480078FEF718FD32
:102300002248B0F90000FEF7BBFB2DE0174800782B
:1023100003280CD10020164908708C21154802F0C2
:1023200050FE002211461046FFF76EFA1CE00F48DF
:10233000007860B900200E49087096210D4802F01F
:1023400040FE002211461046FFF75EFA0CE00748F7
:102350000078022808D10020054908709621054818
:1023600002F02FFE04F0D6FB10BD0000000000209C
:102370000C0100200004014014020020B8010020DC
:10238000BC010020180200201A0500200E010020C8
:1023900012010020130100205C01002010B505F09F
:1023A0002FF904F0CDFA04F0F5FF00221146104693
:1023B000FFF72AFA10BD0246002002EA01030BB122
:1023C000012000E00020704710B53B480068401C29
:1023D0003949086002F0F2F805F048F800F026FCF0
:1023E000FFF72CFF344800680A21B0FBF1F201FB33
:1023F000120008B9FFF746FD2F4800680A21B0FB1C
:10240000F1F201FB1200012801D102F099FA2A48E9
:1024100000687D21B0FBF1F201FB120070B9274882
:10242000007858B92648006880F480402449086044
:102430002448406980F08000224948611E480068B5
:102440004FF4FA71B0FBF1F201FB120078B91B48AE
:10245000007803280BD11A48006880F4804018499E
:1024600008601848406980F08000164948611248A9
:10247000006840F2E731B0FBF1F201FB12000128E5
:102480000FD10E48007801280BD10D48006880F468
:1024900080400B4908600B48406980F08000094982
:1024A00048610548006842F21071884202D100205C
:1024B0000149086010BD00006001002000000020FC
:1024C00014140240001002401CB50121080201F062
:1024D000D7FE012000908DF8040000208DF8060042
:1024E00003208DF8050001208DF807006946044897
:1024F00000F0F0FA0121024800F060FB1CBD000072
:102500000020024010B50749074800F093F938B1A0
:102510000449054800F0A2F80249034800F0B8F861
:1025200010BD0000008800102860024010B5464928
:10253000464800F07FF900287ED04FF08151434893
:1025400000F08CF84049414800F0A2F8404800787B
:102550003F49497840EA0120C0F30A003D4908801C
:102560003B484078C0103A49897840EA4110C0F3AE
:102570000A00384948803648807880113449C97843
:1025800040EA81003249097940EA8120C0F30A001B
:10259000304988802E48007940102D49497940EA19
:1025A000C110C0F30A002B49C880294840790011A6
:1025B0008008087226484079C0F301104872244808
:1025C00080792349C97940EA012000B22149488134
:1025D0001F48007A1E49497A40EA012001B21D488D
:1025E00081811B48807A1A49C97A40EA012001B2E8
:1025F0001848C1811648017B164801741448417B74
:10260000144841741248807B1149C97B40EA01207B
:10261000104948820E48007C0D49497C40EA01205F
:102620000C4988820C48B0F90000642802DB0020C5
:1026300009490880084800E004E00088401C00B216
:102640000549088010BD0000008020104064024051
:1026500030050020040500208C0100200246094BB3
:102660009A4201D2084801E00648103801F00053B0
:102670001BB1064B0B40C36002E0044B0B40836070
:102680007047000010640240006002407D0F7D0F23
:102690000246094B9A4201D2084801E00648103828
:1026A00001F000531BB1064B0B40C36002E0044B2A
:1026B0000B408360704700001064024000600240DD
:1026C0007D0F7D0F21B1026842F00102026003E03C
:1026D000026822F00102026070470000016821F0E8
:1026E000010101600021016041608160C160016100
:1026F000212141614A49884204D13D21484A103A8A
:1027000091608CE046491831884205D14FF47461DC
:10271000434A103A916082E041493031884205D104
:102720004FF474113E4A103A916078E03C494831C8
:10273000884205D14FF07461394A103A91606EE0D9
:1027400037496031884204D13649354A103AD16060
:1027500065E033497831884204D13349304A103A30
:10276000D1605CE02E499031884204D12F492C4A37
:10277000103AD16053E02A49A831884205D14FF080
:102780003D51274A103AD16049E02949884204D195
:102790003D21274A083A116041E025491831884215
:1027A00005D14FF47461224A083A116037E020499C
:1027B0003031884205D14FF474111D4A083A116036
:1027C0002DE01B494831884205D14FF07461184A09
:1027D000083A116023E016496031884204D111495A
:1027E000134A121F11601AE011497831884204D14E
:1027F0000D490F4A121F116011E00D4990318842B6
:1028000004D10A490A4A121F116008E00849A83198
:10281000884204D14FF03D51054A121F11607047A4
:10282000106002403D000020400F002000003D20CD
:102830001064024070B50246002000240025124EAC
:10284000B24201D2114B01E00F4B103B104E0E4033
:1028500036B11E2606EAD124166806EA040502E00F
:10286000566906F0800501F000560EB15C6800E084
:102870001C68084E344004EA010616B10DB101206F
:1028800000E0002070BD00001064024000600240C3
:102890003C0F3C0F7D0F7D0F10B501F080034BB155
:1028A00022B1436943F08003436103E0436923F0AD
:1028B0008003436180290BD02AB1036801F01E0414
:1028C0002343036004E0036801F01E04A343036094
:1028D00010BD000010B500220268134B1A40CC68EE
:1028E0000B6823434C6923438C692343CC692343FE
:1028F0000C6A23434C6A23438C6A23434C6B234367
:102900008C6B23431A430260426922F00702D1E92B
:102910000B3423431A4342610B6943604B68836065
:102920008B68C36010BD00003F801CF07047000042
:1029300000B51C480068401E1A4908601A4890ED0E
:10294000000ADFED1A0AB4EEE00AF1EE10FA1DDB20
:1029500090ED000ADFED160AB4EEE00AF1EE10FA8F
:1029600014D814480068082810DA084600680028BF
:102970000CDC1148006848B901F0B2FF0D4800684E
:10298000401C0C490860642006490860094800683A
:10299000082805DB01200849086000200549086077
:1029A00000BD0000A0000020C401002000C073454D
:1029B00000208045800000207C00002010B51448D5
:1029C000008888B96421134802F0FBFA6421114899
:1029D00002F0F9FA9FED100A104880ED000A4FF45A
:1029E00000510F4800F0EAF80948008801280ED18C
:1029F00040F21D11074802F0E4FA40F21D110548AB
:102A000002F0E1FA4FF40051054800F0D9F810BD8A
:102A1000640000200018004000000000C0000020FA
:102A20000018024010B52648407C30B12548008887
:102A3000401C00B22349088002E0002021490880A0
:102A400021480088B0B92148007898B9204800781A
:102A5000012806D11C49088000201D490870FFF795
:102A6000ADFF1848008808B3012017490880FFF718
:102A7000A5FF1BE014480088012817D114480078EE
:102A8000012806D100201049088011490870FFF77D
:102A900095FF0C48B0F90000282807DD00200A49FE
:102AA0000880C82009490870FFF788FF07480078A8
:102AB000002804DD05480078401E0449087010BD58
:102AC0001A05002066000020640000206800002035
:102AD0008A010020F0B50A4600210023002400BF2F
:102AE0003DE0012505FA01F3156805EA03049C425F
:102AF00034D105684F000326BE40B5430560157903
:102B00004E00B5400668354305601579012D02D0A9
:102B10001579022D16D185684F000326BE40B543B6
:102B2000856055794E00B5408668354385604568B7
:102B300001268E40B5434560456896798E40B6B211
:102B400035434560C5684F000326BE40B543C560A8
:102B5000D5794E00B540C6683543C560491C10297B
:102B6000BFD3F0BDF0B5002300244D07ED0E02FAEF
:102B700005F3CE1000F1200555F826504E07F70E4C
:102B80000F26BE40B543CF1000F1200646F827506F
:102B9000CE1000F1200555F8265045EA0304CE106A
:102BA00000F1200545F82640F0BD024600201369DB
:102BB0000B400BB1012000E00020704741837047BB
:102BC0000183704710B504460723012221460848B7
:102BD000FDF7B2FE0648FDF70BFF00BF02210448D7
:102BE000FDF776FE0028F9D00148FDF76DFE10BD17
:102BF0000020014010B500F02BFC00F08FFC0948CC
:102C000090ED000ABDEEC00A10EE100A01B20648AF
:102C100090ED000ABDEEC00A10EE100A00B2FEF7F9
:102C2000CBF910BD440000205000002010B541F643
:102C30001C311548B0F9000000F0BEFC13490880B3
:102C40001348C0881349088013480078012801D12F
:102C50000020088000F026F800F040FB0F4890EDBF
:102C6000000ABDEEC00A10EE100A01B20C4890ED49
:102C7000000AB1EE400ABDEEC00A10EE100A00B222
:102C8000FEF79AF910BD0000960100205C000020BC
:102C90001A0500205E0000200000002044000020F3
:102CA0005000002010B52DED088BB54800780428A1
:102CB00009D19FEDB40AB44880ED020A9FEDB10A34
:102CC00080ED000A59E1AE480078012803D10020C8
:102CD000AE49087051E1AA48007802287ED1AC497B
:102CE000B1F90C00FDF7F4FB41EC1B0B9FEDA90BB8
:102CF00053EC102BFDF70BFB41EC190BA24890EDA8
:102D0000020A10EE101A0846FDF700FC41EC1A0BFF
:102D100053EC192BFDF7F5FA41EC180BFDF722FCEB
:102D2000994988609D48B0F90000B0F52F7F65DAB9
:102D30009A48B0F9000010F52F7F5FDD9448B0F994
:102D40000A001E2803DD1E209149488109E09048B1
:102D5000B0F90A0010F11E0F03DA6FF01D008C4964
:102D600048818F480068012822D18E480068FDF70D
:102D7000AFFB41EC1B0B9FED8C0B53EC102BFDF7C5
:102D8000C6FA41EC190B804890ED000A10EE101ABB
:102D90000846FDF7BBFB41EC1A0B53EC192BFDF772
:102DA0000FFA41EC180BFDF7DDFB7749086044E0B2
:102DB0007749B1F90A00FDF78BFB41EC1B0B9FED46
:102DC0007A0B53EC102BFDF7A2FA41EC190B6E486D
:102DD00090ED000A10EE101A084600E0B8E0FDF78A
:102DE00095FB41EC1A0B53EC192BFDF7E9F941EC7B
:102DF000180BFDF7B7FB644908601EE06748B0F99F
:102E00000000B0F52F7F09DD5F4890ED000ADFED8F
:102E1000680A30EE200A80ED000A0EE05F48B0F943
:102E2000000010F52F7F08DA574890ED000ADFED1B
:102E3000600A30EE600A80ED000A5E4890ED000AFC
:102E40005D48D0ED000A30EE600AB1EE400ADFEDD9
:102E50005B0A20EE200A4C4880ED010A90ED000A42
:102E6000D0ED010A30EE600ADFED550AB4EEE00A5B
:102E7000F1EE10FA04DB9FED520A80ED000A11E03A
:102E8000414890ED000AD0ED010A30EE600ADFED16
:102E90004D0AB4EEE00AF1EE10FA03D89FED490AAC
:102EA00080ED000A484890ED000A4848D0ED000A3D
:102EB00030EE600ADFED410A20EE200A324880ED54
:102EC000030A90ED000AD0ED010A30EE600ADFED52
:102ED000400AB4EEE00AF1EE10FA07DD90ED000AC8
:102EE000DFED3C0A30EE600A80ED000A264890EDE6
:102EF000000AD0ED010A30EE600ADFED370AB4EEC9
:102F0000E00AF1EE10FA07D290ED000ADFED310A87
:102F100030EE200A80ED000A1B48D0ED020AB0EE28
:102F2000600ABAEE041AF3EE0E0A00F0FCFE164830
:102F300080ED020AD0ED020AB0EE600ABAEE041A81
:102F4000F3EE0E0A00F0EFFE0F4880ED020A14E0E7
:102F50000B480078032808D100200C490870032092
:102F60001E49087000F0DAFA07E00548007820B939
:102F700000201A49087000F0D1FABDEC088B10BD92
:102F80000000002000000000B002002060000020CF
:102F90001A0500207B14AE47E17A743F5C000020E4
:102FA000280000202C000020FCA9F1D24D62703FC7
:102FB000A69B443CE8010020F40100203333654225
:102FC00000002F4400002FC4F0010020F801002071
:102FD000000034430000B443000034C3010000206B
:102FE00010B52DED048BB0EE408A2048B0F90000FA
:102FF00000EE100AB8EEC00AF0EE408A1C4890EDD0
:10300000050AB1EE400ADFED1B0A20EE200AB0EE01
:10301000409A4FF4FA611848F0EE680AB0EE480A98
:1030200000F09CFF154880ED000A90ED000AF3EED9
:10303000040A80EE201AF0EE419A4FF47A710E489D
:103040003830F0EE490AB0EE690A00F087FF0C480C
:1030500080ED000ADFED0B0A90ED000A00F04CFE57
:10306000094880ED000ABDEC048B10BD94010020DE
:103070002004002033336542C00200203C000020C1
:103080004000002000409C454400002010B52DED7C
:10309000048BB0EE408A264890ED030AF0EE408A99
:1030A000244890ED050AB1EE400ADFED230A20EE38
:1030B000200AB0EE409A9FED210A28EE000AB0EEF9
:1030C000408A9FED1E0A28EE800AF0EE408A4FF4F7
:1030D000FA611B48F0EE680AB0EE480A00F03EFFC5
:1030E000184880ED000A90ED000AB1EE400AF3EEB8
:1030F000040A80EE201AF0EE419A4FF47A711048DB
:103100003830F1EE490AB0EE690A00F027FF0E48A8
:1031100080ED000ADFED0D0A90ED000A00F0ECFDF5
:10312000B1EE400A0A4880ED000ABDEC048B10BDE8
:10313000B002002020040020333365424A0CB6411F
:10314000C00200203C0000204000002000409C45C0
:103150004400002010B52DED048BB0EE408A2448C9
:10316000B0F9000000EE100AB8EEC00AF0EE408A96
:10317000204890ED060AB1EE400ADFED1F0A20EE6E
:10318000200AB0EE409A4FF4FA611C48F0EE680A4B
:10319000B0EE480A00F0E2FE194880ED000A90ED1A
:1031A000000AB1EE400AF3EE040A80EE201AF0EEB7
:1031B000419A4FF47A7111483830F1EE490AB0EE75
:1031C000690A00F0CBFE0F4880ED000ADFED0E0A21
:1031D00090ED000A00F090FD0C4880ED000A90EDA3
:1031E000000AB1EE400A80ED000ABDEC048B10BD70
:1031F0005C000020200400203333654230030020AF
:10320000480000204C00002000409C455000002059
:1032100010B52DED048BB0EE408A274890ED010AE1
:10322000F0EE408A254890ED060AB1EE400ADFED47
:10323000240A20EE200AB0EE409A9FED220A28EEE2
:10324000000AB0EE408A9FED1F0A28EE800AF0EED9
:10325000408A4FF4FA611C48F0EE680AB0EE480A62
:1032600000F07CFE194880ED000A90ED000AF3EEB4
:10327000040A80EE201AF0EE419A4FF47A71124857
:103280003830F1EE490AB0EE690A00F067FE1048E6
:1032900080ED000ADFED0F0A90ED000A00F02CFD32
:1032A0000D4880ED000A90ED000AB1EE400A80ED75
:1032B000000ABDEC048B10BDB002002020040020E9
:1032C000333365424A0CB6413003002048000020E9
:1032D0004C00002000401C465000002010B525483E
:1032E0000078042808D19FED240AFFF779FE9FEDAE
:1032F000230AFFF72FFF3AE01E48007801280AD181
:1033000000F0A6F89FED1C0AFFF76AFE9FED1B0A6E
:10331000FFF720FF2BE017480078032800D110BDED
:103320001448007800B9FAE71248007802281ED144
:1033300000F02AF81248007838B9124890ED010AD6
:1033400080ED000A01200E4908700E48D0ED020AF7
:103350009FED0A1A71EE600AB0EE600AFFF796FE62
:103360000848D0ED000AB0EE600AFFF751FF00BF39
:10337000D5E700000000002000C08A4400000000E3
:1033800060000020B002002010B5DFED282A9FED7C
:10339000282ADFED281AB6EE001AF2EE040AB3EE80
:1033A0000C0A254800F0F0FD2F21234801F019FAFE
:1033B000DFED1E2A9FED212ADFED211A9FED1B1A5A
:1033C000F0EE000AB3EE040A1B48383000F0DCFDD2
:1033D0002F211948383001F004FADFED142A9FED4F
:1033E000192ADFED191AB1EE001AF2EE040AB3EE53
:1033F000090A164800F0C8FD2F21144801F0F1F920
:10340000DFED0A2A9FED0D2ADFED0D1A9FED071A59
:10341000F0EE000AB3EE040A0C48383000F0B4FDB8
:103420002F210A48383001F0DCF910BD00000000FF
:103430000000F0420000F0C2C00200200000704214
:10344000000070C200009643000096C330030020C5
:1034500010B5DFED282A9FED282ADFED281A9FED11
:10346000251ADFED240AB1EE060A254800F08CFD8E
:103470002F21234801F0B5F9DFED1E2A9FED212A07
:10348000DFED211A9FED1B1ADFED1A0AB2EE0C0ACE
:103490001B48383000F078FD2F211948383001F0F2
:1034A000A0F9DFED142A9FED192ADFED191A9FED1F
:1034B000111ADFED100AB2EE080A164800F064FD9A
:1034C0002F21144801F08DF9DFED0A2A9FED0D2A16
:1034D000DFED0D1A9FED101ADFED060AB3EE000ABC
:1034E0000C48383000F050FD2F210A48383001F0E8
:1034F00078F910BD000000000000F0420000F0C2AA
:10350000C002002000007042000070C20000C843EA
:103510000000C8C330030020CDCCCC3D9FED100A85
:10352000104880ED020A104890ED000ADFED0F0A06
:1035300020EE200A0E48D0ED000A9FED0C1A10EE86
:10354000810A084880ED000A9FED050A094880EDD0
:10355000000A9FED030A084880ED000A704700004A
:1035600000000000B0020020E80100203333654273
:10357000F4010020500000204400002010B50B484A
:103580000078032802D00948007870B9084800780C
:1035900001280AD104200649087000200549087056
:1035A000FFF756FF01200149087010BD01000020FF
:1035B000000000206E0100200246501AB0F5805F26
:1035C00001DDA2F50052501A10F5805F01DA02F514
:1035D0000052521A10B2704710B50648008808B958
:1035E00001F028FA03480088012801D100F004F80E
:1035F00010BD00006400002010B53748007C37493A
:1036000008603548007C012807D135480068401C17
:103610003349086000203349086030480068324967
:10362000096888420BD02D480068012807D12F482F
:10363000006820B92E480068401C2D4908602748C2
:103640000068294908602B48006820B129480068B3
:10365000401E284908602548006820B123480068BA
:10366000401E224908602348006818B91C480068B9
:10367000002806DC1F48006860BB1A480068002864
:1036800028DD01211C48FFF79BFA1C48006828B17F
:103690001A480068401E194908601BE014201749A9
:1036A000086000201649086001211348FFF786FAD8
:1036B0000F480068002807DD01F012F96420114965
:1036C000086000200A49086000200549086064205D
:1036D0000849086010BD00001A050020F80000200D
:1036E0007800002084000020FC00002070000020F2
:1036F000A80000206C000020002002407400002080
:103700007C000020A000002000BFFEE71CB50121C6
:10371000802000F0B5FD4FF48050009000208DF81F
:10372000040003208DF8050001208DF8070069468C
:103730000448FFF7CFF94FF480510348FFF740FAF0
:103740001CBD0000000C0240001C024032480088F2
:10375000A0F5806000B2314908802F484088A0F56C
:10376000806000B248802C488088A0F5806000B25C
:1037700088802948C088A0F5806000B2C8802648AB
:10378000007A08722448407A48722348B0F90A0047
:10379000282801DD28200BE01F48B0F90A0010F1AD
:1037A000280F02DA6FF0270002E01B48B0F90A0088
:1037B0001A4948811848B0F90C00282801DD282052
:1037C0000BE01548B0F90C0010F1280F02DA6FF089
:1037D000270002E01048B0F90C00104988810E481B
:1037E000017C0E4801740C48417C0C4841740A4825
:1037F000408A0A4948820A480078012806D10846CA
:10380000007A032802D10120064908700348007A93
:103810000349087070470000040500201A050020C5
:103820008B0100208A0100201CB50121402000F0FE
:1038300027FD4FF40050009001208DF80400002077
:103840008DF8060003208DF8050001208DF8070093
:1038500069460448FFF73EF94FF400510148FFF76D
:10386000ADF91CBD001802401CB50121302000F04C
:1038700007FD4FF48040009001208DF804000020E7
:103880008DF8060003208DF8050001208DF8070053
:1038900069460948FFF71EF98020009069460748ED
:1038A000FFF718F94FF480410348FFF789F98021A9
:1038B0000248FFF783F91CBD0014024000100240CB
:1038C00010B52DED028B3D4890ED000A3C48D0ED3F
:1038D000000A30EE600AB0EE408AB2EE040AB4EE9E
:1038E000C08AF1EE10FA06DCBAEE040AB4EEC08A21
:1038F000F1EE10FA0ED24FF4FA613248304AD2EDAE
:10390000000A2E4A92ED000A00F028FB2E4880EDB6
:10391000000A04E09FED2D0A2B4880ED000A2C4898
:1039200090ED000A2B48D0ED000A30EE600AB0EEB0
:10393000408AB2EE040AB4EEC08AF1EE10FA06DC58
:10394000BAEE040AB4EEC08AF1EE10FA0ED24FF4C9
:10395000FA6121481F4AD2ED000A1D4A92ED000A81
:1039600000F0FCFA1D4880ED000A04E09FED170A04
:103970001A4880ED000A1448D0ED000AB7EE001A8C
:1039800060EE810AB0EE600ADFED150A00F02AF859
:103990000D4880ED000A1148D0ED000AB7EE001A7C
:1039A00060EE810AB0EE600ADFED0D0A00F01AF851
:1039B0000A4880ED000ABDEC028B10BD1402002005
:1039C000B8010020B00600200C020020000000001A
:1039D00018020020BC010020E80600201002002090
:1039E0000000FA45B0EE401AB1EE600AB4EEC01A1B
:1039F000F1EE10FA02D2B1EE600A7047B4EEE01AAE
:103A0000F1EE10FA02DDB0EE600AF6E7B0EE410A20
:103A1000F3E700002DE9F04105460C46164600206C
:103A20000A49086045F0800000F0B2FE002706E079
:103A3000FF2000F0ADFE2070641C781CC7B2B742B6
:103A4000F6DB012001490860BDE8F081988242421E
:103A500070B5044600200849086044F0800000F07A
:103A600097FEFF2000F094FE054601200349C1F8AF
:103A70009802284670BD000098824242008042426F
:103A800070B505460C46002007490860284600F03E
:103A90007FFE0646204600F07BFE01200349C1F868
:103AA0009802304670BD0000988242420080424237
:103AB00010B54FF47A7002F0BDFF03F09BF80028B8
:103AC00043D00A2002F0B6FF80216B20FFF7D8FF19
:103AD000642002F0AFFF03216B20FFF7D1FF0A2023
:103AE00002F0A8FF00216C20FFF7CAFF0A2002F0B5
:103AF000A1FF00211920FFF7C3FF0A2002F09AFF5F
:103B000002211A20FFF7BCFF0A2002F093FF0221D6
:103B10003720FFF7B5FF0A2002F08CFF10211B2091
:103B2000FFF7AEFF0A2002F085FF02211C20FFF7FD
:103B3000A7FF0A2002F07EFF08211D20FFF7A0FF4B
:103B40000A2002F077FF03F061F810BD00B52DEDFB
:103B5000048B85B00E2201A93B20FFF75BFF9DF887
:103B60000400000200B29DF805100843584908807F
:103B70000846B0F9000000EE100AB8EEC00ADFED0A
:103B8000550A80EE201A544880ED001A9DF8060070
:103B9000000200B29DF8071008434D4948800846CE
:103BA000B0F9020000EE100AB8EEC00ADFED490AD3
:103BB00080EE201A484880ED011A9DF808000002A6
:103BC00000B29DF809100843414988800846B0F9C1
:103BD000040000EE100AB8EEC00ADFED3E0A80EEE7
:103BE000201A3D4880ED021A9DF80A00000200B23A
:103BF0009DF80B1008433649C880B1F90600FCF760
:103C000067FC41EC190B9FED350B53EC102BFCF7C7
:103C10007EFB41EC180BFCF7A5FC2F49C8609DF812
:103C20000C00000200B29DF80D10084328490881DD
:103C30000846B0F9080000EE100AF8EEC00A9FED41
:103C4000291A80EE810A2848D0ED000A30EE600A79
:103C5000214880ED040A9DF80E00000200B29DF894
:103C60000F1008431A4948810846B0F90A0000EECF
:103C7000100AB8EEC00ADFED1B0A80EE201A1B48BE
:103C800090ED000A31EE400A134880ED050A9DF8D8
:103C90001000000200B29DF8111008430C49888101
:103CA0000846B0F90C0000EE100AB8EEC00ADFEDCD
:103CB0000D0A80EE201A0E4890ED000A31EE400AFF
:103CC000054880ED060A05B0BDEC048B00BD000080
:103CD00010040020000080462004002000000000A6
:103CE0000000F03F0000EB44700100207401002050
:103CF0007801002000BFFEE7B0EE401AB1EE600A86
:103D0000B4EEC01AF1EE10FA02D2B1EE600A7047BA
:103D1000B4EEE01AF1EE10FA02DDB0EE600AF6E75A
:103D2000B0EE410AF3E7F0EE401AF4EEC11AF1EEFC
:103D300010FA02D2B0EE412A09E0F4EEE01AF1EEF8
:103D400010FA02DDB0EE602A01E0B0EE612AB0EEBA
:103D5000420A70477047000070B5002100230F220F
:103D6000C4781CB3174C246804F4E064C4F5E06420
:103D7000C4F30721C1F10404E3B20A4144789C4032
:103D8000E1B28478144021430C07210E0E4C0578D3
:103D90006155047804F01F050124AC4005786D11CD
:103DA000AD0005F1E025C5F8004109E0047804F014
:103DB0001F050124AC40054D0678761145F82640D4
:103DC00070BD00000CED00E000E400E080E100E0E8
:103DD000024601208840104008B1012070470020B1
:103DE000FCE7000030B504460D469FED5A0AF0EEA0
:103DF000401A94F836000021FFF7EAFF10B1204680
:103E000000F0D4F894F834000521FFF7E1FF68BB17
:103E1000206B281A00EE100AB8EE400ADFED4E2A99
:103E200060EE220A256394F836000121FFF7D0FFE7
:103E300030B194F8360020F0020084F8360030BD2E
:103E400094F834000621FFF7C3FFB8B194ED070AD8
:103E5000B4EEE00AF1EE10FA10D29FED3E0A84EDC6
:103E6000090A84ED0A0A84ED0B0AE8E700EE105A0D
:103E7000B8EE400ADFED382A60EE220A94F83400EA
:103E80000321FFF7A5FF00285FD094ED000AD4EDD1
:103E9000012A30EE621A94F834000021FFF798FFEF
:103EA00038B1D4ED022AB0EE610A02EE810AF0EEDA
:103EB000401A94F834000121FFF78AFF48B394EDCB
:103EC0000B0A01EE200A84ED0B0A94ED0B0AD4EDE7
:103ED000062AB4EEE20AF1EE10FA03DD94ED060ACA
:103EE00084ED0B0A94ED0B0AD4ED052AB4EEE20A38
:103EF000F1EE10FA03D294ED050A84ED0B0AD4ED2D
:103F0000032A94ED0B3AB0EE610A02EE830AF0EE5A
:103F1000401A94F834000221FFF75AFFA8B194ED3B
:103F2000090AD4ED0A2A30EE620A80EE202A94EDC6
:103F3000090A84ED0A0A84ED091AD4ED042AB0EEC8
:103F4000610A02EE820AF0EE401AC4ED081A00BFC0
:103F500075E7000000000000BD37863530B5F0EE93
:103F6000403AB0EE604A04460D46C4ED003A84ED96
:103F7000014A29462046FFF735FF94ED080AF0EE86
:103F8000404AB0EE640A30BD183000ED040A40ED3E
:103F9000030A00ED021A40ED011A80ED002A00210B
:103FA00001774177817718387047000030B50346B4
:103FB00013F8340F597880EA010413F8340900EA41
:103FC000040503212046FFF703FF98B19FED200A67
:103FD00083ED090A83ED0A0A83ED0B0A03212846C3
:103FE000FFF7F6FE50B393F8360040F0020083F876
:103FF000360023E001212046FFF7EAFE70B10121DF
:104000002846FFF7E5FE48B193F834000421FFF796
:10401000DFFE18B99FED0E0A83ED0B0A0221204640
:10402000FFF7D6FE50B102212846FFF7D1FE28B196
:104030009FED070A83ED090A83ED0A0A34335878A5
:104040001870987820F001009870343B30BD000063
:10405000000000007047B0EE401AB1EE600AB4EE06
:10406000C01AF1EE10FA02D2B1EE600A7047B4EE57
:10407000E01AF1EE10FA02DDB0EE600AF6E7B0EEFB
:10408000410AF3E710B52DED048BF0EE409A1F487E
:1040900090ED000AB0EE408A1D48B0F9000000EE35
:1040A000100AB8EEC00AF0EE408A42F210711948C8
:1040B000F0EE480A9FED180AFFF750FF174880ED11
:1040C000000A90ED000AF3EE040A80EE201AB0EE2A
:1040D000419A42F210710F483830F0EE680AB0EEA3
:1040E000490AFFF73BFF0E4880ED000ADFED0D0A9D
:1040F00090ED000AFFF7AFFF0B4880ED000A90ED4E
:10410000000A80ED000ABDEC048B10BDC401002044
:10411000A6010020A003002000007A45B80000207E
:10412000BC00002000409C45C000002010B5DFED21
:10413000142A9FED142ADFED141A9FED111AF0EEE8
:10414000080A9FED120A1248FFF71EFF2F211048A0
:1041500000F047FBDFED0A2A9FED0A2ADFED0A1A7D
:104160009FED0C1AF7EE000AB1EE000A084838304D
:10417000FFF70AFF2F210648383000F032FB10BD50
:104180000000000000004843000048C3000018423F
:10419000A0030020EC51383D10B52DED0A8B0C200A
:1041A000FEF710FD0446FCF7A4F941EC1C0B9FED53
:1041B0002A0B53EC102BFCF71CF941EC1B0B9FED69
:1041C000280B53EC102BFCF7A2F841EC1A0B9FEDD7
:1041D000260B53EC102BFCF794F841EC190B9FEDD8
:1041E000240B53EC102BFCF704F941EC180BFCF7F3
:1041F000B9F92149086008460068FCF787F941ECE5
:10420000190BB0EE490AF0EE690A01F049FEB0EE72
:10421000408AF0EE608A51EC180BFCF7A3F91649BE
:104220000860084690ED000AF9EE040AB4EEE00AD0
:10423000F1EE10FA08D390ED000AF1EE040AB4EEA4
:10424000E00AF1EE10FA04DD9FED0C0A0A4880ED59
:10425000000ABDEC0A8B10BD000000000000B04059
:104260000000006066660A40D7A3703D0AD703408D
:104270000000008014AEC73F00010020CDCCCC3F31
:1042800029B1064A12680243044B1A6004E0034A4B
:1042900012688243014B1A607047000030380240B8
:1042A00029B1064A12680243044B1A6004E0034A2B
:1042B00012688243014B1A60704700004038024088
:1042C00029B1064A12680243044B1A6004E0034A0B
:1042D00012688243014B1A60704700002038024088
:1042E00029B1064A12680243044B1A6004E0034AEB
:1042F00012688243014B1A60704700004438024044
:1043000029B1064A12680243044B1A6004E0034ACA
:1043100012688243014B1A60704700002438024043
:10432000F0B5002100220024022500260223324F8E
:104330003F6807F00C0121B1042905D0082937D1C5
:1043400005E02E4F076036E02D4F076033E02A4F1F
:104350003F1F3F68C7F38056274F3F1F3F6807F056
:104360003F036EB1264FB7FBF3F7DFF88CC0ACF11B
:10437000040CDCF800C0CCF3881C07FB0CF40CE048
:104380001E4FB7FBF3F7DFF870C0ACF1040CDCF89C
:1043900000C0CCF3881C07FB0CF4174F3F1F3F688D
:1043A000C7F301477F1C7D00B4FBF5F7076002E00F
:1043B000124F076000BF00BF0F4F3F6807F0F001CA
:1043C0000909104F7A5C0768D74047600A4F3F6879
:1043D00007F4E051890A0B4F7A5C4768D740876041
:1043E000054F3F6807F46041490B064F7A5C476808
:1043F000D740C760F0BD0000083802400024F40038
:10440000001BB7002902002000B58FB001214048F1
:10441000FFF736FF01211020FFF762FF0722114648
:104420003C48FEF79FFB80200D9002208DF838005D
:1044300000208DF83A0003208DF8390000208DF817
:104440003B000DA93348FEF745FB334800F05AFF07
:10445000324809900020ADF82800ADF82A004FF44A
:104460008060ADF82C000420ADF82E000020ADF8DF
:10447000300009A9284800F0EFFF0121264800F08C
:104480002CFF01224021244800F033FF3A208DF810
:10449000380001208DF839008DF83A008DF83B0086
:1044A0000EA8FFF759FC1E48FEF718F94FF0006000
:1044B00000901948001D01901A48029000200390B6
:1044C00012200490002005904FF480600690002098
:1044D000079008904FF4807009904FF440300A9094
:1044E00000200B900C900D900E9069460C48FEF742
:1044F000F1F9012210210A48FEF7CEF900210848FF
:10450000FEF7E0F801210648FEF7DCF80FB000BD29
:10451000020040000004024000100140A08601009B
:1045200040640240300500201048B0F900001049F6
:10453000B1F9001088420FD10E48B0F900001E28D2
:1045400003DD00200C49087009E00A480088401C7F
:1045500000B20849088002E00020064908800348AC
:10456000B0F9000002490880704700008C0100206B
:104570008E010020040100200000002010B5074833
:104580000068074908604FF480510648FEF70DFBAC
:1045900002490860FCF7A6FC10BD00008C0000205A
:1045A00088000020001C024010B5FFF7CFF804205F
:1045B0000149087010BD00000000002010B5FFF791
:1045C000C5F800F003F8FEF7D9FF10BD11480078D8
:1045D000F8B1114890F9090030B1012808D002283B
:1045E0000AD0032810D10BE000200C4908700FE01E
:1045F00001200A4908700BE003200849087007E011
:1046000002200649087003E004200449087000BF36
:1046100000BF70476E0100201A0500200000002036
:1046200010B542F210711848184AD2ED000A184A23
:1046300092ED000AFFF792FC164880ED000ADFEDCC
:10464000160A90ED000AFFF7CDF9124880ED000A36
:1046500042F210711148124AB2F9002000EE102AFD
:10466000F8EEC00A0B4A92ED000AFFF777FC094802
:1046700080ED000ADFED080A90ED000AFFF7B2F9BD
:10468000044880ED000A10BDD0050020C0010020C4
:104690001C0200200802002000803B450806002084
:1046A000A20100201CB500243548006840F020001D
:1046B0003349086032481430006840F480103049B3
:1046C000143108604FF46070009002208DF80400EF
:1046D00000208DF8060001208DF8070003208DF8DA
:1046E000050069462748FEF7F5F905220721254808
:1046F000FEF738FA052208212248FEF733FA052290
:1047000009212048FEF72EFA4020009001208DF864
:10471000040000208DF8060001208DF8070003201A
:104720008DF8050069461748FEF7D4F901201649AF
:10473000086013480C38006840F4801010490C39A8
:1047400008600846006820F48010086000BF44F04C
:10475000040444F4807400BF44F0020444F00104F3
:1047600044F4007444F0380400BF44F040040748A7
:104770000480808B20F40060044988831CBD000005
:1047800030380240001402409882424200500140FA
:104790000246002106E0481C81B2B1F5167F01DD1A
:1047A000002070470D48008900F002000028F2D078
:1047B0000A488281002106E0481C81B2B1F5167FCB
:1047C00001DD0020EDE70548008900F00100002828
:1047D000F2D002488089C0B2E3E7000000500140F7
:1047E000704700F8351F427842F0010242703538B8
:1047F000704700000CB5002001900090344800681C
:1048000040F480303249086000BF3148006800F44D
:10481000003000900198401C0190009818B9019850
:10482000B0F5A06FF1D12A48006800F4003010B153
:104830000120009001E0002000900098012846D15E
:1048400023484030006840F08050214940310860E2
:104850002048006840F480401E4908601C48083029
:1048600000681B49083108600846006840F40040B1
:1048700008600846006840F4A05008601648091F08
:104880000860081F006840F08070091F086000BFC2
:104890000F48006800F000700028F9D040F2056071
:1048A0000E4908600A480830006820F003000849F3
:1048B000083108600846006840F00200086000BF48
:1048C00003480830006800F00C000828F8D10CBD3F
:1048D00000380240007000400C544007003C024089
:1048E0000A4890ED000ADFED0A0A30EE600A80ED1A
:1048F000000A08480068401C06490860084600682D
:10490000012802DB4FF0FF3008607047C40100202F
:10491000000080448400002010B5FFF707FCC82188
:10492000064800F04EFBC821044800F04CFB4FF451
:104930007A7002F07FF800F07DF810BD001800409A
:1049400010B5364800783649087034480078042895
:104950000CD100F06FF8334890ED000ABDEEC00AAC
:1049600010EE100A00B2FCF78DFC52E02B480078E4
:1049700001280CD100F05EF82A4890ED000ABDEE47
:10498000C00A10EE100A00B2FCF77CFC41E023489C
:10499000007802281DD122480078234909788842EE
:1049A00004D09FED220A224880ED000AFEF73AF873
:1049B000FEF712FE01F05EFFFDF7BAFF194890ED19
:1049C000000ABDEEC00A10EE100A00B2FCF75AFC55
:1049D0001FE01248007803280CD100F02BF8114892
:1049E00090ED000ABDEEC00A10EE100A00B2FCF70E
:1049F00049FC0EE00948007858B900F01BF8094856
:104A000090ED000ABDEEC00A10EE100A00B2FCF7ED
:104A100039FC034800780449087010BD00000020EC
:104A2000A4000020C0000020A500002000007A455E
:104A3000C401002010B56421064800F0C2FA6421C8
:104A4000044800F0C0FA9FED040A044880ED000A13
:104A500010BD00000018004000000000C000002051
:104A6000042808D14FF0E021096941F004014FF01A
:104A7000E022116107E04FF0E021096921F0040113
:104A80004FF0E022116170477047000010B51548E3
:104A9000006840F47000134908601348006840F053
:104AA00001001149086000200F49083108600E48D4
:104AB00000680E4908400C4908600D48091D08604F
:104AC000081F006820F48020091F086000200649A4
:104AD0000C310860FFF78EFE4FF00060014980390D
:104AE000086010BD88ED00E000380240FFFFF6FED0
:104AF0001030002400B58BB001214020FFF7D0FB1F
:104B000001218020FFF7BCFB092211462D48FEF74A
:104B100029F8092206212B48FEF724F84FF41070DB
:104B2000099002208DF828008DF8290000208DF8CA
:104B30002A0001208DF82B0009A92248FDF7CAFFA1
:104B400040F2CF70079040F2CF20ADF8180000205F
:104B5000ADF81A00ADF82000012211461A4800F005
:104B600080F906A9184800F031FA6020ADF8040079
:104B70000120ADF806000020ADF8100001A9124890
:104B800000F078F96020ADF804000120ADF80600CF
:104B90000020ADF8100001A90B4800F0B3F908217E
:104BA000094800F0A5F90821074800F0FDF90121A6
:104BB000054800F01BF90121034800F026F90BB06D
:104BC00000BD0000001C02400018004010B501218B
:104BD000880700F035F9012803D102F071FDFFF7D5
:104BE000CDFC0121880700F00DF910BD1FB5012192
:104BF0000846FFF755FB4FF47A7002905320ADF84A
:104C000004000020ADF80600ADF80C0001A94FF03B
:104C1000804000F0DBF901221146900700F021F9F5
:104C20000121880700F0F1F81C208DF80000002019
:104C30008DF8010001208DF802008DF80300684610
:104C4000FFF78AF81FBD000010B50121104800F0E1
:104C5000F7F8012817D10F48007890B90E4800885E
:104C6000B0F5FA6F05DA0C480088401C0A49088044
:104C700007E0002008490880012006490870FEF777
:104C800083FBFDF7A1FB0121014800F0BBF810BD3B
:104C9000000C00406E0100206C0100201FB50121B6
:104CA0000820FFF7FDFA4FF47A7002905320ADF818
:104CB00004000020ADF80600ADF80C0001A90D4875
:104CC00000F084F9012211460A4800F0CAF83220A7
:104CD0008DF8000000208DF8010001208DF8020001
:104CE0008DF803006846FFF737F80121014800F00E
:104CF0008CF81FBD000C004030B58BB004460D464B
:104D000001210220FFF7ECFA01210802FFF7B8FAAF
:104D1000032205213348FDF725FF032206213148F0
:104D2000FDF720FF032207212E48FDF71BFF03227A
:104D300002212C48FDF716FFE420099002208DF88F
:104D400028008DF8290000208DF82A0001208DF818
:104D50002B0009A92348FDF7BDFE4FF4FA60079028
:104D600040F24730ADF818000020ADF81A00ADF859
:104D70002000012211461C4800F073F806A91A48C9
:104D800000F024F96020ADF804000120ADF8060021
:104D90000020ADF8100001A9134800F06BF8602066
:104DA000ADF804000120ADF806000020ADF81000B9
:104DB00001A90D4800F0A6F808210B4800F098F86A
:104DC0000821094800F0F0F80121074800F00EF82A
:104DD0000121054800F025F80121034800F015F8ED
:104DE0000BB030BD002002400004014021B1028818
:104DF00042F08002028004E002884FF67F731A407E
:104E000002807047CA430282704721B1028842F093
:104E10000102028004E002884FF6FE731A4002800D
:104E2000704731B1B0F8442042F40042A0F8442069
:104E300005E0B0F84420C2F30E02A0F84420704709
:104E400030B50246002000230024158A05EA01033C
:104E5000958905EA010413B10CB1012000E000209E
:104E600030BD1AB183890B43838102E083898B4370
:104E70008381704770B5002400220023058C4FF613
:104E8000FE7635400584028C8388048B4FF68F753F
:104E90002C40B51E2C400D882C43751E2A408D8950
:104EA0002A434D882A43104DA84202D00F4DA842F4
:104EB00013D14FF6F7752A40CD892A434FF6FB757B
:104EC0002A408D882A434FF6FF652B404FF6FF5549
:104ED0002B400D8A2B434D8A2B43838004838D689E
:104EE0004563028470BD00000000014000040140E1
:104EF0000A460021018B4FF6F773194011430183D5
:104F00007047000070B5002400220023058C4FF686
:104F1000EF7635400584028C8388048B48F6FF7554
:104F20002C404FF6FF452C400D884FF6FF7606EAE1
:104F300005252C434FF6DF752A408D8906EA0515B5
:104F40002A434D8806EA05152A43154DA84202D08A
:104F5000144DA8421DD14FF67F752A40CD894FF6DA
:104F6000FF7606EA05152A434FF6BF752A408D885D
:104F700006EA05152A434FF6FF352B404FF2FF7521
:104F80002B400D8A06EA85052B434D8A06EA8505E6
:104F90002B43838004838D688563028470BD000089
:104FA00000000140000401400A460021018B4FF23D
:104FB000FF7319404FF6FF7303EA0223194301837D
:104FC0007047416370478163704700000022028888
:104FD000184B98420ED0184B98420BD0B0F1804F2E
:104FE00008D0164B984205D0154B984202D0154B6D
:104FF000984204D14FF68F731A404B881A43124BD4
:10500000984207D0114B984204D04FF6FF431A4004
:105010000B891A4302804B68C3620B880385054BDA
:10502000984202D0044B984201D18B7A0386012327
:1050300083827047000001400004014000040040EA
:1050400000080040000C0040001000400014004028
:1050500000B58FB001214248FFF712F90121880401
:10506000FFF71EF9072208213E48FDF77BFD0722C6
:1050700009213C48FDF776FD4FF440700D90022069
:105080008DF8380000208DF83A0003208DF83900A3
:1050900000208DF83B000DA93248FDF71BFD32487A
:1050A00000F030F94FF4E13009900020ADF828000D
:1050B000ADF82A00ADF82C000C20ADF82E00002031
:1050C000ADF8300009A9284800F0C6F901212648AA
:1050D00000F003F901224021234800F00AF90C20D6
:1050E0008DF8380002208DF8390003208DF83A0041
:1050F00001208DF83B000EA8FEF72EFE1B48FDF7A1
:10510000EDFA4FF0006000901748001D019018481C
:1051100002900020039064200490002005904FF43A
:10512000806006900020079008904FF480700990EE
:105130004FF440300A9000200B900C900D900E9090
:1051400069460A48FDF7C6FB012210210748FDF712
:10515000A3FB01210548FDF7B5FA0FB000BD000023
:1051600008002000000C0240004800402860024077
:105170006C05002010B588B0044601214020FFF7DF
:105180007FF801212020FFF7ABF808220E212448E8
:10519000FDF7E8FC082209212148FDF7E3FC4FF464
:1051A0008440069002208DF81C008DF81D00002020
:1051B0008DF81E0001208DF81F0006A91848FDF784
:1051C00089FC02940020ADF80C00ADF80E00ADF89B
:1051D0001000ADF814000C20ADF8120002A911481F
:1051E00000F03AF901210F4800F077F840210D480E
:1051F00000F06AF8012240F225510A4800F006F951
:1052000047208DF8040003208DF805008DF8060076
:1052100001208DF8070001A8FEF79EFD08B010BD23
:10522000001802400014014010B540F225512148F9
:1052300000F0C2F800283BD01E4800F077F9C4B255
:105240001D48047001201D4908701D48008800F4A5
:10525000004068BB1A48008800F4804070B10A2CF6
:1052600003D000201649088022E00120144908805C
:105270000846008840F40040088019E00D2C06D153
:105280000F48008840F480400D49088010E00C4829
:105290000088C0F30D000B490C5409480088401CDD
:1052A0000749088008460088C72801DD00200880DB
:1052B00010BD000000140140800100208101002089
:1052C000880100203C04002001F40072B2F5007F48
:1052D00000D100BFCA430280704721B1828942F4E5
:1052E0000052828104E082894DF6FF731A40828168
:1052F00070471AB1838A0B43838202E0838A8B430F
:105300008382704710B504462548844208D10121A4
:105310001020FEF7F5FF00211020FEF7F1FF3EE020
:105320002048844209D101214804FEF7C9FF002129
:105330004FF40030FEF7C4FF31E01B48844209D12E
:1053400001218804FEF7BCFF00214FF48020FEF706
:10535000B7FF24E01548844209D10121C804FEF7B3
:10536000AFFF00214FF40020FEF7AAFF17E010481E
:10537000844209D101210805FEF7A2FF00214FF464
:105380008010FEF79DFF0AE00A48844207D1012100
:105390002020FEF7B5FF00212020FEF7B1FF10BD51
:1053A000001001400044004000480040004C004014
:1053B000005000400014014070B502460024002354
:1053C0000025002040F66A16B14200D100BFC1F3AB
:1053D000421501F01F03012606FA03F3012D02D145
:1053E0009689334006E0022D02D1168A334001E04F
:1053F000968A33400C12012606FA04F416883440CB
:1054000013B10CB1012000E0002070BDF0B50346DF
:10541000002400260025002040F66A17B94200D17A
:1054200000BF1846C1F3421401F01F06012707FA16
:1054300006F5012C01D10C3004E0022C01D1103012
:1054400000E014301AB107682F43076002E00768D4
:10545000AF430760F0BD00002DE9FF4705460E464B
:105460000024A14600BFA046B08900B100BF2C8A2D
:1054700024F44054F08804432C82AC8941F20C603F
:105480008443B08831890843718908430443AC815F
:10549000AC8A24F44074B0890443AC826846FEF7B9
:1054A0003FFF2048854202D01F48854202D1DDF8E7
:1054B0000C9001E0DDF80890A88900F4004040B1AC
:1054C00009EBC90000EB091031684900B0FBF1F7A6
:1054D00007E009EBC90000EB091031688900B0FB57
:1054E000F1F76420B7FBF0F004012009642101FB0F
:1054F0001078A88900F4004040B1322000EBC800C9
:10550000B0FBF1F000F00700044308E0322000EBAC
:1055100008106421B0FBF1F000F00F0004432C816F
:10552000BDE8FF8700100140001401400146888853
:10553000C0F30800704700BFFEE7000010B5FFF79A
:10554000EBF9FEF7B5FA01F001FCFFF72DF8FCF7D7
:105550008FFCFDF74FFBFCF721FF40F2DC510748C1
:10556000FFF72FFDFA2001F065FA00210348FFF74D
:1055700028FD0020FBF786FE10BD0000000400405F
:1055800003B401984100009850EAC12018BF0420DC
:105590004A0D18BF40F0010040F2FF72B2EB515FBC
:1055A00008BF40F00200012808BF052002B0704784
:1055B00070B5C1482DED020B2DED0E8B82B0119D03
:1055C00025F000449FEDBEDB9FEDBFEB84423EDB48
:1055D000A4F140511098A1F17F6108430FD0BC485D
:1055E000844202DC28D1109830B39DED100B02B03C
:1055F000BDEC0E8B02B0BDE8704001F0E9B89DED46
:10560000100B53EC1D2B51EC100BFAF780FE9DEDA7
:10561000100B41EC180B53EC1E2B51EC100BFAF74E
:1056200076FE53EC182BFAF7CBFD41EC100B02B0D1
:10563000BDEC0E8B02B070BD012001F00DF902B07F
:10564000BDEC0E8B02B0BDE8704001F0D5B8A148AA
:105650009FEDA18B844256DA9DED100BB4F1795F7A
:105660000ADA51EC100BFFF78BFF042808BF01F09A
:10567000D3F89DED100BDAE753EC102B51EC100B27
:10568000FAF745FE41EC190B95480621B0EE490AA0
:10569000F0EE690A784400F087FF53EC192B51ECC7
:1056A000100BFAF734FE41EC1A0B8E48B0EE490AA3
:1056B000F0EE690A0421784400F076FF53EC192BD0
:1056C00051EC100BFAF723FE53EC182BFAF778FD88
:1056D00041EC100B51EC1A0B53EC102BFAF789FE2E
:1056E000CDE900019DED000B53EC102B9DED100B4F
:1056F00051EC100BFAF70BFE9DED101B53EC112B28
:10570000FAF75EFDD2E09DED100B51EC100B01F0AD
:10571000D3F953EC182BFAF7F7FD9FED730BCDE996
:10572000000153EC102B9DED000B51EC100BFAF720
:10573000EEFD41EC190B6E480621B0EE490AF0EE81
:10574000690A784400F030FF53EC192B51EC100B30
:10575000FAF7DDFD41EC1B0B6648B0EE490AF0EEAE
:10576000690A0421784400F01FFF53EC192B51EC17
:10577000100BFAF7CCFD53EC182BFAF721FD41EC96
:105780001C0B51EC190B01F063FF41EC180B5A484C
:105790009FED5BABA04222DC53EC1C2B51EC1B0BAE
:1057A000FAF727FECDE900019DED000B51EC180B37
:1057B00053EC102BFAF7ABFD53EC182BFAF700FD66
:1057C00053EC1A2BFAF7A3FD53EC1D2BFAF799FDB6
:1057D00053EC1E2BFAF798FD41EC100B5FE08DEDBA
:1057E000008B002000909DED000B51EC180B53EC4A
:1057F000102BFAF7E5FC9DED000B41EC1E0B53EC72
:10580000102B51EC100BFAF782FD53EC192BFAF721
:105810007BFD53EC1E2BFAF7ECFD41EC190B53EC1E
:105820001C2B51EC1B0BFAF7E4FD41EC1B0B53EC6A
:105830001A2B51EC190BFAF76AFD53EC1D2BFAF7F2
:1058400063FD41EC190B53EC1A2B51EC180BFAF7D2
:105850005EFD53EC1B2BFAF75AFD53EC192BFAF7AC
:1058600050FD9DED000B41EC180B53EC1A2B51EC45
:10587000100BFAF74CFD9FED249B53EC192BFAF714
:1058800043FD41EC100B51EC180B53EC102BFAF7C5
:1058900038FD53EC192BFAF737FD41EC100B002DB6
:1058A0003FF7C5AE51EC100B81F0004141EC100BFD
:1058B000BDE60000000000000000F03F0000000016
:1058C000075C143326A6913C182D4454FB21F93F64
:1058D0000000F07F0000E03F000000000000F03F0B
:1058E00098230000A6230000000000000000E03F15
:1058F000EA220000F82200003333EF3F00000000EE
:105900000000000000000040182D4454FB21E93F36
:1059100070B59B482DED020B2DED068B079D25F0F4
:105920000044A04218DC9748844202DC0AD1069861
:1059300040B19DED060BBDEC068B02B0BDE870409A
:1059400000F046BF002DCCBF9FED8F0B9FED900B5D
:10595000BDEC068B02B070BD8F48A04215DD8F48AC
:10596000A042D8BF4FF0FF3458DD9DED060B51EC3F
:10597000100BFFF705FE042808BF00F04DFF9DED5A
:10598000060BBDEC068B02B070BD9DED060B51EC15
:10599000100B01F091F8CDE9060181489FED828B53
:1059A000A0423CDD8248A0421FDD00249FED82AB77
:1059B0009DED060B53EC1A2B51EC100BFAF700FC83
:1059C0009DED060B41EC190B53EC1A2B51EC100B0F
:1059D000FAF79DFC53EC182BFAF793FC53EC192BB8
:1059E000FAF707FDCDE9060149E09DED060B01241C
:1059F00053EC182B51EC100BFAF7E2FB9DED060B64
:105A000041EC190B53EC182B51EC100BFAF779FC05
:105A100053EC192BFAF7EDFCCDE906012FE06848AD
:105A2000A0421FDD02249FED689B9DED060B53EC09
:105A3000192B51EC100BFAF76AFC53EC182BFAF700
:105A4000BFFB9DED060B41EC180B53EC192B51ECF1
:105A5000100BFAF756FC53EC182BFAF7CAFCCDE9F9
:105A600006010CE09DED060B032453EC102B9FED7B
:105A7000580B51EC100BFAF7BCFCCDE906019DED7B
:105A8000060B53EC102B51EC100BFAF740FC41ECD9
:105A9000180B53EC182BFAF73AFC41EC190B4E4853
:105AA0000621B0EE490AF0EE690A784400F07CFD68
:105AB00053EC182B51EC100BFAF729FC41EC180BA6
:105AC0004648B0EE490AF0EE690A0521784400F034
:105AD0006BFD53EC192B51EC100BFAF718FC41EC51
