:020000040800F2
:10000000E00700209D010008092000081F1D0008CE
:10001000F91F0008CB0A0008F337000800000000B1
:100020000000000000000000000000008D2A000811
:100030008D1B00080000000009230008212C000887
:10004000B7010008B7010008B7010008B7010008B0
:10005000B7010008B7010008B7010008B7010008A0
:10006000B7010008B7010008B7010008B701000890
:1000700095180008B7010008B7010008B70100088B
:10008000B7010008B7010008B7010008B701000870
:10009000810C0008B7010008B7010008B70100088B
:1000A000B7010008B7010008B7010008B701000850
:1000B0008D2C0008B7010008B7010008B70100083F
:1000C000B7010008B7010008B7010008B701000830
:1000D000B7010008B7010008B7010008B701000820
:1000E000B7010008B7010008B7010008B701000810
:1000F000B7010008B7010008B7010008B701000800
:10010000B7010008B7010008012E0008B701000878
:10011000B7010008B7010008B7010008B7010008DF
:10012000B7010008B7010008B7010008B7010008CF
:10013000B7010008B7010008B7010008B7010008BF
:10014000B7010008B7010008B7010008B7010008AF
:10015000B7010008B7010008B7010008E53400083E
:10016000B7010008B7010008B7010008B70100088F
:10017000B7010008B7010008B7010008B70100087F
:10018000B7010008B7010008DFF80CD000F004FB4D
:1001900000480047814C0008E007002006488047DF
:1001A00006480047FEE7FEE7FEE7FEE7FEE7FEE75C
:1001B000FEE7FEE7FEE7FEE7252C000889010008C0
:1001C0002DE9FE4F81EA030404F0004421F00041D0
:1001D00000944FF0000B23F0004350EA01045ED07E
:1001E00052EA03045BD0C3F30A54C1F30A552C440A
:1001F000A4F2F3340194A0FB0254C1F3130141F4BF
:100200008011C3F3130343F4801301FB024400FB8A
:10021000034E840A970A44EA815447EA8357A4FBB1
:10022000076802958D0A05FB07854FEA932C04FBAE
:100230000C542705029D4FEA065847EA1637B5EBDE
:1002400008056EEB070C870E920E47EA811742EA0B
:100250008312A7FB0201B6EB0B0164EB00042B0D2C
:1002600043EA0C335E1844EB1C50DA465146E7FB78
:100270000201C5F313044FEA0B3343EA14534FEA68
:100280000432019C43EA0603A4F10C040294009C8E
:10029000CDE900B400F05BF903B0BDE8F08F0020B9
:1002A0000146F9E72DE9F04D81EA030404F0004B23
:1002B00021F0004514464FF0000A23F0004150EAB7
:1002C000050220D054EA01021DD0C5F30A570246A8
:1002D000C5F31303C1F31300C1F30A5640F48015AC
:1002E00043F48013A7EB0608101BD64608F2FD382E
:1002F00073EB050002D308F1010801E092185B419D
:10030000B8F1000F03DA00200146BDE8F08D0020AF
:100310004FF48011064684460EE0171B73EB050769
:1003200005D3121B63EB050306434CEA010C490895
:100330004FEA300092185B4150EA0107EDD152EAD2
:10034000030012D082EA040083EA0501084305D0C5
:10035000101BAB4106D20122002306E000224FF021
:10036000004302E06FF0010253101AEB06004CEB61
:10037000085110EB0A0041EB0B01BDE8F04D00F015
:10038000D7B80EB5C10F80EAE0700844CA07002153
:1003900040F233438DE80E000A460B4600F0D7F8D2
:1003A00003B000BD00F0004230F000400AD0C10DA3
:1003B00001F56071C0F3160042EA0151C20840071E
:1003C00011437047002001467047000030B5041EFD
:1003D00071F1000404DB4FF00044404264EB010182
:1003E000141E73F1000405DB1C464FF0004352421B
:1003F00063EB04038B4208BF824230BD01F000432F
:1004000030B421F0004150EA010206D00A0DA2F5F5
:100410006072C1F31301002A02DC30BC0020704777
:10042000440F44EAC104C100E01830BC00EBC250E4
:1004300000F047B830B50B460146002020220124C9
:1004400009E021FA02F59D4205D303FA02F5491BA2
:1004500004FA02F52844151EA2F10102F1DC30BDB8
:100460002DE9F05F0546002092469B4688460646E9
:10047000814640241BE0284641464746224600F07C
:10048000ACF953465A46C01A914110D3114618464A
:10049000224600F093F92D1A67EB01084F462246D9
:1004A0000120002100F08AF917EB00094E41201EBF
:1004B000A4F10104DFDC484631462A464346BDE844
:1004C000F09F0029A8BF7047401C490008BF20F0DA
:1004D0000100704710B4B0FA80FC00FA0CF050EA4A
:1004E000010404BF10BC704749B1CCF1200421FACB
:1004F00004F411FA0CF118BF012121430843A3EBC6
:100500000C01CB1D4FEA00614FEA102042BF0020D2
:1005100010BC704700EBC35010440029A4BF10BCAE
:100520007047401C490008BF20F0010010BC704714
:1005300010B5141E73F1000408DA401C41F10001EB
:1005400092185B411A4301D120F0010010BD2DE942
:10055000F04D92469B4611B1B1FA81F202E0B0FA39
:1005600080F22032904600F029F904460F4640EA16
:100570000A0041EA0B0153465A46084313D011467C
:1005800053EA010019D0C8F14002504600F025F9A5
:1005900005460E4650465946424600F00FF90843BC
:1005A00005D0012004E020463946BDE8F08D00204A
:1005B000054346EAE0762C4337430A986305E40A8C
:1005C000A0EB08000022FD0A44EA47540A3002D595
:1005D00000200146E9E7010510196941DDE90845F8
:1005E00000196941BDE8F04DA2E72DE9FE4F8046B4
:1005F00081EA0300C00F0C46009021F0004123F077
:100600000045B8EB0200A94105D24046214690467C
:100610001C460B46024623F00040104347D0270DEE
:10062000C7F30A00C3F30A510290401A0190402810
:100630006BDAC3F3130040F4801B0098924620B19C
:100640000023D2EB030A63EB0B0B01985946C0F170
:100650004002504600F0B2F806460D465046594654
:10066000019A00F0CAF810EB08006141002487EA03
:10067000115284EAE7731A4340D0009A62B3019A98
:10068000012A4FEA075215DC001B61EB02014FF013
:10069000004202EA0752CDE90042001C41F58011F8
:1006A00032462B46FFF753FF03B0BDE8F08F4046BC
:1006B0002146F9E7001B61EB0201001C41F58013A4
:1006C00000185B412018A2F5001747EB030140EA30
:1006D000D570B6196D4111E06D084FEA360645EA4E
:1006E000C0754FEA0752001B61EB0201001C41F587
:1006F000801149084FEA30000019514132462B461B
:1007000003B0BDE8F04FFFF713BF0098012240008F
:100710000023D0EB020263EBE073009821464FEA1E
:10072000E074B8EB000061EB0401E9E783F00043FB
:100730005BE781F0004158E7C1F30A52C1F31301AE
:1007400040F2FF3341F480119A4202DA0020014660
:10075000704740F233439A42A2F2334202DC5242E3
:1007600000F03BB800F02AB830B5041E71F1000467
:1007700004DB4FF00044404264EB0101141E73F1AE
:10078000000405DB1C464FF00043524263EB0403B8
:10079000994208BF904230BD064C074D06E0E06824
:1007A00040F0010394E8070098471034AC42F6D3B8
:1007B000FFF7EEFC2051000840510008202A04DB1E
:1007C000203A00FA02F1002070479140C2F1200364
:1007D00020FA03F3194390407047202A04DB203AA3
:1007E00021FA02F00021704721FA02F3D040C2F151
:1007F00020029140084319467047202A06DBCB1798
:10080000203A41FA02F043EAE07306E041FA02F3CB
:10081000D040C2F1200291400843194670470EB5FE
:1008200040F2334102910021CDE900110A460B4606
:10083000FFF78DFE03B000BD70B5C1F30A5201F0A1
:1008400000450024C1F3130140F2FF3341F480114D
:100850009A4201DA002070BD40F233439A42A2F27C
:10086000334203DC5242FFF7B8FF00E090402C43D4
:10087000F1D0404270BD70B58C1810F8015B15F0D6
:10088000070301D110F8013B2A1106D110F8012B02
:1008900003E010F8016B01F8016B5B1EF9D12B0727
:1008A00005D40023521E0DD401F8013BFAE710F8DD
:1008B000013BCB1A921C03E013F8015B01F8015BCA
:1008C000521EF9D5A142D8D3002070BD0948008836
:1008D00020F0FF00801D07490880002008730846AB
:1008E000008820F4807008800348486000208860F9
:1008F0007047000060020020A000002008B5102012
:1009000000906946012000F021FB08BD08B52020B9
:1009100000906946012000F019FB08BD09480088D5
:1009200020F0FF000A3007490880002008730846BD
:10093000008820F4807008800348486000208860A8
:1009400070470000500200202800002008B5022057
:1009500000906946012000F0F9FA08BD08B50120B1
:100960000090694600F0F2FA08BD00B5FFF7D6FF27
:10097000FFF7ACFF00BD000010B504462088C0F3AF
:100980000020002839D0217B01EB4101606800EB99
:1009900081001A49086008460068808830B9084616
:1009A0000068806810B1096888688047134800684B
:1009B0008088124909684988884217D100200F4968
:1009C00009688880217B2078401E81420AD12088D6
:1009D00020F48070208000202073A06868B1A06897
:1009E00080470AE0207B401C207306E00348006833
:1009F0008088401C01490968888010BDE8000020FB
:100A000010B5044615480078032808D1144800782A
:100A100000F04000D8B1134800F028F817E00F4864
:100A20000078022813D10E48007800F0400020B171
:100A300001F04CFD0C4800F019F80948007800F06E
:100A4000800020B101F04CFD074800F00FF8054888
:100A5000FFF792FF0448FFF78FFF10BD0B00002047
:100A60000800002050020020600200200188C1F32D
:100A7000002139B9018821F4807101F5807101806C
:100A800000210173704708B5A82004F061F801F057
:100A900095F900F01DF84FF4E13002F0C9FC02F0C6
:100AA00035FC01F055FF0020032308221946009071
:100AB00000F066F802F026F902F0E8F902F09CFE78
:100AC00002F0F2F802F0B4F908BD00BFFEE7000042
:100AD00000B58BB00121022001F028FC0121022089
:100AE00001F014FC02220421234801F0F1F8102047
:100AF000099002208DF828008DF8290000208DF83B
:100B00002A0001208DF82B0009A91B4801F098F854
:100B10004FF4FA6007904720ADF818000020ADF8B8
:100B20001A00ADF8200001221146144802F04FFAD5
:100B300006A9124802F0A8FB6020ADF804000120CD
:100B4000ADF806000020ADF8100001A90B4802F036
:100B500047FA0821094802F081FA0121074802F00A
:100B6000FBF90121054802F006FA0021034802F0D2
:100B700082FB0BB000BD00000004024000040040F6
:100B80002DE9F0418AB004460D4616461F46DDF8B1
:100B900040800121082001F0B9FB0121480601F045
:100BA000C5FB0320089002208DF8240000208DF85A
:100BB000260003208DF8250001208DF8270008A9C4
:100BC0002D4801F03DF8092200212B4801F080F862
:100BD00009220121284801F07BF800208DF81A0035
:100BE00001208DF81B0000208DF81C0001208DF8DD
:100BF0001D0000208DF81E008DF81F008DF8168056
:100C00008DF817408DF818608DF81950ADF81470F4
:100C100005A91A4800F02FFB00208DF80E008DF872
:100C20000F0001208DF810000020ADF80400ADF891
:100C30000600ADF80800ADF80A00ADF80C00012080
:100C40008DF8110001A800F0F9F9012202210B48EA
:100C500000F008FB14208DF8000000208DF8010042
:100C600001208DF802008DF80300684601F0CEF9EE
:100C700000200AB0BDE8F081000C02400064004092
:100C800010B50221884800F05DFA00286BD00221DF
:100C9000854800F07FF9854A0021834800F075FB04
:100CA0008248006840F20521884265D17F48817BF7
:100CB000407B41EA002000B27D4908807B48017CEE
:100CC000C07B41EA002000B27A4908807748007B67
:100CD0007649C97A40EA012000B27749088077480E
:100CE000B0F90000401CE8B30846B0F900007349B1
:100CF000B1F90010401A00EE100AB8EEC00A7048B0
:100D000080ED000A90ED000ADFED6E0AB4EEE00A15
:100D1000F1EE10FA01DD6C480DE0694890ED000A33
:100D2000DFED6A0AB4EEE00AF1EE10FA02D24FF4F7
:100D3000005000E0002000EE100AB8EEC00A604843
:100D4000D0ED000A30EE200A80ED000A90ED000A96
:100D5000F3EE030A80EE201A5D4890ED000A31EEB2
:100D6000000A01E002E096E080ED000A5248B0F986
:100D700000005249088095E04C48006840F2062186
:100D8000884264D14948817B407B41EA002000B21F
:100D9000504908804548017CC07B41EA002000B2F0
:100DA0004D4908804148007B4049C97A40EA01200A
:100DB00000B24A4908804A48B0F90000401CE8B334
:100DC0000846B0F900004649B1F90010401A00EE9B
:100DD000100AB8EEC00A3A4880ED000A90ED000A09
:100DE000DFED380AB4EEE00AF1EE10FA01DD364824
:100DF0000DE0334890ED000ADFED340AB4EEE00A6E
:100E0000F1EE10FA02D24FF4005000E0002000EEA4
:100E1000100AB8EEC00A2A48D0ED000A30EE200AC7
:100E200080ED000A90ED000AF3EE030A80EE201A2E
:100E30002C4890ED000A31EE000A00E001E080ED60
:100E4000000A2648B0F90000254908802AE0174822
:100E50000068802826D11548C07A00F003001349A5
:100E6000C97A884218D100201F4908700DE00F4848
:100E70000B301D490978405C1C491B4A1278885484
:100E800019480078401C184908700848807A1649AB
:100E900009788842EBDC05E01548C089401C00B2A7
:100EA0001349C88110BD000000640040A00200206A
:100EB0001C01002018010020200100202401002036
:100EC0002C0100200000804500E0FFFF000080C5ED
:100ED000100100201E0100201A0100202201002024
:100EE000260100201401002028010020000000201D
:100EF0009002002030B585B004460D4640F2FF1048
:100F0000009000208DF808008DF8090008208DF869
:100F10000A00200A8DF80B00E1B28DF80C10290AA6
:100F20008DF80D10E9B28DF80E1000218DF80F101C
:100F30008DF810108DF811108DF8121069460248C6
:100F400000F09BFA05B030BD0064004030B585B0BC
:100F500004460D46C020009000208DF808008DF852
:100F60000900082C01DD082000E020468DF80A0069
:100F7000002005E02A5C0DF10B010A54411CC8B2A7
:100F8000A042F7DB6946024800F077FA05B030BDB1
:100F900000640040B1F5007F3AD00FDC202928D052
:100FA00006DC01291CD004291DD0082940D11DE0F0
:100FB000402921D0B1F5807F3AD126E0B1F5004F2C
:100FC00031D006DCB1F5806F25D0B1F5006F2FD19F
:100FD00024E0B1F5803F12D0B1F5003F28D111E0F7
:100FE000154A826025E00822C26022E01022C26019
:100FF0001FE0082202611CE01022026119E00822B1
:10100000426016E01022426013E00422426010E0C9
:10101000042242600DE0042242600AE00022826164
:101020000422426005E0002282610422426000E066
:1010300000BF00BF704700000101010010B5002192
:10104000837A012202FA03F13D4A126842F001025A
:101050003B4B1A603A4A1C3212688A43384B1C33A5
:101060001A60027BCAB9364A0C3212688A43344B82
:101070000C331A604288C38842EA0343304A403244
:10108000847A42F834300288838842EA03432C4A47
:101090004032847A02EBC4025360027B012A19D1E8
:1010A000274A0C3212680A43254B0C331A604288D7
:1010B000038842EA0343224A4032847A42F83430B9
:1010C000C288838842EA03431D4A4032847A02EB95
:1010D000C4025360C27A3AB9194A121D12688A438F
:1010E000174B1B1D1A6006E0154A121D12680A43B1
:1010F000134B1B1D1A60028932B9114A143212684F
:101100008A430F4B14331A600289012A06D10C4A14
:10111000143212680A430A4B14331A60427B012AC4
:1011200006D1074A1C3212680A43054B1C331A6069
:10113000034A126822F00102014B1A6010BD000040
:101140000066004070B504460D46002660692840E0
:10115000002871D0B5F5807F5CD010DC082D35D02B
:1011600006DC012D20D0022D24D0042D72D127E0E1
:10117000102D31D0202D35D0402D6BD138E0B5F574
:10118000004F60D009DCB5F5007F49D0B5F5806F20
:101190004CD0B5F5006F5DD14FE0B5F5803F2DD057
:1011A000B5F5003F56D12FE0A0682D4900F05CFA5C
:1011B000064651E0E068032100F056FA06464BE08F
:1011C000E068082100F050FA064645E0E06810218A
:1011D00000F04AFA06463FE02069032100F044FA95
:1011E000064639E02069082100F03EFA064633E061
:1011F0002069102100F038FA06462DE060680821C9
:1012000000F032FA064627E06068102100F02CFA60
:10121000064621E0A069012100F026FA06461BE0FF
:10122000A069022100F020FA064615E0A069042119
:1012300000F01AFA06460FE00FE0A069702100F0F6
:1012400013FA064608E06068042100F00DFA06462D
:1012500002E0FFE7002600BF00E00026304670BD38
:10126000010101001AB143690B43436102E0436984
:101270008B434361704730B5024600200023146859
:1012800024F002041460146844F00104146000E0C7
:101290005B1C546804F001041CB94FF6FF74A342B0
:1012A000F6D1546804F001040CB900206CE08C798C
:1012B000012C04D1146844F08004146003E0146825
:1012C00024F080041460CC79012C04D1146844F01B
:1012D0004004146003E0146824F0400414600C7AA5
:1012E000012C04D1146844F02004146003E0146855
:1012F00024F0200414604C7A012C04D1146844F0CA
:101300001004146003E0146824F0100414608C7A54
:10131000012C04D1146844F00804146003E014683C
:1013200024F008041460CC7A012C04D1146844F031
:101330000404146003E0146824F0040414608C783E
:10134000A407CD7844EA05640D7944EA05444D7953
:1013500044EA05540D886D1E2C43D461146824F0B2
:1013600001041460002300E05B1C546804F00104D5
:101370001CB14FF6FF74A342F6D1546804F0010487
:101380000CB1002000E0012030BD10B500F5D8738D
:1013900003EB01131B6803F004031372137A53B9B0
:1013A00000F5D87303EB01131B6840F2FF7404EAE5
:1013B0005353136009E000F5D87303EB01131B6866
:1013C0006FF0604404EAD303536000F5D87303EB75
:1013D00001131B6803F00203537200F5D87303EB8B
:1013E00001135B6803F00F03937200F5D87303EBEE
:1013F00001135B681B0AD37400F5D87303EB011368
:101400009B68D37200F5D87303EB01139B681C0A29
:10141000147300F5D87303EB01139B681C0C547311
:1014200000F5D87303EB01139B681B0E937300F553
:10143000D87303EB0113DB68D37300F5D87303EBA8
:101440000113DB681C0A147400F5D87303EB011355
:10145000DB681C0C547400F5D87303EB0113DB68D4
:101460001B0E937421B9C36843F02003C36003E0EB
:10147000036943F02003036110BD10B5024600204C
:10148000936803F08063B3F1806F00D110E093683C
:1014900003F00063B3F1006F01D1012008E093680D
:1014A00003F08053B3F1805F01D1022000E00420FB
:1014B000042874D002F5C07303EB00131B6803F01B
:1014C000010402F5C07303EB00131C600B7A7BB9B7
:1014D0004B7A0C8843EA445302F5C07404EB0014C1
:1014E0002468234302F5C07404EB0014236010E069
:1014F0000B7A4C6843EAC4034C7A234302F5C07468
:1015000004EB00142468234302F5C07404EB0014B8
:1015100023608B7A03F00F038B7202F5C07303EB29
:1015200000135B6823F00F0402F5C07303EB001394
:101530005C6002F5C07303EB00135B688C7A234395
:1015400002F5C07404EB001463608B7B1C064B7BBC
:1015500044EA03440B7B44EA0323CC7A234302F599
:10156000C07404EB0014A3608B7C1C064B7C44EA23
:1015700003440B7C44EA0323CC7B234302F5C07471
:1015800004EB0014E36002F5C07303EB00131B6867
:1015900043F0010402F5C07303EB00131C6010BD9F
:1015A0000020014908707047EC00002010B5294860
:1015B0000068401C2749086027480078012811D19D
:1015C0002648007800F0020018B101202449087074
:1015D0000BE02248007800F0010030B100202049E3
:1015E000087002E000201E4908701A480068632154
:1015F000B0FBF1F201FB120050BB17480078012844
:1016000010D0022802D0032812D105E040F2BC71AC
:10161000144801F034FE0CE040F29C41114801F006
:101620002EFE06E04FF4FF710E4801F028FE00E0A8
:1016300000BF00BF0A48007800F0010010B140F27E
:101640004C4001E040F2EF100146064801F019FE5F
:1016500010BD0000F00000200B000020080000205A
:10166000EC000020000401400246002002EA0103D1
:101670000BB1012000E000207047000010B53B488E
:101680000068401C3949086000F004FF00F0A0FA2F
:1016900000F0D4F801F086F801F0FAF9FFF786FFC0
:1016A00032480068FFF7ACF9304800680B21B0FB06
:1016B000F1F201FB120008B900F04AFB2C48007857
:1016C000012804D0022818D0032842D12BE0274853
:1016D000006840F2E731B0FBF1F201FB120058B9AB
:1016E0002448006880F4804022490860224840690C
:1016F00080F080002049486136E01C48006840F2D4
:10170000F311B0FBF1F201FB120058B9194800685F
:1017100080F48040174908601748406980F08000D5
:101720001549486120E01148006840F24D11B0FBB6
:10173000F1F201FB120058B90E48006880F48040B5
:101740000C4908600C48406980F080000A494861F3
:101750000AE04FF480410748143800F0DEFA802197
:10176000054800F0D8FA00BF00BF10BDF800002007
:101770000B000020141402400010024003480088AF
:1017800040F0020001490880704700001A0802403A
:101790000348008840F002000149088070470000BB
:1017A000180802400348008840F0100001490880F2
:1017B000704700001A0802400348008840F01000FB
:1017C0000149088070470000180802401CB501213B
:1017D000042000F09BFD009840F00300009000986A
:1017E00040F03000009001208DF8040003208DF8B7
:1017F000050002208DF8070000208DF806006946DC
:101800000D4800F01DFA0C481A30008840F0010025
:1018100009491A3108800846008840F00200088013
:101820000846008840F0100008800846008840F014
:10183000200008801CBD00000008024000B50A48D6
:101840000078012804D0022803D0032803D101E046
:1018500008E007E006E0FFF791FFFFF7A3FF00F0C5
:1018600005F800BF00BF00BD0B0000200348008842
:1018700040F0200001490880704700001A0802402B
:101880000348008840F020000149088070470000AC
:101890001808024010B50749074800F0FBF838B1B6
:1018A0000449054800F00AF80249034800F020F80E
:1018B00010BD000000880010286002400246094B5D
:1018C0009A4201D2084801E00648103801F000535E
:1018D0001BB1064B0B40C36002E0044B0B4083601E
:1018E0007047000010640240006002407D0F7D0FD1
:1018F0000246094B9A4201D2084801E006481038D6
:1019000001F000531BB1064B0B40C36002E0044BD7
:101910000B4083607047000010640240006002408A
:101920007D0F7D0F21B1026842F00102026003E0E9
:10193000026822F00102026070470000016821F095
:10194000010101600021016041608160C1600161AD
:10195000212141614A49884204D13D21484A103A37
:1019600091608CE046491831884205D14FF474618A
:10197000434A103A916082E041493031884205D1B2
:101980004FF474113E4A103A916078E03C49483176
:10199000884205D14FF07461394A103A91606EE087
:1019A00037496031884204D13649354A103AD1600E
:1019B00065E033497831884204D13349304A103ADE
:1019C000D1605CE02E499031884204D12F492C4AE5
:1019D000103AD16053E02A49A831884205D14FF02E
:1019E0003D51274A103AD16049E02949884204D143
:1019F0003D21274A083A116041E0254918318842C3
:101A000005D14FF47461224A083A116037E0204949
:101A10003031884205D14FF474111D4A083A1160E3
:101A20002DE01B494831884205D14FF07461184AB6
:101A3000083A116023E016496031884204D1114907
:101A4000134A121F11601AE011497831884204D1FB
:101A50000D490F4A121F116011E00D499031884263
:101A600004D10A490A4A121F116008E00849A83146
:101A7000884204D14FF03D51054A121F1160704752
:101A8000106002403D000020400F002000003D207B
:101A90001064024070B50246002000240025124E5A
:101AA000B24201D2114B01E00F4B103B104E0E40E1
:101AB00036B11E2606EAD124166806EA040502E0BD
:101AC000566906F0800501F000560EB15C6800E032
:101AD0001C68084E344004EA010616B10DB101201D
:101AE00000E0002070BD0000106402400060024071
:101AF0003C0F3C0F7D0F7D0F10B501F080034BB103
:101B000022B1436943F08003436103E0436923F05A
:101B10008003436180290BD02AB1036801F01E04C1
:101B20002343036004E0036801F01E04A343036041
:101B300010BD000010B500220268134B1A40CC689B
:101B40000B6823434C6923438C692343CC692343AB
:101B50000C6A23434C6A23438C6A23434C6B234314
:101B60008C6B23431A430260426922F00702D1E9D9
:101B70000B3423431A4342610B6943604B68836013
:101B80008B68C36010BD00003F801CF070470000F0
:101B900010B54FF4FA610D4801F06DFB4FF4FA6196
:101BA0000A4801F06AFB4FF4FA7002F0EFFF4FF4BD
:101BB0007A71064801F05FFB4FF47A71034801F037
:101BC0005CFB4FF47A7002F0E1FF10BD00080040AA
:101BD00010B518480078022820D11748007800F086
:101BE000040028B140F2DC51144801F044FB04E049
:101BF0004FF47A71114801F03EFB0F48007800F075
:101C0000080028B140F2DC510C4801F036FB0FE02F
:101C10004FF47A71094801F030FB09E04FF47A7112
:101C2000064801F028FB4FF47A71044801F023FBC9
:101C300010BD00000B00002008000020000800403C
:101C4000F0B50A4600210023002400BF3DE0012535
:101C500005FA01F3156805EA03049C4234D10568CE
:101C60004F000326BE40B543056015794E00B540D0
:101C70000668354305601579012D02D01579022DCE
:101C800016D185684F000326BE40B543856055795F
:101C90004E00B540866835438560456801268E4014
:101CA000B5434560456896798E40B6B23543456088
:101CB000C5684F000326BE40B543C560D5794E00C8
:101CC000B540C6683543C560491C1029BFD3F0BD77
:101CD000F0B5002300244D07ED0E02FA05F3CE10F7
:101CE00000F1200555F826504E07F70E0F26BE408E
:101CF000B543CF1000F1200646F82750CE1000F172
:101D0000200555F8265045EA0304CE1000F12005C1
:101D100045F82640F0BD418370470183704700BFFE
:101D2000FEE710B545F2555000F02AF8032000F008
:101D30001BF84FF47A7000F01DF800F001F810BDA8
:101D40004CF6CC400149086070470000003000406C
:101D500010B500F001F810BD4AF6AA20014908604C
:101D600070470000003000400149486070470000A3
:101D7000003000400149886070470000003000409A
:101D800001490860704700000030004010B5094864
:101D90000068401C07490860012007490870054891
:101DA00000680B21B0FBF1F201FB120008B9FFF74C
:101DB000CFFF10BDF4000020FE0000201CB5012163
:101DC000302000F0A3FA4FF48040009001208DF8FD
:101DD000040000208DF8060003208DF80500012086
:101DE0008DF8070069460948FFF72AFF8020009018
:101DF00069460748FFF724FF4FF480410348FFF787
:101E00008CFF80210248FFF786FF1CBD00140240B2
:101E1000001002402DE9F04105460C461646002010
:101E20000A49086045F0800000F008FE002706E03F
:101E3000FF2000F003FE2070641C781CC7B2B7427C
:101E4000F6DB012001490860BDE8F081988242423A
:101E500000B52DED048B85B00E2201A93B20FFF7C4
:101E6000D9FF9DF80400000200B29DF80510084358
:101E7000584908800846B0F9000000EE100AB8EE94
:101E8000C00ADFED550A80EE201A544880ED001A92
:101E90009DF80600000200B29DF8071008434D4966
:101EA00048800846B0F9020000EE100AB8EEC00AF9
:101EB000DFED490A80EE201A484880ED011A9DF8AE
:101EC0000800000200B29DF80910084341498880CB
:101ED0000846B0F9040000EE100AB8EEC00ADFEDC3
:101EE0003E0A80EE201A3D4880ED021A9DF80A0055
:101EF000000200B29DF80B1008433649C880B1F9C2
:101F00000600FEF73EFA41EC190B9FED350B53EC42
:101F1000102BFEF755F941EC180BFEF76FFA2F491D
:101F2000C8609DF80C00000200B29DF80D10084337
:101F3000284908810846B0F9080000EE100AF8EEBA
:101F4000C00A9FED291A80EE810A2848D0ED000AC8
:101F500030EE600A214880ED040A9DF80E00000270
:101F600000B29DF80F1008431A4948810846B0F99D
:101F70000A0000EE100AB8EEC00ADFED1B0A80EE80
:101F8000201A1B4890ED000A31EE400A134880EDFC
:101F9000050A9DF81000000200B29DF811100843D8
:101FA0000C4988810846B0F90C0000EE100AB8EE22
:101FB000C00ADFED0D0A80EE201A0E4890ED000AEF
:101FC00031EE400A054880ED060A05B0BDEC048BF1
:101FD00000BD0000B402002000008046C4020020C2
:101FE000000000000000F03F0000EB443001002042
:101FF000340100203801002000BFFEE70020014925
:10200000087070470B0000207047000070B5002179
:1020100000230F22C4781CB3174C246804F4E06436
:10202000C4F5E064C4F30721C1F10404E3B20A413A
:1020300044789C40E1B28478144021430C07210E7F
:102040000E4C05786155047804F01F050124AC405E
:1020500005786D11AD0005F1E025C5F8004109E0F6
:10206000047804F01F050124AC40054D0678761174
:1020700045F8264070BD00000CED00E000E400E0F3
:1020800080E100E0024601208840104008B10120B4
:1020900070470020FCE7000030B504460D469FED78
:1020A0005A0AF0EE401A94F836000021FFF7EAFFD2
:1020B00010B1204600F0D4F894F834000521FFF761
:1020C000E1FF68BB206B281A00EE100AB8EE400A48
:1020D000DFED4E2A60EE220A256394F836000121D6
:1020E000FFF7D0FF30B194F8360020F0020084F8FA
:1020F000360030BD94F834000621FFF7C3FFB8B1B5
:1021000094ED070AB4EEE00AF1EE10FA10D29FED5A
:102110003E0A84ED090A84ED0A0A84ED0B0AE8E719
:1021200000EE105AB8EE400ADFED382A60EE220ABF
:1021300094F834000321FFF7A5FF00285FD094ED49
:10214000000AD4ED012A30EE621A94F8340000211E
:10215000FFF798FF38B1D4ED022AB0EE610A02EE23
:10216000810AF0EE401A94F834000121FFF78AFF4B
:1021700048B394ED0B0A01EE200A84ED0B0A94EDAE
:102180000B0AD4ED062AB4EEE20AF1EE10FA03DDF2
:1021900094ED060A84ED0B0A94ED0B0AD4ED052AA2
:1021A000B4EEE20AF1EE10FA03D294ED050A84EDE2
:1021B0000B0AD4ED032A94ED0B3AB0EE610A02EE5D
:1021C000830AF0EE401A94F834000221FFF75AFF18
:1021D000A8B194ED090AD4ED0A2A30EE620A80EE25
:1021E000202A94ED090A84ED0A0A84ED091AD4ED37
:1021F000042AB0EE610A02EE820AF0EE401AC4ED43
:10220000081A00BF75E7000000000000BD378635E2
:1022100030B5F0EE403AB0EE604A04460D46C4EDEB
:10222000003A84ED014A29462046FFF735FF94ED38
:10223000080AF0EE404AB0EE640A30BD183000EDF6
:10224000040A40ED030A00ED021A40ED011A80ED88
:10225000002A002101774177817718387047000004
:1022600030B5034613F8340F597880EA010413F8A7
:10227000340900EA040503212046FFF703FF98B163
:102280009FED200A83ED090A83ED0A0A83ED0B0A0C
:1022900003212846FFF7F6FE50B393F8360040F0CE
:1022A000020083F8360023E001212046FFF7EAFE12
:1022B00070B101212846FFF7E5FE48B193F83400DC
:1022C0000421FFF7DFFE18B99FED0E0A83ED0B0A1C
:1022D00002212046FFF7D6FE50B102212846FFF723
:1022E000D1FE28B19FED070A83ED090A83ED0A0AA2
:1022F000343358781870987820F001009870343B87
:1023000030BD0000000000007047000029B1064AFF
:1023100012680243044B1A6004E0034A12688243C5
:10232000014B1A60704700003038024029B1064A5C
:1023300012680243044B1A6004E0034A12688243A5
:10234000014B1A60704700004038024029B1064A2C
:1023500012680243044B1A6004E0034A1268824385
:10236000014B1A60704700002038024029B1064A2C
:1023700012680243044B1A6004E0034A1268824365
:10238000014B1A60704700004438024029B1064AE8
:1023900012680243044B1A6004E0034A1268824345
:1023A000014B1A607047000024380240F0B500214C
:1023B00000220024022500260223324F3F6807F046
:1023C0000C0121B1042905D0082937D105E02E4F91
:1023D000076036E02D4F076033E02A4F3F1F3F680C
:1023E000C7F38056274F3F1F3F6807F03F036EB18A
:1023F000264FB7FBF3F7DFF88CC0ACF1040CDCF828
:1024000000C0CCF3881C07FB0CF40CE01E4FB7FB9C
:10241000F3F7DFF870C0ACF1040CDCF800C0CCF3CB
:10242000881C07FB0CF4174F3F1F3F68C7F3014799
:102430007F1C7D00B4FBF5F7076002E0124F0760D8
:1024400000BF00BF0F4F3F6807F0F0010909104FB0
:102450007A5C0768D74047600A4F3F6807F4E0514D
:10246000890A0B4F7A5C4768D7408760054F3F6801
:1024700007F46041490B064F7A5C4768D740C76054
:10248000F0BD0000083802400024F400001BB70033
:102490008401002008480078084908700648407800
:1024A0000749087004488078064908700248C078D7
:1024B0000549087070470000000000200B00002054
:1024C000090000200A0000200800002003480088BE
:1024D00020F0020001490880704700000C00002035
:1024E0000348008820F00200801C014908807047E2
:1024F0000C0000200348008820F00100401C014926
:10250000088070470C0000200348008820F001007C
:1025100001490880704700000C00002010B52DED27
:10252000028BF0EE408AB0EE608AB3EE040AF4EE5D
:10253000C08AF1EE10FA06DCBBEE040AF4EEC08AA3
:10254000F1EE10FA11D24FF47A713148314AB2F9F2
:10255000002000EE102AF8EEC00AB0EE680AFFF77D
:1025600057FE2D4880ED000A04E09FED2C0A2A4812
:1025700080ED000AB3EE040AB4EEC08AF1EE10FA60
:1025800006DCBBEE040AB4EEC08AF1EE10FA11D2FA
:102590004FF47A712248234AB2F9002000EE102A43
:1025A000F8EEC00AB0EE480AFFF732FE1E4880ED92
:1025B000000A04E09FED190A1B4880ED000ADFEDD8
:1025C0001B0A154890ED000A00F0D4F8124880ED7F
:1025D000000ADFED160A144890ED000A00F0CAF870
:1025E000114880ED000A90ED000ABDEEC00A10EE21
:1025F000100A01B2084890ED000ABDEEC00A10EEC4
:10260000100A00B2FEF776FCBDEC028B10BD000094
:10261000980100201C010020200000200000000084
:10262000D00100201E0100202400002000803B4536
:1026300010B52DED068BB0EE408AF0EE608A38EED4
:10264000680A10EE101A0846FDF7ACFE41EC1A0BB2
:10265000B0EE4A0AF0EE6A0A01F086F9B0EE409A4E
:10266000F0EE609A9FED070B53EC102B51EC190B19
:10267000FDF7ACFE03D20120BDEC068B10BD00209F
:10268000FAE70000000000000000494010B5DFED4F
:10269000282A9FED282ADFED281A9FED251ADFED65
:1026A000240AB7EE080A2548FFF7C8FD2F21234862
:1026B00000F024FADFED1E2A9FED1E2ADFED1E1A20
:1026C0009FED1B1ADFED1A0AB7EE080A1C48FFF748
:1026D000B5FD2F211A4800F011FADFED152A9FED04
:1026E000152ADFED151A9FED121AF7EE080AB0EE63
:1026F000040A1448FFF7A2FD2F21124800F0FEF94A
:102700001148008820F001000F4908800846008821
:1027100020F0020008800846008820F004000880AD
:102720000846008820F07800088000F00BF910BD02
:102730000000000000004843000048C3980100204A
:10274000D0010020080200200C0000200849097870
:10275000C1F3C301481C00EBD0714910A0EB41014B
:10276000034A128861F3C60201490A8070470000DB
:102770000C000020B0EE401AB1EE600AB4EEC01AB0
:10278000F1EE10FA02D2B1EE600A7047B4EEE01A30
:10279000F1EE10FA02DDB0EE600AF6E7B0EE410AA3
:1027A000F3E7000010B51B480078022800D106E0CE
:1027B0001948008820F001001749088000BF00BFB9
:1027C00015480078C0F3800070B11448D0ED000ABD
:1027D000134890ED000AFFF72BFF28B10E48008840
:1027E00020F004000C4908800B480078C0F3C300B7
:1027F0000C4901EB800090ED000A094880ED000AC9
:10280000064890ED000A084880ED000A00F00EF836
:1028100010BD00000B0000200C000020140100205F
:1028200014000020F84F00081C00002010B52DED0A
:10283000028B394890ED000A3848D0ED000A30EE9E
:10284000600AB0EE408AB2EE040AB4EEC08AF1EE3D
:1028500010FA06DCBAEE040AB4EEC08AF1EE10FA01
:102860002AD29FED2F0AB4EEC08AF1EE10FA02DDF3
:102870009FED2B0A0BE09FED2B0AB4EEC08AF1EE20
:1028800010FA02D29FED270A01E0B0EE480AB0EE3E
:10289000408A2248D0ED000A70EE880AB0EE600A45
:1028A0004FF4FA6120481D4AD2ED000AFFF7B0FC50
:1028B0001E4880ED000A04E09FED1D0A1B4880EDD4
:1028C000000A1C48007800F0010048B1194800785F
:1028D000C0F3400008B1184803E04FF4966000E0F0
:1028E000002000EE100AB8EEC00A144880ED000A7D
:1028F000DFED130A0D4890ED000AFFF73BFF0B4890
:1029000080ED000AD0ED000A0C4890ED000AFFF7B8
:1029100005FEBDEC028B10BD140000201401002048
:1029200000409C4500409CC5080200202400002077
:10293000000000000C00002050FBFFFF20000020E2
:1029400000401C4610B500210846FEF7D3FA10BD22
:102950001CB500243548006840F020003349086069
:1029600032481430006840F4801030491431086057
:102970004FF46070009002208DF8040000208DF864
:10298000060001208DF8070003208DF80500694638
:102990002748FFF755F9052207212548FFF798F941
:1029A000052208212248FFF793F905220921204832
:1029B000FFF78EF94020009001208DF804000020E0
:1029C0008DF8060001208DF8070003208DF8050022
:1029D00069461748FFF734F9012016490860134883
:1029E0000C38006840F4801010490C390860084623
:1029F000006820F48010086000BF44F0040444F430
:102A0000807400BF44F0020444F0010444F40074F4
:102A100044F0380400BF44F0400407480480808B31
:102A200020F40060044988831CBD00003038024057
:102A300000140240988242420050014002460021A8
:102A400006E0481C81B2B1F5167F01DD0020704719
:102A50000D48008900F002000028F2D00A48828167
:102A6000002106E0481C81B2B1F5167F01DD00208F
:102A7000EDE70548008900F001000028F2D0024887
:102A80008089C0B2E3E70000005001407047704702
:102A900010B51748007803281FD11648007800F0B9
:102AA000020050B140F22621134800F0E8FB40F646
:102AB0009211114800F0E5FB19E00E48007800F093
:102AC0000100A0B14FF491610B4800F0D8FB4FF426
:102AD000C861094800F0D5FB09E04FF49161064850
:102AE00000F0CDFB4FF4C861034800F0CAFB10BDF5
:102AF0000B000020080000200008004000F8351FEF
:102B0000427842F001024270353870470CB500201F
:102B1000019000903448006840F4803032490860E9
:102B200000BF3148006800F4003000900198401C5C
:102B30000190009818B90198B0F5A06FF1D12A481A
:102B4000006800F4003010B10120009001E0002086
:102B500000900098012846D123484030006840F09A
:102B600080502149403108602048006840F480408E
:102B70001E4908601C48083000681B49083108607D
:102B80000846006840F4004008600846006840F4C9
:102B9000A05008601648091F0860081F006840F030
:102BA0008070091F086000BF0F48006800F00070C7
:102BB0000028F9D040F205600E4908600A48083044
:102BC000006820F0030008490831086008460068E2
:102BD00040F00200086000BF03480830006800F0C1
:102BE0000C000828F8D10CBD0038024000700040ED
:102BF0000C544007003C0240042808D14FF0E0216B
:102C0000096941F004014FF0E022116107E04FF043
:102C1000E021096921F004014FF0E02211617047C1
:102C20007047000010B51548006840F47000134963
:102C300008601348006840F0010011490860002056
:102C40000F49083108600E4800680E4908400C49D9
:102C500008600D48091D0860081F006820F48020E6
:102C6000091F0860002006490C310860FFF74EFF7D
:102C70004FF0006001498039086010BD88ED00E028
:102C800000380240FFFFF6FE1030002410B501218D
:102C9000880700F08BF9012801D101F0F5FF01212F
:102CA000880700F065F910BD1FB501210846FFF740
:102CB0003DFB4FF47A7002905320ADF804000020E1
:102CC000ADF80600ADF80C0001A94FF0804000F00F
:102CD000DBFA01221146900700F079F901218807FB
:102CE00000F049F91C208DF8000000208DF801004B
:102CF00001208DF802008DF803006846FFF786F981
:102D00001FBD000000B58BB001210420FFF70EFBB2
:102D100001210820FFF7FAFA02220C213648FEF7BB
:102D2000D7FF02220D213448FEF7D2FF02220E21E6
:102D30003148FEF7CDFF02220F212F48FEF7C8FFD2
:102D40004FF47040099002208DF828008DF829007A
:102D500000208DF82A0001208DF82B0009A92648B3
:102D6000FEF76EFF5320ADF8180044F61F60079081
:102D70000020ADF81A00ADF8200006A91F4800F0A9
:102D800083FA6020ADF804000120ADF806000020B1
:102D9000ADF81000039001A9184800F021F901A92D
:102DA000164800F065F94FF49160039001A91348AB
:102DB00000F0BEF94FF4C860039001A90F4800F07D
:102DC00011FA08210D4800F049F908210B4800F0DC
:102DD000A1F90821094800F0FBF90821074800F093
:102DE0003DFA0121054800F0B7F80121034800F041
:102DF000C2F80BB000BD0000000C0240000800400B
:102E000010B50121084800F0D1F8012807D1074882
:102E1000007810B9FEF7BAFF01E0FEF72FFC0121A0
:102E2000014800F0A5F810BD000C0040FE00002095
:102E30001FB501210820FFF779FA4FF47A7002904C
:102E40005320ADF804000020ADF80600ADF80C00EA
:102E500001A90D4800F018FA012211460A4800F0B5
:102E6000B6F832208DF8000000208DF80100012016
:102E70008DF802008DF803006846FFF7C7F80121BE
:102E8000014800F078F81FBD000C004000B58BB081
:102E900001210220FFF76AFA01210802FFF736FA42
:102EA000032207212A48FEF713FF032202212848A4
:102EB000FEF70EFF8420099002208DF828008DF87F
:102EC000290000208DF82A0001208DF82B0009A987
:102ED0001F48FEF7B5FEA720ADF8180044F61F60A6
:102EE00007900020ADF81A00ADF8200006A9194897
:102EF00000F0CAF96020ADF804000120ADF806002A
:102F00000020ADF810004FF4FF70039001A91148A4
:102F100000F00EF940F2EF10039001A90D4800F007
:102F200061F908210B4800F053F90821094800F025
:102F300095F90121074800F00FF80121054800F03C
:102F400026F80121034800F016F80BB000BD000080
:102F5000002002400004014021B1028842F08002BA
:102F6000028004E002884FF67F731A4002807047A7
:102F7000CA430282704721B1028842F001020280F6
:102F800004E002884FF6FE731A400280704731B1A8
:102F9000B0F8442042F40042A0F8442005E0B0F824
:102FA0004420C2F30E02A0F84420704730B5024618
:102FB000002000230024158A05EA0103958905EA0B
:102FC000010413B10CB1012000E0002030BD1AB1A2
:102FD00083890B43838102E083898B43838170471C
:102FE00070B5002400220023058C4FF6FE76354094
:102FF0000584028C8388048B4FF68F752C40B51E98
:103000002C400D882C43751E2A408D892A434D88FB
:103010002A43104DA84202D00F4DA84213D14FF6BB
:10302000F7752A40CD892A434FF6FB752A408D88D3
:103030002A434FF6FF652B404FF6FF552B400D8A74
:103040002B434D8A2B43838004838D684563028420
:1030500070BD000000000140000401400A4600214C
:10306000018B4FF6F773194011430183704700003D
:1030700070B5002400220023058C4FF6EF76354012
:103080000584028C8388048B48F6FF752C404FF62C
:10309000FF452C400D884FF6FF7606EA05252C43A8
:1030A0004FF6DF752A408D8906EA05152A434D88BB
:1030B00006EA05152A43154DA84202D0144DA84230
:1030C0001DD14FF67F752A40CD894FF6FF7606EA6F
:1030D00005152A434FF6BF752A408D8806EA051567
:1030E0002A434FF6FF352B404FF2FF752B400D8AD8
:1030F00006EA85052B434D8A06EA85052B43838026
:1031000004838D688563028470BD00000000014067
:10311000000401400A460021018B4FF2FF73194061
:103120004FF6FF7303EA022319430183704700003F
:1031300070B5002400220023058C4FF6FF66354051
:103140000584028C8388848B4FF68F752C404FF654
:10315000FC752C400D882C434FF6FF552A408D8975
:103160004FF6FF7606EA05252A434D8806EA05252F
:103170002A43154DA84202D0144DA8421DD14FF24A
:10318000FF752A40CD894FF6FF7606EA05252A43CA
:103190004FF6FF352A408D8806EA05252A434EF66C
:1031A000FF752B404DF6FF752B400D8A06EA05157D
:1031B0002B434D8A06EA05152B43838084838D6853
:1031C000C563028470BD000000000140000401409E
:1031D0000A460021818B4FF6F77319401143818312
:1031E0007047000070B5002200230024058C4EF6C5
:1031F000FF7635400584038C8488828B48F6FF7502
:103200002A404FF6FF452A400D884FF6FF7606EA22
:1032100005252A434DF6FF752B408D8906EA0535B5
:103220002B434D8806EA05352B430A4DA84202D0B0
:10323000094DA84208D14BF6FF752C400D8A4FF678
:10324000FF7606EA85152C43848082838D680564A9
:10325000038470BD00000140000401400A460021C3
:10326000818B4FF2FF7319404FF6FF7303EA02237D
:103270001943818370474163704781637047C1631D
:10328000704701647047000000220288184B984282
:103290000ED0184B98420BD0B0F1804F08D0164B8F
:1032A000984205D0154B984202D0154B984204D154
:1032B0004FF68F731A404B881A43124B984207D02F
:1032C000114B984204D04FF6FF431A400B891A4322
:1032D00002804B68C3620B880385054B984202D07D
:1032E000044B984201D18B7A038601238382704775
:1032F00000000140000401400004004000080040BC
:10330000000C0040001000400014004000B58FB0D9
:1033100001214248FEF7FAFF01218804FFF706F871
:10332000072208213E48FEF7D3FC072209213C482A
:10333000FEF7CEFC4FF440700D9002208DF838005F
:1033400000208DF83A0003208DF8390000208DF818
:103350003B000DA93248FEF773FC324800F030F90B
:103360004FF4E13009900020ADF82800ADF82A00B4
:10337000ADF82C000C20ADF82E000020ADF8300088
:1033800009A9284800F0C6F90121264800F003F9F0
:1033900001224021234800F00AF90C208DF8380062
:1033A00002208DF8390003208DF83A0001208DF8B5
:1033B0003B000EA8FEF72AFE1B48FEF7BFFA4FF0AF
:1033C000006000901748001D0190184802900020EE
:1033D000039032200490002005904FF48060069006
:1033E0000020079008904FF4807009904FF440300F
:1033F0000A9000200B900C900D900E9069460A48A0
:10340000FEF798FB012210210748FEF775FB01210A
:103410000548FEF787FA0FB000BD00000800200045
:10342000000C02400048004028600240A803002031
:1034300010B588B0044601214020FEF767FF012146
:103440002020FEF793FF08220E212448FEF740FCBF
:10345000082209212148FEF73BFC4FF484400690E6
:1034600002208DF81C008DF81D0000208DF81E0034
:1034700001208DF81F0006A91848FEF7E1FB029411
:103480000020ADF80C00ADF80E00ADF81000ADF85E
:1034900014000C20ADF8120002A9114800F03AF90E
:1034A00001210F4800F077F840210D4800F06AF83C
:1034B000012240F225510A4800F006F947208DF814
:1034C000040003208DF805008DF8060001208DF81A
:1034D000070001A8FEF79AFD08B010BD00180240D1
:1034E0000014014010B540F22551214800F0C2F807
:1034F00000283BD01E4800F077F9C4B21D48047084
:1035000001201D4908701D48008800F4004068BB78
:103510001A48008800F4804070B10A2C03D00020C3
:103520001649088022E001201449088008460088D6
:1035300040F40040088019E00D2C06D10F480088A7
:1035400040F480400D49088010E00C480088C0F32A
:103550000D000B490C5409480088401C074908809D
:1035600008460088C72801DD0020088010BD000043
:1035700000140140400100204101002048010020CA
:10358000E002002001F40072B2F5007F00D100BF1C
:10359000CA430280704721B1828942F4005282817D
:1035A00004E082894DF6FF731A40828170471AB198
:1035B000838A0B43838202E0838A8B438382704732
:1035C00010B504462548844208D101211020FEF799
:1035D000DDFE00211020FEF7D9FE3EE020488442A7
:1035E00009D101214804FEF7B1FE00214FF400305B
:1035F000FEF7ACFE31E01B48844209D1012188046A
:10360000FEF7A4FE00214FF48020FEF79FFE24E089
:103610001548844209D10121C804FEF797FE002114
:103620004FF40020FEF792FE17E01048844209D1C3
:1036300001210805FEF78AFE00214FF48010FEF7F5
:1036400085FE0AE00A48844207D101212020FEF7C6
:103650009DFE00212020FEF799FE10BD00100140C4
:103660000044004000480040004C00400050004032
:103670000014014070B502460024002300250020FC
:1036800040F66A16B14200D100BFC1F3421501F005
:103690001F03012606FA03F3012D02D19689334058
:1036A00006E0022D02D1168A334001E0968A3340AB
:1036B0000C12012606FA04F41688344013B10CB13A
:1036C000012000E0002070BDF0B503460024002674
:1036D0000025002040F66A17B94200D100BF184605
:1036E000C1F3421401F01F06012707FA06F5012C69
:1036F00001D10C3004E0022C01D1103000E0143074
:103700001AB107682F43076002E00768AF430760FC
:10371000F0BD00002DE9FF4705460E460024A146F6
:1037200000BFA046B08900B100BF2C8A24F44054E9
:10373000F08804432C82AC8941F20C608443B08849
:1037400031890843718908430443AC81AC8A24F46D
:103750004074B0890443AC826846FEF727FE2048D7
:10376000854202D01F48854202D1DDF80C9001E06D
:10377000DDF80890A88900F4004040B109EBC900C9
:1037800000EB091031684900B0FBF1F707E009EBE5
:10379000C90000EB091031688900B0FBF1F7642023
:1037A000B7FBF0F004012009642101FB1078A8891F
:1037B00000F4004040B1322000EBC800B0FBF1F053
:1037C00000F00700044308E0322000EB08106421F9
:1037D000B0FBF1F000F00F0004432C81BDE8FF873F
:1037E000001001400014014001468888C0F3080021
:1037F000704700BFFEE7000010B5FDF7E7FFFEF7DA
:10380000C7F9FEF743FFFFF742F9FDF7C9FEFEF7E0
:1038100088FAFEF7F3FBFDF7A8F808A000F018F807
:1038200040F2DC510948FFF726FD4FF4FA7001F031
:10383000ADF900210548FFF71EFD10BD48656C6C11
:103840006F20776F726C64210D0A00000004004045
:103850000FB4054B10B503A9044A029800F0E0FD2F
:1038600010BC5DF814FB0000294C00084401002046
:1038700003B401984100009850EAC12018BF042009
:103880004A0D18BF40F0010040F2FF72B2EB515FE9
:1038900008BF40F00200012808BF052002B07047B1
:1038A00010B52F499FED2C1B2DED020B84B0059810
:1038B00020F000408842D8BF9DED040B2DDD294942
:1038C000884209D1049840B94FF0010000F0E0FCB3
:1038D00000F0AEFC06B010BD05DB9DED040B00F062
:1038E0009BFC06B010BD68469DED040B00F0ACF8E3
:1038F00010F0030004BF9DED021B9DED000B0CD0EA
:1039000001280ED09DED021B9DED000B022817D063
:10391000012000F0E9FB06B010BD00F0B1FA06B0DE
:1039200010BD9DED021B9DED000B012000F0DCFBA6
:1039300051EC100B81F0004106B041EC100B10BDB2
:1039400000F09EFA51EC100B81F0004106B041EC02
:10395000100B10BD0000000000000000000000007F
:10396000FB21E93F0000F07F2DED020B019820F0D4
:10397000004001909DED000B02B070470000000078
:1039800010B52F499FED2C1B2DED020B84B005982F
:1039900020F000408842DCBF00209DED040B32DDAA
:1039A0002849884209D1049840B94FF0010000F03D
:1039B0006FFC00F03DFC06B010BD05DB9DED040B77
:1039C00000F02AFC06B010BD68469DED040B00F027
:1039D0003BF810F0030011D0012818D09DED021B18
:1039E0009DED000B02281AD000F04AFA51EC100BA2
:1039F00081F0004106B041EC100B10BD9DED021BA3
:103A00009DED000B012000F06FFB06B010BD9DED99
:103A1000021B9DED000B00F033FA06B010BD012033
:103A200000F062FB51EC100B81F0004106B041EC5C
:103A3000100B10BD0000000000000000000000009E
:103A4000FB21E93F0000F07F2DE9F14F04462DED09
:103A5000020B2DED088B8AB09FEDE70B80ED020B7A
:103A6000139EE74826F0004585420ADC9DED120BC7
:103A7000002084ED000B0AB0BDEC088B03B0BDE85C
:103A8000F08FE0489FEDE0AB9FEDE1BBA84247DD42
:103A9000E14F9FEDE39B9FEDE48B9DED120B53EC0B
:103AA0001A2B51EC100B002E1CDDFCF73FFE41ECF5
:103AB000100BBD4208D053EC1B2B51EC100BFCF744
:103AC00035FEC4E900010BE053EC192B51EC100B4F
:103AD000FCF72CFE53EC182BFCF728FEC4E9000180
:103AE0000120C8E7FCF781FD41EC100BBD4208D076
:103AF00053EC1B2B51EC100BFCF777FDC4E90001D4
:103B00000BE053EC192B51EC100BFCF76EFD53EC52
:103B1000182BFCF76AFDC4E900014FF0FF30AAE75B
:103B2000C348A84279DB9DED120B51EC100B01F05C
:103B30006FF841EC180B9FEDC00B53EC102BFCF70A
:103B40003FFB9FEDBF1B53EC112BFCF74EFDFCF729
:103B500073FE0746FCF715FC41EC190B53EC1A2BCE
:103B6000FCF72EFB53EC182BFCF7E3FD41EC180B94
:103B700053EC1B2B51EC190BFCF722FBDFF8C8A20E
:103B800041EC100B4FEA15580125FA4453EC102B69
:103B900051EC180BFCF7CAFD032DC4E900013DD020
:103BA000C1F30A5005EB4511A8EB00001139814221
:103BB00034DA0AEB051BB0EE48AA9BED000BF0EEE1
:103BC00068AA53EC102B51EC190BFCF7F9FA41ECF5
:103BD0001B0B51EC1A0B53EC1B2BFCF7A7FD41EC14
:103BE000180B51EC1A0B53EC182BFCF79FFD53EC00
:103BF0001B2BFCF79BFD9BED020B41EC1A0B53ECCE
:103C0000102B51EC190BFCF7DBFA53EC1A2BFCF7D9
:103C10008DFD41EC100B6D1CB8E70EE0002EA8BF27
:103C20003846BFF628AF94ED000B51EC100B81F035
:103C30000041C4E9000178421DE7C6F3130040F4D7
:103C4000801EC6F30A50A0F2F530471100F01F05A0
:103C5000C5F12000DDF848B00890002006900790DC
:103C60000520EC467949002D07EB0002794408BF96
:103C700051F8221009D051F8223001EB8201AB40FB
:103C80004A68089922FA01F11943A1FB0E26A1FB0B
:103C90000B131A449A4234BF0123002303EB060896
:103CA0000CEB8003D3E901A60E448E4234BF012100
:103CB000002192448A4411B1924502D903E0924511
:103CC00001D2012100E00021C3E901A641444CF8E2
:103CD0002010011EA0F10100C4DC029800F1005088
:103CE000850F0298DDE903678000DDF81480FCF79A
:103CF00048FB41EC1A0B3046FCF791FD9FED541B3D
:103D000053EC112BFCF75CFA41EC1B0B3846FCF72B
:103D100086FD9FED511B53EC112BFCF751FA41EC42
:103D2000180B4046FCF77BFD9FED4D1B53EC112B10
:103D3000FCF746FA41EC190B51EC180B53EC192B1C
:103D4000FCF753FC53EC1B2BFCF74FFC53EC1A2BEA
:103D5000FCF74BFCCDE90801002008909DED080B15
:103D600053EC1A2B51EC100BFCF7E0FC53EC1B2B23
:103D7000FCF7DCFC53EC182BFCF7D8FC53EC192BAC
:103D8000FCF7D7FC9FED381B53EC112BFCF718FA0E
:103D90009FED370B41EC180B53EC102B9DED080BEE
:103DA00051EC100BFCF70CFA53EC182BFCF71DFC34
:103DB0009FED310B41EC180B53EC102B9DED080BD4
:103DC00051EC100BFCF7FCF953EC182BFCF70DFC35
:103DD00041EC100B139810F0004F06D06D4251ECDF
:103DE000100B81F0004141EC100B284684ED000BD4
:103DF00041E600000000000000000000000000009C
:103E0000FB21E93F7CD9024000004054FB21F93FEF
:103E10003163621A61B4D03DFB21F93F000000001C
:103E20000000601A61B4D03D7370032E8A19A33B61
:103E3000FB2139410000000083C8C96D305FE43FB9
:103E4000000000000000E03FA2140000F01300009A
:103E5000000000000000103E000000000000103CC8
:103E6000000000000000103A182D4454FB21F93DD9
:103E70003326A611460B113C00000054FB21F93DEE
:103E800010B52DED040B2DED088B82B0B0EE419AEC
:103E9000F0EE619A0B9820F000449FED4BABB4F12B
:103EA000795F11DA9DED0A0B51EC100BFCF7C4FCA5
:103EB000002801BFB0EE4A0AF0EE6A0A02B0BDEC7B
:103EC000088B04BF04B010BD9DED0A0B53EC102B02
:103ED00051EC100BFCF774F941EC180B3C4806212F
:103EE000B0EE480AF0EE680A784400F081F853EC2E
:103EF000182B51EC100BFCF763F99DED0A0B41EC0C
:103F00001B0B53EC192B51EC100BFCF759F941EC3E
:103F1000190B53EC1B2B51EC180BFCF751F953EC1C
:103F2000192BFCF703FC9FED2C0B41EC190B53EC08
:103F3000102B51EC180BFCF743F941EC100B2848FF
:103F4000844210DA53EC192B51EC100BFCF7EEFB0A
:103F500053EC1A2BFCF7EDFB41EC100B02B0BDEC5F
:103F6000088B04B010BD1F48A042BCBF9FED1E1BB4
:103F70008DED001B06DBA4F50010019000200090E1
:103F80009DED001B51EC100B53EC112BFCF7CEFBFD
:103F90009DED000B41EC180B53EC102B51EC1A0B60
:103FA000FCF7C4FB41EC1A0B53EC192B51EC180B2A
:103FB000FCF7BCFB53EC1A2BFCF7BBFB41EC100BE2
:103FC000CCE7000000000000000000000000F03F0F
:103FD0001411000000000000000000000000E03F9D
:103FE0003333D33F0000E93F000000000000D23F20
:103FF00070B504462DED028B4D1E00EBC500B0EEF2
:10400000408AF0EE608A90ED000B35F0060017D084
:1040100053EC182B51EC100BFCF7D2F841EC100BC1
:104020006D1E04EBC50090ED001B51EC100B53EC22
:10403000112BFCF7DAFA41EC100B35F00600E7D152
:10404000022D36D0042D1CD0062D1CBFBDEC028BDA
:1040500070BD53EC182B51EC100BFCF7B1F894ED3C
:104060000A1B53EC112BFCF7C0FA53EC182BFCF78E
:10407000A7F894ED081B53EC112BFCF7B6FA41ECB2
:10408000100B53EC182B51EC100BFCF799F894ED36
:10409000061B53EC112BFCF7A8FA53EC182BFCF77A
:1040A0008FF894ED040B53EC102BFCF79EFA41ECC7
:1040B000100B53EC182B51EC100BFCF781F894ED1E
:1040C000021B53EC112BFCF790FA53EC182BFCF766
:1040D00077F894ED001B53EC112BFCF786FABDEC3E
:1040E000028B41EC100B70BD31B504462DED040B75
:1040F0002DED0A8BB0EE41BAF0EE61BA0B989DED52
:104100000A0B20F00040B0F1795F0DDA51EC100B92
:10411000FFF7AEFB042808BF00F09AF89DED0A0BEC
:10412000BDEC0A8B05B030BD53EC102B51EC100BDD
:10413000FCF746F841EC180B9DED0A0B53EC182BDD
:1041400051EC100BFCF73CF841EC190B2C48B0EE8D
:10415000480AF0EE680A05217844FFF749FF9FED11
:104160002ACBB0EE40AAF0EE60AA9CB353EC1C2B15
:1041700051EC190BFCF724F841EC1C0B53EC1A2BF7
:1041800051EC190BFCF71CF89FED210B41EC190BBE
:1041900053EC102B51EC1B0BFCF712F853EC192BC2
:1041A000FCF7C4FA53EC182BFCF70AF853EC1B2B62
:1041B000FCF7BCFA53EC1C2BFCF7B8FA9DED0A1B7C
:1041C00053EC112BFCF7B5FABDEC0A8B05B041ECB2
:1041D000100B30BDFFE753EC1A2B51EC180BFBF71B
:1041E000EFFF53EC1C2BFCF700FA53EC192BFBF7F9
:1041F000E7FF9DED0A1B53EC112BFCF7F6F9E3E703
:104200009C0F000000000000495555555555C5BF8D
:10421000000000000000E03F10B553EC102B51EC03
:10422000100BFCF7E2F941EC100B10BD0000000090
:104230009FED050B10B553EC102B51EC100BFCF758
:1042400031F841EC100B10BD000000000000000030
:104250009FED050B10B553EC102B51EC100BFBF739
:10426000AFFF41EC100B10BD00000000000000107B
:1042700002E008C8121F08C1002AFAD1704770472F
:10428000002001E001C1121F002AFBD1704700008D
:104290000149086070470000940100202DE9FF5F8C
:1042A00082B00021DDE90430020DDDF840B00343A7
:1042B00018D044F61050A2F2FF3242431514119860
:1042C00001281FD0A5EB0B00401C5FEA000A4FF04D
:1042D00000064E4FDFF83891B046504615D5CAF16A
:1042E000000413E0119801244AA3012801D16FEAC8
:1042F0000B010298119AC0E90031C0E9024206B0F0
:10430000BDE8F09FCBF10000DFE704460021404A02
:10431000491842EB0450CDE9001012E0E00707D045
:1043200032463B4640464946FBF74AFF80468946AF
:1043300032463B4610461946FBF742FF06460F46FB
:104340006410002CEAD1DDE90401DDE90023BAF1B3
:10435000000F06DAFBF734FF42464B46FBF730FF0F
:1043600005E0FBF79FFF42464B46FBF79BFF0446E9
:104370000E460022284BFCF7F7F903D84FF0FF3028
:10438000014607E00022254B20463146FCF72DF977
:10439000FCF7D2F9102409E0002C0ADB0A220023E2
:1043A000FCF75EF8039B30321A55641E50EA010296
:1043B000F2D1641C039AC4F111031444119A012A26
:1043C00003D0012208430DD10AE0084304D00020A5
:1043D0004FF0110B119072E7A3EB0B056D1E0DE072
:1043E0005B4504DD4FF0000205F1010504E003DA4E
:1043F0004FF00002A5F10105002AECD002981199B6
:10440000C0E90231C0E9004579E70000000014402E
:104410000000F03F300000000000F0430000E03FEB
:104420002DE9FF4F95B09B468946064600250FE2D1
:10443000252877D100242746F84A0121059400E079
:10444000044316F8013F203B01FA03F01042F7D174
:1044500030782A2811D06FF02F033078A0F1300285
:10446000092A16D8059A44F0020402EB820203EBF3
:1044700042021044761C0590EFE759F8042B059290
:10448000002A03DA504244F40054059044F0020438
:10449000761C30782E2816D116F8010F44F004044B
:1044A0002A280DD06FF02F023078A0F13003092BAD
:1044B00009D807EB870302EB4303C718761CF3E721
:1044C00059F8047B761C30786C280FD006DC4C2819
:1044D00017D068280DD06A2814D104E0742810D0B1
:1044E0007A280FD10DE044F400140AE044F480145B
:1044F00001E044F440147278824202D104F5801441
:10450000761C761C307866280BD013DC582877D0C0
:1045100009DC002875D04528F6D04628F4D0472875
:104520001AD19DE118E0632835D0642879D0652838
:1045300012D195E1702873D008DC6728F1D0692882
:104540006FD06E280DD06F2806D1B5E073282CD01F
:10455000752875D0782874D05A46179990476D1CE5
:1045600075E1C4F30250022809D003280DD0D9F810
:10457000001004280DD00D6009F1040967E1D9F895
:104580000010EA17C1E90052F6E7D9F800100D80D3
:10459000F2E70D70F0E719F8041B8DF80010002009
:1045A0008DF80100EA46012003E059F804AB4FF012
:1045B000FF3061074FF0000102D40DE008F1010166
:1045C0008846B9420FDA8045F8DB1AF8081000294E
:1045D000F4D108E008F1010188468142FADB1AF8BB
:1045E00008100029F6D105985B46A0EB0807214684
:1045F0003846179A00F094FA284400EB080507E0C3
:104600004DE029E10DE01AF8010B5A461799904741
:10461000B8F10108F7D25B4621463846179A13E1F4
:1046200042E00A220092C4F302524FF0000A022A2A
:1046300008D059F804CB032A4FEAEC710AD00DE0F8
:1046400029E02AE009F1070121F00702F2E802C19E
:10465000914609E00FFA8CFC4FEAEC71042A03D171
:104660004FFA8CFC4FEAEC71002907DA0A46002168
:10467000DCF1000C61EB02012D2202E0220504D5E1
:104680002B228DF80420012203E0E20701D0202232
:10469000F7E7904659E00A2102E010220DE01021D0
:1046A0004FF0000A00910BE010224FF0000A44F096
:1046B00004040827009203E008224FF0000A009249
:1046C000C4F30252022A05D059F804CB0021032A70
:1046D00008D009E009F1070121F00702F2E802C160
:1046E000914605E01FFA8CFC042A01D10CF0FF0C66
:1046F0004FF00008220728D5702806D0009B83F0D1
:10470000100353EA0A0305D00EE040228DF804207E
:10471000012208E05CEA010206D030228DF8042074
:104720008DF8050002229046009B83F0080353EAAF
:104730000A030AD15CEA010201D1620705D53022E1
:104740008DF804204FF001087F1E582804D034A0B3
:1047500003900EA802900DE036A0F9E7534660469C
:10476000009AFBF77DFE84460398825C0298401E07
:10477000029002705CEA0100F0D1029806A9081AC2
:1047800000F1200A600702D524F4803400E00127FC
:10479000574502DDA7EB0A0000E0002000EB0A010C
:1047A000009005984144401A0590E00306D45B460A
:1047B0002146179A059800F0B3F90544002706E052
:1047C00001A85A46C05D179990476D1C7F1C47454C
:1047D000F6DBE0030CD55B462146179A059800F0FE
:1047E0009FF9054404E030205A46179990476D1C04
:1047F0000099481E00900029F5DC08E00298029913
:104800005A460078491C0291179990476D1CBAF1DD
:104810000001AAF1010AF1DC65E1000009280100AC
:104820003031323334353637383961626364656626
:1048300000000000303132333435363738394142E8
:10484000434445460000000000F058F90544761C3A
:10485000307800287FF4ECAD19B02846BDE8F08F21
:10486000620700D4062709F1070222F0070CFCE8D2
:104870000223E14603F000485FEA080C02D00FF281
:10488000702C0DE05FEA045C02D50FF2682C07E0A3
:104890005FEAC47C02D00FF2602C01E0AFF2700C32
:1048A0004FF0FF3823F00043CDF850C065280CD0FE
:1048B00006DC452809D046281DD047283DD13DE0DB
:1048C000662818D067287ED138E00021112F01DB3F
:1048D000112000E0781CCDE9000106A90EA8FFF721
:1048E000DDFCDDE90F010E9A03910021009207F132
:1048F000010A04914DE04FF000400097CDE901100E
:1049000006A90EA8FFF7CAFCDDE90F0203920E9B71
:1049100011990022DDF80CA00093049211B9791CC2
:1049200000EB010AB7EB0A0004D4C0F1FF3007F135
:10493000010A0490AAEB0700019044E0012F00DA7D
:1049400001270021112F01DD112000E03846CDE9BB
:10495000000106A90EA8FFF7A1FCDDE90F010E9AE0
:104960000391002104910092BA4621070CD40399C7
:10497000514500DA8A46BAF1010F05DD009AAAF125
:104980000101515C302908D0B84202DA10F1040F5D
:1049900006DA0121CDE9011015E0AAF10101E9E7EC
:1049A000002805DC049901440491AAEB000102E00F
:1049B000411C514500DD8A460499401A401C019073
:1049C0004FF000400290200704D40198504501DBCD
:1049D000CDF8048000208DF84F0002980DF14F07AC
:1049E000B0F1004F25D02B200E9002984FF0020816
:1049F00000280CDA404202902D200E9007E00A2198
:104A00000298FBF717FD3031029007F8011DB8F14D
:104A10000001A8F10108F2DC02980028EFD1791E0C
:104A20000E980870307800F0200040F0450007F83C
:104A3000020D12A8C01B00F107081498007800B1FD
:104A4000012000EB0A01019801EBE0710598414457
:104A5000401A401E0590E00306D45B462146179A93
:104A6000059800F05DF805441498007818B15A468E
:104A7000179990476D1CE00324D55B462146179A91
:104A8000059800F04DF805441CE00498002807DB69
:104A9000DDE90301884203DD0098405C179901E0DD
:104AA000179930205A469047049805F10105401C9B
:104AB00004900198401E019004D12E205A46179967
:104AC00090476D1CBAF10001AAF1010ADDDC05E096
:104AD00017F8010B5A46179990476D1CB8F1000161
:104AE000A8F10108F4DC5B462146179A0598ABE66D
:104AF0002D0000002B000000200000002DE9F041F7
:104B0000044600251E461746880404D405E03946AD
:104B10002020B0476D1C641EF9D52846BDE8F08101
:104B20002DE9F041044600251E469046C80301D5F4
:104B3000302700E02027880404D505E041463846A8
:104B4000B0476D1C641EF9D52846BDE8F081000011
:104B500010B504466FF00400FEF74EF8E11704EBC1
:104B60005171C1F3C701074A11701046007800EB7C
:104B70004001C1EBC0104FF6FF7101EAC0000249CD
:104B8000088010BD800100208201002070B504461D
:104B90004FF4077094FBF0F0C6B24FF4077094FB2B
:104BA000F0F100FB114085B205E04FF4077000F012
:104BB00009F8701EC6B2002EF7D115B1284600F0D4
:104BC00001F870BD0146114A12884A434FF0E023B4
:104BD0005A6100229A611A46126942F001021A6172
:104BE00000BF4FF0E022106900F001021AB100F49A
:104BF0008032002AF5D04FF0E022126922F0010243
:104C00004FF0E0231A6100229A6170478201002070
:104C100082B0CDE9000121F0004001909DED000B34
:104C200002B051EC100B704700BF054A128802F029
:104C30004002002AF9D0C2B2014B1B1D1A807047F6
:104C400000140140F0EE400AF6EE001A60EEA11AE0
:104C5000B0EE611AB0EE600A10EE100A0749A1EB3F
:104C6000600000EE100A21EE002AF7EE081A42EE6C
:104C7000401A61EE801AB0EE610A7047DF59375F63
:104C8000FBF701FF00BFFEE710B52DED108BC94803
:104C90000068FBF787FB41EC1C0BB0EE4C0AF0EE12
:104CA0006C0AFEF76DFEB0EE40BAF0EE60BA51EC61
:104CB0001B0BFBF7A3FB08EE900ABE480068FBF74E
:104CC00071FB41EC1C0BB0EE4C0AF0EE6C0AFEF7E7
:104CD000E7FDB0EE40BAF0EE60BA51EC1B0BFBF70B
:104CE0008DFB09EE100AB4480068FBF75BFB41EC52
:104CF0001C0BB0EE4C0AF0EE6C0AFEF741FEB0EE73
:104D000040BAF0EE60BA51EC1B0BFBF777FB09EEF3
:104D1000900AA9480068FBF745FB41EC1C0BB0EE7C
:104D20004C0AF0EE6C0AFEF7BBFDB0EE40BAF0EEB6
:104D300060BA51EC1B0BFBF761FB08EE100AFDF7A4
:104D400087F89E48D0ED000A60EEA00A90ED011AA7
:104D5000D0ED011A41EE210A90ED021AD0ED021AAF
:104D600041EE210AB0EE600AFFF76CFFB0EE40AAF8
:104D7000924890ED000A20EE0A0A80ED000A90EDBC
:104D8000010A20EE0A0A80ED010A90ED020A20EEE7
:104D90000A0A80ED020A90ED010A20EE080A20EED0
:104DA000090AD0ED020A60EE880A00EEE80AB0EEC9
:104DB00040EA90ED020AF1EE690A20EE200AD0EDF9
:104DC000000A60EE880A00EEC90AF0EE40EA90EDB3
:104DD000000A20EE080A20EE280AD0ED010A00EEB3
:104DE000A90AB0EE40FA90ED040AF6EE000A00EED1
:104DF0008E0AF0EE40DA90ED050AF6EE000A00EEBB
:104E0000AE0AF0EE40AA90ED060AF6EE000A00EEB9
:104E10008F0AB0EE40DA28EE2D0A69EEA80A00EEFD
:104E2000AA0A69EE890A00EE8D0AC0EE080A6148F6
:104E300090ED000A9FED621A00EE810A80ED000AF3
:104E400029EE2A0A08EECD0A5B48D0ED000A9FED54
:104E50005C1A40EE010AC0ED000A28EEAA0A09EE2B
:104E60000D0AC0EE080A574890ED000A9FED541A4B
:104E700000EE810A544880ED000A90ED000ADFED53
:104E8000530AB4EEE00AF1EE10FA08DD90ED000AE4
:104E9000DFED4F0A30EE600A80ED000A11E04A486B
:104EA00090ED000ADFED4B0AB4EEE00AF1EE10FAE5
:104EB00007D290ED000ADFED460A30EE200A80EDC1
:104EC000000A3C4890ED000ADFED400AB4EEE00A2B
:104ED000F1EE10FA08DD90ED000ADFED3D0A30EE4C
:104EE000600A80ED000A11E0324890ED000ADFED23
:104EF000390AB4EEE00AF1EE10FA07D290ED000A9A
:104F0000DFED330A30EE200A80ED000A2A4890EDEA
:104F1000000ADFED310AB4EEE00AF1EE10FA08DD26
:104F200090ED000ADFED290A30EE600A80ED000AFC
:104F300011E0214890ED000ADFED280AB4EEE00A06
:104F4000F1EE10FA07D290ED000ADFED200A30EE04
:104F5000200A80ED000A1C4890ED000AF7EE000AD6
:104F600020EE200A1E48D0ED000A9FED1E1A01EE29
:104F7000200A144880ED000A1B4800680A2816DC45
:104F8000104890ED000A194880ED000A0A4890ED9B
:104F9000000A174880ED000A064890ED000A1548FF
:104FA00080ED000A10480068401C0F490860BDEC05
:104FB000108B10BD780100207C010020C40200206D
:104FC0006F12833A7401002050010020560E4940B0
:104FD000560EC940560E49C0560EC93F560EC9BF9F
:104FE0005C010020000000004C010020680100204E
:104FF0006C0100207001002000004045000000000E
:105000004C5555555555A53F7751C1166CC156BFE6
:105010009015CB19A001FA3EAD529C804F7E92BEF6
:10502000C4B1B4BD9EEE213ED43888BEE9FAA8BD15
:1050300000004054FB21F93F3163621A61B4D03D56
:105040000000601A61B4D03D7370032E8A19A33B2F
:105050000000002E8A19A33BC14920259A837B3981
:1050600000000000000000006E83F9A22915444EE4
:10507000D15727FCC0DD34F5999562DB4190433C64
:10508000AB6351FE61C5BBDE3A6E24B7E0D24D4240
:10509000EA2E49061C92D1091CEB1DFE3EA729B140
:1050A000F53582E88444BB2E26709CE9417E5FB4CE
:1050B00039D69139F43953838B5F849C3B28F9BDF1
:1050C000FF97F81F0F9805DE8B112FEF1F6D0A5AFF
:1050D000CF7E366DB709CB27663F464F2DEA5F9EE0
:1050E000C7BA27757BF1E5EBF739073DEA92528A9B
:1050F000B15FFB6B085D8D1FA6F810111111813F88
:10510000D561C119A0012ABF7DFEB157E31DC73E7D
:10511000EB9C2B8AE6E55ABE7CD5CF5A3AD9E53DC1
:1051200040510008000000209801000076080008A7
:10513000C451000898010020480600008042000881
:10514000012A43F401138118130801526413B9179B
:10515000130802432003135D095B0803241A6D241E
:1051600012043AE818134D2713080552C8290C5A9F
:10517000063029485A07481AA54812087A903C5A1E
:1051800009241A4D5421493C8BFD080C1A91305AC0
:1051900001602BF5248449181A7D1869848B092530
:1051A000303A0D48013A1AFF01A1000B4C403FB4C0
:1051B0003BA43BD66EBBBC2D01020304044506078D
:0451C00008090000DA
:040000050800018965
:00000001FF
