:020000040800F2
:10000000980A00209D01000865390008193300088E
:1000100005390008190B00084751000800000000CE
:10002000000000000000000000000000F143000894
:100030009125000800000000653C00089946000872
:10004000B7010008B7010008B7010008B7010008B0
:10005000B7010008B7010008B7010008B7010008A0
:10006000B7010008B7010008B7010008B701000890
:1000700069210008B7010008B7010008B7010008AE
:10008000B7010008B7010008B7010008B701000870
:10009000250D0008B7010008B7010008B7010008E6
:1000A000B7010008B7010008B7010008B701000850
:1000B000DD470008B7010008B7010008B7010008D4
:1000C000B7010008B7010008B7010008B701000830
:1000D000B7010008B7010008B7010008B701000820
:1000E000B7010008B7010008B7010008B701000810
:1000F000B7010008B7010008B7010008B701000800
:10010000B7010008B701000859480008B701000806
:10011000B7010008B7010008B7010008B7010008DF
:10012000B7010008B701000891210008B7010008D5
:10013000B7010008B7010008B7010008B7010008BF
:10014000B70100083D100008B7010008B70100081A
:10015000B7010008B7010008B7010008394E0008D0
:10016000B7010008B7010008B7010008B70100088F
:10017000B7010008B7010008B7010008B70100087F
:10018000B7010008B7010008DFF80CD000F00CFB45
:1001900000480047BD700008980A002006488047C4
:1001A00006480047FEE7FEE7FEE7FEE7FEE7FEE75C
:1001B000FEE7FEE7FEE7FEE79D460008890100082E
:1001C0002DE9FE4F804681EA0300C00F0C460090E7
:1001D00021F0004123F00045B8EB0200A94105D20F
:1001E0004046214690461C460B46024623F00040FE
:1001F000104347D0270DC7F30A00C3F30A510290FA
:10020000401A019040286BDAC3F3130040F4801BBE
:100210000098924620B10023D2EB030A63EB0B0B4C
:1002200001985946C0F14002504600F0B7F9064621
:100230000D4650465946019A00F0BFF910EB0800F0
:100240006141002487EA115284EAE7731A4340D0DF
:10025000009A62B3019A012A4FEA075215DC001B8B
:1002600061EB02014FF0004202EA0752CDE9004281
:10027000001C41F5801132462B4600F0F6F903B020
:10028000BDE8F08F40462146F9E7001B61EB020113
:10029000001C41F5801300185B412018A2F50017DF
:1002A00047EB030140EAD570B6196D4111E06D08C6
:1002B0004FEA360645EAC0754FEA0752001B61EB6C
:1002C0000201001C41F5801149084FEA3000001975
:1002D000514132462B4603B0BDE8F04F00F0B6B9AD
:1002E0000098012240000023D0EB020263EBE07390
:1002F000009821464FEAE074B8EB000061EB04017E
:10030000E9E783F000435BE781F0004158E72DE91E
:10031000FE4F81EA030404F0004421F00041009400
:100320004FF0000B23F0004350EA01045ED052EA84
:1003300003045BD0C3F30A54C1F30A552C44A4F25E
:10034000F3340194A0FB0254C1F3130141F4801172
:10035000C3F3130343F4801301FB024400FB034E79
:10036000840A970A44EA815447EA8357A4FB076842
:1003700002958D0A05FB07854FEA932C04FB0C546C
:100380002705029D4FEA065847EA1637B5EB0805E0
:100390006EEB070C870E920E47EA811742EA831232
:1003A000A7FB0201B6EB0B0164EB00042B0D43EA43
:1003B0000C335E1844EB1C50DA465146E7FB020151
:1003C000C5F313044FEA0B3343EA14534FEA0432E4
:1003D000019C43EA0603A4F10C040294009CCDE9BD
:1003E00000B400F042F903B0BDE8F08F00200146F0
:1003F000F9E72DE9F04D81EA030404F0004B21F008
:10040000004514464FF0000A23F0004150EA05026F
:1004100020D054EA01021DD0C5F30A570246C5F3A5
:100420001303C1F31300C1F30A5640F4801543F4DB
:100430008013A7EB0608101BD64608F2FD3873EBB5
:10044000050002D308F1010801E092185B41B8F100
:10045000000F03DA00200146BDE8F08D00204FF4C4
:100460008011064684460EE0171B73EB050705D383
:10047000121B63EB050306434CEA010C49084FEAE3
:10048000300092185B4150EA0107EDD152EA0300B7
:1004900012D082EA040083EA0501084305D0101B4C
:1004A000AB4106D20122002306E000224FF00043B8
:1004B00002E06FF0010253101AEB06004CEB0851FA
:1004C00010EB0A0041EB0B01BDE8F04D00F0BEB8A7
:1004D0000EB5C10F80EAE0700844CA07002140F25F
:1004E00033438DE80E000A460B4600F0BEF803B019
:1004F00000BD0EB540F2334102910021CDE900115B
:100500000A460B4600F0B1F803B000BD00F000420F
:1005100030F000400AD0C10D01F56071C0F3160043
:1005200042EA0151C20840071143704700200146CA
:100530007047000030B5041E71F1000404DB4FF079
:100540000044404264EB0101141E73F1000405DB1A
:100550001C464FF00043524263EB0403994208BF2C
:10056000904230BD01F0004330B421F0004150EA28
:10057000010206D00A0DA2F56072C1F31301002A30
:1005800002DC30BC00207047440F44EAC104C100C3
:10059000E01830BC00EBC25000F021B8202A04DB88
:1005A000203A00FA02F1002070479140C2F1200386
:1005B00020FA03F3194390407047202A06DBCB173B
:1005C000203A41FA02F043EAE07306E041FA02F30E
:1005D000D040C2F1200291400843194670470029DB
:1005E000A8BF7047401C490008BF20F001007047B9
:1005F00010B4B0FA80FC00FA0CF050EA010404BF19
:1006000010BC704749B1CCF1200421FA04F411FA6E
:100610000CF118BF012121430843A3EB0C01CB1DB2
:100620004FEA00614FEA102042BF002010BC704723
:1006300000EBC35010440029A4BF10BC7047401CFD
:10064000490008BF20F0010010BC704710B5141E0F
:1006500073F1000408DA401C41F1000192185B417B
:100660001A4301D120F0010010BD2DE9F04D924652
:100670009B4611B1B1FA81F202E0B0FA80F2203269
:100680009046FFF78BFF04460F4640EA0A0041EA16
:100690000B0153465A46084313D0114653EA010052
:1006A00019D0C8F14002504600F090F805460E46B9
:1006B000504659464246FFF771FF084305D00120D6
:1006C00004E020463946BDE8F08D0020054346EAA7
:1006D000E0762C4337430A986305E40AA0EB080050
:1006E0000022FD0A44EA47540A3002D500200146A0
:1006F000E9E7010510196941DDE90845001969417B
:10070000BDE8F04DA2E72DE9F04D00231A461B1A73
:100710008A4103DB00200146BDE8F08DC1F30A5297
:10072000C1F3130141F480154FF0000BD10702D142
:1007300000186D41521E0027044640F2FF11384652
:1007400001EB620A3E468046024600204FF48011CB
:1007500000F03CF8C2197141BB1846EB0100B4EB44
:10076000030C75EB000C04D3E41A65EB0005174687
:100770000E46241908F101006D4180463428E3DD5E
:10078000F91946EB0600091BA84103D24FF0FF32CE
:10079000134601E0002213461BEB070046EB0A510B
:1007A000BDE8F04DFFF752BF064C074D06E0E0688C
:1007B00040F0010394E8070098471034AC42F6D3A8
:1007C000FFF7E6FC88780008A8780008202A04DBF8
:1007D000203A21FA02F00021704721FA02F3D040BA
:1007E000C2F12002914008431946704770B5C1F329
:1007F0000A5201F000450024C1F3130140F2FF3317
:1008000041F480119A4201DA002070BD40F2334376
:100810009A42A2F2334203DC5242FFF7D7FF00E0D4
:1008200090402C43F1D0404270BD70B58C1810F848
:10083000015B15F0070301D110F8013B2A1106D125
:1008400010F8012B03E010F8016B01F8016B5B1E3F
:10085000F9D12B0705D40023521E0DD401F8013B1A
:10086000FAE710F8013BCB1A921C03E013F8015B86
:1008700001F8015B521EF9D5A142D8D3002070BD0A
:1008800021B1826842F00102826003E0826822F0B6
:1008900001028260704700000021084A1168084A7E
:1008A0001140D0E900231A4383681A43C3681A43EE
:1008B0001143044AC2F804137047000004230140A6
:1008C000E030FCFF002001400146C86C80B2704758
:1008D0000246002013680B400BB1012000E000200D
:1008E0007047000030B50246002000235068104CCD
:1008F00020400D790C6844EA05242043506090683C
:100900000C4C2040D1E903542C438D682C434D7985
:1009100044EA450420439060D06A20F470000C7DC6
:10092000641EE4B2234340EA0350D06230BD0000AD
:10093000FFFEFFFCFDF7FFC0F0B504460D460020AA
:100940000021092D11DDE068A5F10A0606EB460736
:10095000072606FA07F18843A5F10A0606EB4606C4
:1009600003FA06F10843E0600CE0206905EB450757
:10097000072606FA07F1884305EB450603FA06F158
:1009800008432061072A0FDA606B561E06EB8607C4
:100990001F2606FA07F18843561E06EB860605FA5F
:1009A00006F10843606322E00D2A0FDA206BD61FA0
:1009B00006EB86071F2606FA07F18843D61F06EBCB
:1009C000860605FA06F10843206310E0E06AA2F10A
:1009D0000D0606EB86071F2606FA07F18843A2F1EB
:1009E0000D0606EB860605FA06F10843E062F0BD47
:1009F000816841F0804181607047000000B58DB092
:100A00000121042003F044FA0121080203F070FAE6
:100A100004200B9003208DF8300001208DF8330066
:100A20000BA9154801F088FE0121080203F070FAB5
:100A300000214FF4807003F06BFA002007900A90B9
:100A400009904FF48030089007A8FFF725FF002099
:100A500001908DF808008DF80900039005900120A1
:100A60008DF8180001A90548FFF73CFF0121034854
:100A7000FFF706FF0DB000BD000802400020014056
:100A800008B5A82005F066FE40F2473140F2CF706D
:100A900003F03AFF02F0F0FC01F046FB02F03EFCEE
:100AA00000F03CF802F0C8FCFFF7A8FF4FF4E1307B
:100AB00004F068F904F0D4F803F0FCFB03F0ACFA9E
:100AC0000020032308221946009000F0ABF8002014
:100AD000032308221946009000F02CFA03F012FEBE
:100AE00004F034FB03F08AFE4FF4FA7005F050FE78
:100AF00003F0DCFE08BD00000448006828B9044883
:100B00000068012801D10349086070477C0000207B
:100B1000800000207000002000BFFEE700B58BB011
:100B20000121022003F0C4F90121022003F0B0F9F1
:100B300002220421234801F047FE102009900220E0
:100B40008DF828008DF8290000208DF82A0001205A
:100B50008DF82B0009A91B4801F0EEFD4FF4FA6057
:100B600007904720ADF818000020ADF81A00ADF846
:100B7000200001221146144803F07BFF06A9124809
:100B800004F02CF86020ADF804000120ADF8060058
:100B90000020ADF8100001A90B4803F073FF0821F5
:100BA000094803F0ADFF0121074803F027FF0121A9
:100BB000054803F032FF0021034804F00AF80BB0A7
:100BC00000BD0000000402400004004030B585B0C4
:100BD00004460D4640F2FF10009000208DF80800FA
:100BE0008DF8090008208DF80A00200A8DF80B0006
:100BF000E1B28DF80C10290A8DF80D10E9B28DF8CC
:100C00000E1000218DF80F108DF810108DF81110B6
:100C10008DF812106946024800F0A1FE05B030BD03
:100C2000006400402DE9F0418AB004460D461646A6
:100C30001F46DDF840800121082003F029F9012139
:100C4000480603F035F90320089002208DF82400AF
:100C500000208DF8260003208DF8250001208DF856
:100C6000270008A92D4801F067FD092200212B4823
:100C700001F0AAFD09220121284801F0A5FD00206C
:100C80008DF81A0001208DF81B0000208DF81C0043
:100C900001208DF81D0000208DF81E008DF81F002A
:100CA0008DF816808DF817408DF818608DF8195062
:100CB000ADF8147005A91A4800F04FFD00208DF81A
:100CC0000E008DF80F0001208DF810000020ADF807
:100CD0000400ADF80600ADF80800ADF80A00ADF864
:100CE0000C0001208DF8110001A800F019FC012270
:100CF00002210B4800F028FD14208DF80000002090
:100D00008DF8010001208DF802008DF8030068467F
:100D100002F02AFE00200AB0BDE8F081000C02407B
:100D20000064004010B50221394800F07DFC002825
:100D30006CD00221364800F09FFB364A002134482F
:100D400000F095FD3348006840F20621884209D141
:100D50003048007B2F49C97A40EA012000B22E4971
:100D600008804EE02B48006840F20521884209D1F6
:100D70002848007B2749C97A40EA012000B2274968
:100D800008803EE02348006840F20721884238D0BE
:100D900020480068891F884208D11E48817B407B1B
:100DA00041EA002000B21E4908802AE01948006884
:100DB00040F20221884208D11648817B407B41EAFB
:100DC000002000B2174908801BE01248006840F27A
:100DD0000321884208D10F48817B407B41EA0020F3
:100DE00000B2114908800CE00A480068B0F5017FA4
:100DF00007D10848817B407B41EA002000B20B49C3
:100E000008800B480068401C0949086010BD0000BC
:100E100000640040BC0400200C0100200E010020F2
:100E200010010020120100201401002016010020F2
:100E300044010020F0B585B004460D4616461F4615
:100E40004FF400700090002001908DF808008DF89C
:100E5000090008208DF80A00200A8DF80B00E1B285
:100E60008DF80C10290A8DF80D10E9B28DF80E10CE
:100E7000310A8DF80F10F1B28DF81010390A8DF883
:100E80001110F9B28DF812106946024800F067FDA2
:100E900005B0F0BD0064004010B586B004464FF4C4
:100EA0000070019000208DF80C008DF80D000820D6
:100EB0008DF80E001C4890ED000ABCEEC00A10EE42
:100EC000100AC0B200128DF80F00174890ED000A0A
:100ED000BCEEC00A10EE100AC1B28DF8101000214D
:100EE0008DF811108DF81210104890ED000ABCEE2C
:100EF000C00A10EE100AC0B201128DF813100B4890
:100F000090ED000ABCEEC00A10EE100AC1B28DF8D6
:100F10001410210A8DF815108DF8164001A9044807
:100F200000F01DFD06B010BD8401002088010020E6
:100F3000006800402DE9F0418AB004460D4616468F
:100F40001F46DDF840800121022002F0A1FF0121AF
:100F5000880602F0ADFF4FF44050089002208DF853
:100F6000240000208DF8260003208DF825000120A4
:100F70008DF8270008A92F4801F0DEFB09220C217B
:100F80002C4801F021FC09220D212A4801F01CFC0B
:100F900000208DF81A0001208DF81B0000208DF82C
:100FA0001C0001208DF81D0000208DF81E008DF81A
:100FB0001F008DF816808DF817408DF818608DF899
:100FC0001950ADF8147005A91B4800F0C6FB0E209F
:100FD0008DF80E0000208DF80F0001208DF8100014
:100FE0000020ADF80400ADF80600ADF80800ADF83B
:100FF0000A000120ADF80C008DF8110001A800F0E6
:101000008FFA012210210C4800F09EFB41208DF840
:10101000000000208DF8010002208DF80200012060
:101020008DF80300684602F09FFC00200AB0BDE87E
:10103000F0810000000402400068004010B52DED72
:101040000A8B1021DD4800F0EFFA002872D0102141
:10105000DA4800F011FADA4A0121D84800F007FC1A
:10106000D748006840F20121884264D1D448817B8E
:10107000407B41EA002000B2D2490880D048007B82
:10108000CF49C97A40EA012000B2CF490880CF4851
:10109000B0F90000401CE8B308460088CB49098835
:1010A000401A00B2CA4908800846B0F90000B0F5FD
:1010B000805F01DDC74809E0C548B0F9000010F5C0
:1010C000805F02DA4FF4005000E00020C049098838
:1010D000084400B2BE4908800846B0F90000FFF796
:1010E000F7F941EC1C0B9FEDBC0B53EC102BFFF7F9
:1010F0000EF941EC1B0B9FEDBA0B53EC102BFFF7D5
:1011000078F941EC190BB8480068FFF7FFF941EC9A
:101110001A0B00E009E053EC192BFFF751F841ECF2
:10112000180BFFF71FFAB0490860A748B0F9000094
:10113000A64908803EE1A248006840F202218842A8
:1011400064D19F48817B407B41EA002000B2A749DF
:1011500008809B48007B9A49C97A40EA012000B286
:10116000A3490880A348B0F90000401CE8B3084632
:101170000088A0490988401A00B2954908800846AD
:10118000B0F90000B0F5805F01DD924809E09048B9
:10119000B0F9000010F5805F02DA4FF4005000E073
:1011A00000208B490988084400B289490880084614
:1011B000B0F90000FFF78CF941EC1C0B9FED860B9A
:1011C00053EC102BFFF7A3F841EC1B0B9FED840BA6
:1011D00053EC102BFFF70DF941EC190B8648006812
:1011E000FFF794F941EC1A0B00E009E053EC192BDE
:1011F000FEF7E6FF41EC180BFFF7B4F97E490860F3
:101200007B48B0F900007B490880D3E06C48006857
:1012100040F20321884264D16948817B407B41EAE6
:10122000002000B2754908806548007B6449C97A8E
:1012300040EA012000B2724908807248B0F900000B
:10124000401CE8B3084600886E490988401A00B27D
:101250005F4908800846B0F90000B0F5805F01DD05
:101260005C4809E05A48B0F9000010F5805F02DAE6
:101270004FF4005000E0002055490988084400B2AE
:10128000534908800846B0F90000FFF721F941EC06
:101290001C0B9FED510B53EC102BFFF738F841EC72
:1012A0001B0B9FED4F0B53EC102BFFF7A2F841ECFB
:1012B000190B55480068FFF729F941EC1A0B00E0BB
:1012C00009E053EC192BFEF77BFF41EC180BFFF7FD
:1012D00049F94D4908604A48B0F900004949088079
:1012E00068E037480068B0F5017F63D13448817BFE
:1012F000407B41EA002000B2444908803048007B2E
:101300002F49C97A40EA012000B24149088041488A
:10131000B0F90000401CE8B3084600883D49098840
:10132000401A00B22A4908800846B0F90000B0F51A
:10133000805F01DD274809E02548B0F9000010F57D
:10134000805F02DA4FF4005000E000202049098855
:10135000084400B21E4908800846B0F90000FFF7B3
:10136000B7F841EC1C0B9FED1C0B53EC102BFEF758
:10137000CEFF41EC180B9FED1A0B53EC102BFFF72F
:1013800038F841EC1A0B24480068FFF7BFF841EC2D
:101390001B0B00E009E053EC1A2BFEF711FF41ECA8
:1013A000190BFFF7DFF81C4908601948B0F9000075
:1013B00018490880BDEC0A8B10BD00000068004091
:1013C000D004002018010020200100202801002066
:1013D0004001002000E0FFFF000000000000F03F9F
:1013E0000000000000003340300100201A010020FE
:1013F000220100202C010020380100201C010020C7
:10140000240100202A010020340100201E010020B8
:10141000260100202E0100203C01002070B586B07E
:1014200004460D4616464FF40070019000200290CD
:101430008DF80C008DF80D0008208DF80E00200AA4
:101440008DF80F008DF81040290A8DF811108DF8D5
:101450001250310A8DF813108DF8146000218DF8A8
:1014600015108DF8161001A9024800F078FA06B0A0
:1014700070BD000000680040B1F5007F3AD00FDC7D
:10148000202928D006DC01291CD004291DD00829D8
:1014900040D11DE0402921D0B1F5807F3AD126E02E
:1014A000B1F5004F31D006DCB1F5806F25D0B1F534
:1014B000006F2FD124E0B1F5803F12D0B1F5003F8D
:1014C00028D111E0154A826025E00822C26022E09E
:1014D0001022C2601FE0082202611CE0102202619B
:1014E00019E00822426016E01022426013E0042254
:1014F000426010E0042242600DE0042242600AE0F3
:10150000002282610422426005E0002282610422FE
:10151000426000E000BF00BF704700000101010011
:1015200010B50021837A012202FA03F13D4A1268C4
:1015300042F001023B4B1A603A4A1C3212688A435D
:10154000384B1C331A60027BCAB9364A0C32126817
:101550008A43344B0C331A604288C38842EA0343FF
:10156000304A4032847A42F834300288838842EA32
:1015700003432C4A4032847A02EBC4025360027B5C
:10158000012A19D1274A0C3212680A43254B0C3321
:101590001A604288038842EA0343224A4032847A2E
:1015A00042F83430C288838842EA03431D4A4032FD
:1015B000847A02EBC4025360C27A3AB9194A121D06
:1015C00012688A43174B1B1D1A6006E0154A121D4C
:1015D00012680A43134B1B1D1A60028932B9114A63
:1015E000143212688A430F4B14331A600289012A9D
:1015F00006D10C4A143212680A430A4B14331A609B
:10160000427B012A06D1074A1C3212680A43054B65
:101610001C331A60034A126822F00102014B1A605F
:1016200010BD00000066004070B504460D4600265F
:1016300060692840002871D0B5F5807F5CD010DC4F
:10164000082D35D006DC012D20D0022D24D0042D0C
:1016500072D127E0102D31D0202D35D0402D6BD107
:1016600038E0B5F5004F60D009DCB5F5007F49D012
:10167000B5F5806F4CD0B5F5006F5DD14FE0B5F595
:10168000803F2DD0B5F5003F56D12FE0A0682D4901
:1016900000F0C1FC064651E0E068032100F0BBFC0D
:1016A00006464BE0E068082100F0B5FC064645E040
:1016B000E068102100F0AFFC06463FE020690321FE
:1016C00000F0A9FC064639E02069082100F0A3FCDF
:1016D000064633E02069102100F09DFC06462DE00F
:1016E0006068082100F097FC064627E0606810213A
:1016F00000F091FC064621E0A069012100F08BFC7E
:1017000006461BE0A069022100F085FC064615E0B4
:10171000A069042100F07FFC06460FE00FE0A069FD
:10172000702100F078FC064608E06068042100F0B3
:1017300072FC064602E0FFE7002600BF00E000263C
:10174000304670BD010101001AB143690B4343618A
:1017500002E043698B434361704730B50246002085
:101760000023146824F002041460146844F0010497
:10177000146000E05B1C546804F001041CB94FF6CF
:10178000FF74A342F6D1546804F001040CB90020A0
:101790006CE08C79012C04D1146844F0800414604E
:1017A00003E0146824F080041460CC79012C04D187
:1017B000146844F04004146003E0146824F040040A
:1017C00014600C7A012C04D1146844F020041460D5
:1017D00003E0146824F0200414604C7A012C04D136
:1017E000146844F01004146003E0146824F010043A
:1017F00014608C7A012C04D1146844F0080414603D
:1018000003E0146824F008041460CC7A012C04D19D
:10181000146844F00404146003E0146824F0040421
:1018200014608C78A407CD7844EA05640D7944EA05
:1018300005444D7944EA05540D886D1E2C43D4614E
:10184000146824F001041460002300E05B1C546859
:1018500004F001041CB14FF6FF74A342F6D15468A2
:1018600004F001040CB1002000E0012030BD10B5EF
:1018700000F5D87303EB01131B6803F00403137224
:10188000137A53B900F5D87303EB01131B6840F2C8
:10189000FF7404EA5353136009E000F5D87303EBB7
:1018A00001131B686FF0604404EAD303536000F532
:1018B000D87303EB01131B6803F00203537200F5A6
:1018C000D87303EB01135B6803F00F03937200F509
:1018D000D87303EB01135B681B0AD37400F5D8734C
:1018E00003EB01139B68D37200F5D87303EB01136C
:1018F0009B681C0A147300F5D87303EB01139B68F3
:101900001C0C547300F5D87303EB01139B681B0E7A
:10191000937300F5D87303EB0113DB68D37300F501
:10192000D87303EB0113DB681C0A147400F5D87339
:1019300003EB0113DB681C0C547400F5D87303EB44
:101940000113DB681B0E937421B9C36843F02003B5
:10195000C36003E0036943F02003036110BD10B5C9
:1019600002460020936803F08063B3F1806F00D1DA
:1019700010E0936803F00063B3F1006F01D1012020
:1019800008E0936803F08053B3F1805F01D1022037
:1019900000E00420042874D002F5C07303EB0013A8
:1019A0001B6803F0010402F5C07303EB00131C6015
:1019B0000B7A7BB94B7A0C8843EA445302F5C07426
:1019C00004EB00142468234302F5C07404EB0014F4
:1019D000236010E00B7A4C6843EAC4034C7A23433B
:1019E00002F5C07404EB00142468234302F5C074AC
:1019F00004EB001423608B7A03F00F038B7202F563
:101A0000C07303EB00135B6823F00F0402F5C0738F
:101A100003EB00135C6002F5C07303EB00135B681B
:101A20008C7A234302F5C07404EB001463608B7B53
:101A30001C064B7B44EA03440B7B44EA0323CC7A29
:101A4000234302F5C07404EB0014A3608B7C1C06D6
:101A50004B7C44EA03440B7C44EA0323CC7B2343C2
:101A600002F5C07404EB0014E36002F5C07303EBED
:101A700000131B6843F0010402F5C07303EB00136D
:101A80001C6010BD10B500F025F900231A46194658
:101A9000184600F057F810BD10B523480078042808
:101AA00006D100231A461946184600F04BF839E0D3
:101AB0001D48007801280AD11C4A528902EB820293
:101AC000520011B2194A508A05F0B2F82AE01648BD
:101AD0000078032802D100F050F923E01248007882
:101AE00010B900F04AF91DE00F480078022819D11A
:101AF0000F48B0F9000000EE100AB8EEC00A04F07A
:101B0000E9FE0C4908800949488A0A49B1F90010E0
:101B100005F08EF801200849088000200749088058
:101B20000749088010BD000000000020920400203A
:101B300024000020040000202A00002028000020AB
:101B4000060000202DE9F04107460C4615461E46CA
:101B500042F210715748584AB2F9002000EE102A9C
:101B6000F8EEC00A00EE107AB8EEC00A01F0FEFFEF
:101B7000BDEEC00A10EE100A07B242F210714D48D5
:101B80004E4AB2F9002000EE102AF8EEC00A00EE2C
:101B9000104AB8EEC00A01F0E9FFBDEEC00A10EE2F
:101BA000100A04B242F210714248454AB2F90020CC
:101BB00000EE102AF8EEC00A00EE105AB8EEC00A85
:101BC00001F0D4FFBDEEC00A10EE100A05B242F2D9
:101BD000107138483B4AB2F9002000EE102AF8EEA6
:101BE000C00A00EE106AB8EEC00A01F0BFFFBDEEF9
:101BF000C00A10EE100A06B2334890ED000A3348CE
:101C000080ED000A90ED000A384600F0BFF8074664
:101C10002E4890ED000A204600F0B8F804462B4804
:101C200090ED000A284600F0B1F80546274890EDEF
:101C3000000A304600F0AAF80646DFED250A00EE5D
:101C4000107AB8EEC00A00F081F8BDEEC00A10EEBE
:101C5000100A07B2DFED1E0A00EE104AB8EEC00A05
:101C600000F074F8BDEEC00A10EE100A04B2DFED09
:101C7000180A00EE105AB8EEC00A00F067F8BDEE80
:101C8000C00A10EE100A05B2DFED110A00EE106A6C
:101C9000B8EEC00A00F05AF8BDEEC00A10EE100A05
:101CA00006B233462A4621463846FFF7C3F8BDE858
:101CB000F0810000B8010020100100201201002076
:101CC0001401002016010020C80000202000002080
:101CD00000C0DA4510B5DFED132A9FED132ADFEDC2
:101CE000131A9FED101ADFED120A9FED120A124827
:101CF00001F052FF2F21104802F07BFBDFED092A93
:101D00009FED092ADFED091A9FED0C1ADFED0C0A91
:101D10009FED0C0A0C4801F03FFF2F210A4802F00A
:101D200068FB10BD0000000000004843000048C3ED
:101D30006666C640CDCC2C40B8010020295C8F3DA2
:101D40009A99993ECDCC4C3FF0010020B0EE401A5C
:101D5000B1EE600AB4EEC01AF1EE10FA02D2B1EEA2
:101D6000600A7047B4EEE01AF1EE10FA02DDB0EE50
:101D7000600AF6E7B0EE410AF3E710B500231A4611
:101D800019461846FFF756F810BD000010B52DEDA6
:101D90000E8B0446B0EE408A18EE100AFEF7B6FB32
:101DA00041EC1A0BB0EE4A0AF0EE6A0A03F080FE2C
:101DB000B0EE409AF0EE609A9FED210B53EC102BA1
:101DC00051EC190BFEF7B6FB03D20020BDEC0E8BD5
:101DD00010BD18EE100AFEF799FB41EC1E0BB0EE99
:101DE0004E0AF0EE6E0A03F063FEB0EE40DAF0EE5B
:101DF00060DA9FED130B53EC102B51EC1D0BFEF72B
:101E0000F8FA41EC1C0B9FED100B53EC102BFEF776
:101E10007BFA41EC1A0B2046FEF75AFB41EC1B0BF8
:101E200053EC1A2BFEF773FA41EC190BFEF79AFBF1
:101E300008EE900ABDEEE80A10EE100A00B2C5E7FF
:101E4000000000A099990940000000000000F03F48
:101E500010B55D480078042809D196215B4802F04E
:101E6000B8FE002211461046FFF7D8FAAAE05648FD
:101E70000078012878D1564890ED000AB5EEC00AE6
:101E8000F1EE10FA12D05348007878B9524890ED2C
:101E9000000A4F4880ED000A90ED000AB1EE400ABA
:101EA0004E4880ED000A01204A4908704FF49671AF
:101EB000464802F08EFE04F0B9FC4948B0F906002D
:101EC000484908800846B0F9000004F039FB44484E
:101ED000807C00F0C000402802D0802806D102E0BB
:101EE00005F0A8F903E005F09BF900E000BF00BF92
:101EF0003B48807C00F03000102802D0202806D11A
:101F000002E004F01DFC03E004F0BEFB00E000BFB3
:101F100000BF3348007C18B101203349087008E045
:101F20000020314908703148007810B10120304953
:101F300008602D4800782D4908702948407C18B168
:101F400001202C49087009E000202A4908702A481D
:101F5000007818B14FF0FF30254908602548007817
:101F6000254908702EE0FFE71748007803280CD1B8
:101F70000020184908708C21144802F02AFE002223
:101F800011461046FFF74AFA1CE00F48007860B986
:101F900000201049087096210C4802F01AFE002219
:101FA00011461046FFF73AFA0CE00748007802287D
:101FB00008D10020074908709621044802F009FE64
:101FC00004F054FC10BD000000000020000401409B
:101FD0008C010020D2000020300100209001002060
:101FE00092040020D4000020CE000020CF0000206A
:101FF0009C010020D0000020D100002010B505F089
:1020000023F904F04BFB04F0F1FF002211461046C7
:10201000FFF704FA10BD0246002002EA01030BB1EB
:10202000012000E00020704710B53B480068401CCC
:102030003949086002F0CAF805F047F800F028FCBA
:10204000FFF706FF344800680A21B0FBF1F201FBFC
:10205000120008B9FFF720FD2F4800680A21B0FBE5
:10206000F1F201FB1200012801D102F071FA2A48B5
:1020700000687D21B0FBF1F201FB120070B9274826
:10208000007858B92648006880F4804024490860E8
:102090002448406980F08000224948611E48006859
:1020A0004FF4FA71B0FBF1F201FB120078B91B4852
:1020B000007803280BD11A48006880F48040184942
:1020C00008601848406980F080001649486112484D
:1020D000006840F2E731B0FBF1F201FB1200012889
:1020E0000FD10E48007801280BD10D48006880F40C
:1020F00080400B4908600B48406980F08000094926
:1021000048610548006842F21071884202D10020FF
:102110000149086010BD0000D80000200000002028
:1021200014140240001002401CB50121082001F0E7
:10213000AFFE4FF40040009001208DF80400002015
:102140008DF8060003208DF8050001208DF80700AA
:102150006946044800F0F0FA4FF40041014800F0ED
:102160005FFB1CBD000C024010B50749074800F09A
:1021700093F938B10449054800F0A2F80249034830
:1021800000F0B8F810BD0000008800102860024080
:1021900010B54649464800F07FF900287ED04FF040
:1021A0008151434800F08CF84049414800F0A2F8C2
:1021B000404800783F49497840EA0120C0F30A00CE
:1021C0003D4908803B484078C0103A49897840EA48
:1021D0004110C0F30A0038494880364880788011A1
:1021E0003449C97840EA81003249097940EA8120BE
:1021F000C0F30A00304988802E48007940102D49EC
:10220000497940EAC110C0F30A002B49C880294827
:10221000407900118008087226484079C0F3011007
:102220004872244880792349C97940EA012000B2E4
:10223000214948811F48007A1E49497A40EA012015
:1022400001B21D4881811B48807A1A49C97A40EA47
:10225000012001B21848C1811648017B164801745B
:102260001448417B144841741248807B1149C97B52
:1022700040EA0120104948820E48007C0D49497C03
:1022800040EA01200C4988820C48B0F9000064281B
:1022900002DB002009490880084800E004E00088CB
:1022A000401C00B20549088010BD000000802010CD
:1022B00040640240A80400207C04002004010020A7
:1022C0000246094B9A4201D2084801E006481038FC
:1022D00001F000531BB1064B0B40C36002E0044BFE
:1022E0000B408360704700001064024000600240B1
:1022F0007D0F7D0F0246094B9A4201D2084801E04A
:102300000648103801F000531BB1064B0B40C36068
:1023100002E0044B0B4083607047000010640240F1
:10232000006002407D0F7D0F21B1026842F0010282
:10233000026003E0026822F00102026070470000C0
:10234000016821F0010101600021016041608160AC
:10235000C1600161212141614A49884204D13D2186
:10236000484A103A91608CE046491831884205D1BC
:102370004FF47461434A103A916082E04149303130
:10238000884205D14FF474113E4A103A916078E0CA
:102390003C494831884205D14FF07461394A103ABE
:1023A00091606EE037496031884204D13649354A40
:1023B000103AD16065E033497831884204D133491D
:1023C000304A103AD1605CE02E499031884204D105
:1023D0002F492C4A103AD16053E02A49A83188424B
:1023E00005D14FF03D51274A103AD16049E02949C3
:1023F000884204D13D21274A083A116041E025492D
:102400001831884205D14FF47461224A083A1160AC
:1024100037E020493031884205D14FF474111D4A0C
:10242000083A11602DE01B494831884205D14FF030
:102430007461184A083A116023E0164960318842F5
:1024400004D11149134A121F11601AE01149783161
:10245000884204D10D490F4A121F116011E00D4945
:102460009031884204D10A490A4A121F116008E0DB
:102470000849A831884204D14FF03D51054A121F46
:1024800011607047106002403D000020400F0020A6
:1024900000003D201064024070B502460020002478
:1024A0000025124EB24201D2114B01E00F4B103BFE
:1024B000104E0E4036B11E2606EAD124166806EAF2
:1024C000040502E0566906F0800501F000560EB1E1
:1024D0005C6800E01C68084E344004EA010616B14E
:1024E0000DB1012000E0002070BD0000106402402A
:1024F000006002403C0F3C0F7D0F7D0F10B501F0D6
:1025000080034BB122B1436943F08003436103E090
:10251000436923F08003436180290BD02AB103680B
:1025200001F01E042343036004E0036801F01E046D
:10253000A343036010BD000010B500220268134BD6
:102540001A40CC680B6823434C6923438C692343AE
:10255000CC6923430C6A23434C6A23438C6A23438C
:102560004C6B23438C6B23431A430260426922F075
:102570000702D1E90B3423431A4342610B694360DC
:102580004B6883608B68C36010BD00003F801CF007
:102590007047000000B51C480068401E1A490860DA
:1025A0001A4890ED000ADFED1A0AB4EEE00AF1EEE7
:1025B00010FA1DDB90ED000ADFED160AB4EEE00A1A
:1025C000F1EE10FA14D814480068082810DA08460A
:1025D000006800280CDC1148006848B901F088FF49
:1025E0000D480068401C0C490860642006490860DA
:1025F00009480068082805DB012008490860002018
:102600000549086000BD0000940000203C01002046
:1026100000C0734500208045740000207000002039
:1026200010B51448008888B96421134802F0D1FA23
:102630006421114802F0CFFA9FED100A104880ED96
:10264000000A4FF400510F4800F0EAF809480088EA
:1026500001280ED14FF48C71074802F0BAFA4FF4FA
:102660008C71054802F0B7FA4FF40051054800F0AC
:10267000D9F810BD580000200018004000000000EC
:10268000B40000200018024010B52648407C30B14C
:1026900025480088401C00B22349088002E0002041
:1026A0002149088021480088B0B92148007898B9AC
:1026B00020480078012806D11C49088000201D49C7
:1026C0000870FFF7ADFF1848008808B301201749CC
:1026D0000880FFF7A5FF1BE014480088012817D1E8
:1026E00014480078012806D10020104908801149BB
:1026F0000870FFF795FF0C48B0F90000282807DDA7
:1027000000200A490880C82009490870FFF788FF9F
:1027100007480078002804DD05480078401E044979
:10272000087010BD920400205A00002058000020BC
:102730005C00002002010020F0B50A4600210023C1
:10274000002400BF3DE0012505FA01F3156805EA04
:1027500003049C4234D105684F000326BE40B543B4
:10276000056015794E00B54006683543056015795A
:10277000012D02D01579022D16D185684F00032650
:10278000BE40B543856055794E00B54086683543F7
:102790008560456801268E40B54345604568967959
:1027A0008E40B6B235434560C5684F000326BE4033
:1027B000B543C560D5794E00B540C6683543C560A0
:1027C000491C1029BFD3F0BDF0B5002300244D07EC
:1027D000ED0E02FA05F3CE1000F1200555F8265053
:1027E0004E07F70E0F26BE40B543CF1000F120066E
:1027F00046F82750CE1000F1200555F8265045EA3E
:102800000304CE1000F1200545F82640F0BD024635
:10281000002013690B400BB1012000E0002070473D
:10282000418370470183704710B504460723012296
:1028300021460848FEF780F80648FEF7D9F800BFA1
:1028400002210448FEF744F80028F9D00148FEF7B9
:102850003BF810BD0020014010B500F0FFFB00F078
:1028600063FC094890ED000ABDEEC00A10EE100AA4
:1028700001B2064890ED000ABDEEC00A10EE100A43
:1028800000B2FEF7A3F910BD38000020440000207C
:1028900010B541F61C311548B0F9000000F092FC6B
:1028A000134908801348C0881349088013480078EA
:1028B000012801D10020088000F026F800F014FB68
:1028C0000F4890ED000ABDEEC00A10EE100A01B2EA
:1028D0000C4890ED000AB1EE400ABDEEC00A10EEC1
:1028E000100A00B2FEF772F910BD00000E010020C0
:1028F0005000002092040020520000200000002020
:10290000380000204400002010B52DED088BA148B0
:102910000078042809D19FEDA00AA04880ED020AA2
:102920009FED9D0A80ED000A31E19A480078012868
:1029300003D100209A49087029E1964800780228BE
:1029400075D19849B1F90C00FDF7C2FD41EC1B0BA4
:102950009FED950B53EC102BFDF7D9FC41EC190BB7
:102960008E4890ED020A10EE101A0846FDF7CEFDD3
:1029700041EC1A0B53EC192BFDF7C3FC41EC180B7F
:10298000FDF7F0FD854988608948B0F90000B0F591
:102990002F7F3CDA8648B0F9000010F52F7F36DD36
:1029A0008048B0F90A001E2803DD1E207D494881B9
:1029B00009E07C48B0F90A0010F11E0F03DA6FF04D
:1029C0001D00784948817749B1F90A00FDF780FD7B
:1029D00041EC1B0B9FED770B53EC102BFDF797FC95
:1029E00041EC190B6D4890ED000A10EE101A0846E4
:1029F000FDF78CFD41EC1A0B53EC192BFDF7E0FBB6
:102A000041EC180BFDF7AEFD644908601FE0684813
:102A1000B0F90000B0F52F7F0ADD604890ED000AA4
:102A2000DFED660A30EE200A80ED000A0FE099E043
:102A30005F48B0F9000010F52F7F08DA574890ED95
:102A4000000ADFED5E0A30EE600A80ED000A5C48A5
:102A500090ED000A5B48D0ED000A30EE600AB1EE5E
:102A6000400ADFED590A20EE200A4C4880ED010AA9
:102A700090ED000AD0ED010A30EE600ADFED530A56
:102A8000B4EEE00AF1EE10FA04DB9FED500A80ED9F
:102A9000000A11E0414890ED000AD0ED010A30EE45
:102AA000600ADFED4B0AB4EEE00AF1EE10FA03D84B
:102AB0009FED470A80ED000A464890ED000A46481F
:102AC000D0ED000A30EE600ADFED3F0A20EE200A6A
:102AD000324880ED030A90ED000AD0ED010A30EE95
:102AE000600ADFED3E0AB4EEE00AF1EE10FA07DD0F
:102AF00090ED000ADFED3A0A30EE600A80ED000A40
:102B0000264890ED000AD0ED010A30EE600ADFEDB4
:102B1000350AB4EEE00AF1EE10FA07D290ED000AA1
:102B2000DFED2F0A30EE200A80ED000A1B48D0EDC1
:102B3000020AB0EE600ABAEE041AF3EE0E0A00F0D2
:102B4000FAFE164880ED020AD0ED020AB0EE600AE5
:102B5000BAEE041AF3EE0E0A00F0EDFE0F4880ED17
:102B6000020A14E00B480078032808D100200C4921
:102B7000087003201C49087000F0D6FA07E00548E9
:102B8000007820B900201849087000F0CDFABDEC9B
:102B9000088B10BD0000002000000000280200206B
:102BA00054000020920400207B14AE47E17A743F69
:102BB00050000020FCA9F1D24D62703FA69B443C1E
:102BC000600100206C0100203333654200002F4477
:102BD00000002FC468010020700100200000344371
:102BE0000000B443000034C30100002010B52DEDF7
:102BF000048BB0EE408A2048B0F9000000EE100AC5
:102C0000B8EEC00AF0EE408A1C4890ED050AB1EE1D
:102C1000400ADFED1B0A20EE200AB0EE409A4FF486
:102C2000FA611848F0EE680AB0EE480A00F09EFF1C
:102C3000154880ED000A90ED000AF3EE040A80EEDC
:102C4000201AF0EE419A4FF47A710E483830F0EEC7
:102C5000490AB0EE690A00F089FF0C4880ED000ACD
:102C6000DFED0B0A90ED000A00F04EFE094880ED02
:102C7000000ABDEC048B10BD0C010020980300205D
:102C80003333654238020020300000203400002039
:102C900000409C453800002010B52DED048BB0EEAF
:102CA000408A264890ED030AF0EE408A244890EDD1
:102CB000050AB1EE400ADFED230A20EE200AB0EE4D
:102CC000409A9FED210A28EE000AB0EE408A9FED5F
:102CD0001E0A28EE800AF0EE408A4FF4FA611B4883
:102CE000F0EE680AB0EE480A00F040FF184880EDA8
:102CF000000A90ED000AB1EE400AF3EE040A80EEFD
:102D0000201AF0EE419A4FF47A7110483830F1EE03
:102D1000490AB0EE690A00F029FF0E4880ED000A6A
:102D2000DFED0D0A90ED000A00F0EEFDB1EE400A75
:102D30000A4880ED000ABDEC048B10BD280200207B
:102D400098030020333365424A0CB6413802002014
:102D5000300000203400002000409C453800002056
:102D600010B52DED048BB0EE408A2448B0F9000078
:102D700000EE100AB8EEC00AF0EE408A204890ED4E
:102D8000060AB1EE400ADFED1F0A20EE200AB0EE7F
:102D9000409A4FF4FA611C48F0EE680AB0EE480A17
:102DA00000F0E4FE194880ED000A90ED000AB1EE53
:102DB000400AF3EE040A80EE201AF0EE419A4FF436
:102DC0007A7111483830F1EE490AB0EE690A00F024
:102DD000CDFE0F4880ED000ADFED0E0A90ED000AEF
:102DE00000F092FD0C4880ED000A90ED000AB1EE73
:102DF000400A80ED000ABDEC048B10BD500000209D
:102E00009803002033336542A80200203C000020D4
:102E10004000002000409C454400002010B52DEDEE
:102E2000048BB0EE408A274890ED010AF0EE408A0C
:102E3000254890ED060AB1EE400ADFED240A20EEA7
:102E4000200AB0EE409A9FED220A28EE000AB0EE6A
:102E5000408A9FED1F0A28EE800AF0EE408A4FF468
:102E6000FA611C48F0EE680AB0EE480A00F07EFEF7
:102E7000194880ED000A90ED000AF3EE040A80EE96
:102E8000201AF0EE419A4FF47A7112483830F1EE80
:102E9000490AB0EE690A00F069FE104880ED000AA8
:102EA000DFED0F0A90ED000A00F02EFD0D4880EDD9
:102EB000000A90ED000AB1EE400A80ED000ABDEC78
:102EC000048B10BD28020020980300203333654294
:102ED0004A0CB641A80200203C000020400000201F
:102EE00000401C464400002010B525480078042806
:102EF00008D19FED240AFFF779FE9FED230AFFF723
:102F00002FFF3AE01E48007801280AD100F0A6F809
:102F10009FED1C0AFFF76AFE9FED1B0AFFF720FFDB
:102F20002BE017480078032800D110BD1448007822
:102F300000B9FAE71248007802281ED100F02AF8FA
:102F40001248007838B9124890ED010A80ED000A65
:102F500001200E4908700E48D0ED020A9FED0A1AB2
:102F600071EE600AB0EE600AFFF796FE0848D0EDF9
:102F7000000AB0EE600AFFF751FF00BFD5E700007E
:102F80000000002000C08A4400000000540000201F
:102F90002802002010B5DFED282A9FED282ADFED5A
:102FA000281AB6EE001AF2EE040AB3EE0C0A25480F
:102FB00000F0F2FD2F21234801F01BFADFED1E2A5D
:102FC0009FED212ADFED211A9FED1B1AF0EE000A7A
:102FD000B3EE040A1B48383000F0DEFD2F211948FB
:102FE000383001F006FADFED142A9FED192ADFEDE3
:102FF000191AB1EE001AF2EE040AB3EE090A1648E5
:1030000000F0CAFD2F21144801F0F3F9DFED0A2A80
:103010009FED0D2ADFED0D1A9FED071AF0EE000A65
:10302000B3EE040A0C48383000F0B6FD2F210A48F0
:10303000383001F0DEF910BD000000000000F04261
:103040000000F0C23802002000007042000070C290
:1030500000009643000096C3A802002010B5DFEDE3
:10306000282A9FED282ADFED281A9FED251ADFED8B
:10307000240AB1EE060A254800F08EFD2F212348D0
:1030800001F0B7F9DFED1E2A9FED212ADFED211AAD
:103090009FED1B1ADFED1A0AB2EE0C0A1B483830FE
:1030A00000F07AFD2F211948383001F0A2F9DFED48
:1030B000142A9FED192ADFED191A9FED111ADFED81
:1030C000100AB2EE080A164800F066FD2F211448D7
:1030D00001F08FF9DFED0A2A9FED0D2ADFED0D1AC1
:1030E0009FED101ADFED060AB3EE000A0C483830E7
:1030F00000F052FD2F210A48383001F07AF910BD56
:10310000000000000000F0420000F0C23802002081
:1031100000007042000070C20000C8430000C8C335
:10312000A8020020CDCCCC3D9FED100A104880EDC8
:10313000020A104890ED000ADFED0F0A20EE200A87
:103140000E48D0ED000A9FED0C1A10EE810A0848D7
:1031500080ED000A9FED050A094880ED000A9FED09
:10316000030A084880ED000A7047000000000000D4
:103170002802002060010020333365426C010020EA
:10318000440000203800002010B50B4800780328C8
:1031900002D00948007870B90848007801280AD19F
:1031A000042006490870002005490870FFF756FF03
:1031B00001200149087010BD01000020000000201E
:1031C000E60000200246501AB0F5805F01DDA2F54E
:1031D0000052501A10F5805F01DA02F50052521ABF
:1031E00010B2704710B50648008808B901F02AFAF5
:1031F00003480088012801D100F004F810BD000048
:103200005800002010B53848007C3849086036481E
:10321000007C012807D136480068401C344908600A
:103220000020344908603148006833490968884201
:103230000BD02E480068012807D13048006820B91B
:103240002F480068401C2E490860284800682A4919
:1032500008602C48006820B12A480068401E2949AF
:1032600008602648006820B124480068401E2349B1
:1032700008602448006818B91D480068002806DC6A
:103280002048006870BB1B48006800282ADD4FF406
:1032900000411D48FFF7C6FA1C48006828B11B48CA
:1032A0000068401E194908601CE014201749086096
:1032B0000020174908604FF400411348FFF7B0FAA7
:1032C0000F480068002807DD01F012F96420114959
:1032D000086000200A490860002005490860642051
:1032E0000849086010BD000092040020C0000020C2
:1032F0006C00002078000020C40000206400002042
:103300009C00002060000020000C024068000020AB
:10331000700000209400002000BFFEE71CB50121D2
:10332000802000F0B5FD4FF40060009000208DF883
:10333000040003208DF8050001208DF80700694680
:103340000448FFF7F9F94FF400610348FFF76AFA00
:103350001CBD0000000C0240001C024032480088E6
:10336000A0F5806000B2314908802F484088A0F560
:10337000806000B248802C488088A0F5806000B250
:1033800088802948C088A0F5806000B2C88026489F
:10339000007A08722448407A48722348B0F90A003B
:1033A000282801DD28200BE01F48B0F90A0010F1A1
:1033B000280F02DA6FF0270002E01B48B0F90A007C
:1033C0001A4948811848B0F90C00282801DD282046
:1033D0000BE01548B0F90C0010F1280F02DA6FF07D
:1033E000270002E01048B0F90C00104988810E480F
:1033F000017C0E4801740C48417C0C4841740A4819
:10340000408A0A4948820A480078012806D10846BD
:10341000007A032802D10120064908700348007A87
:1034200003490870704700007C04002092040020CB
:1034300003010020020100201CB50121402000F002
:1034400027FD4FF40050009001208DF8040000206B
:103450008DF8060003208DF8050001208DF8070087
:1034600069460448FFF768F94FF400510148FFF737
:10347000D7F91CBD001802401CB50121302000F016
:1034800007FD4FF48040009001208DF804000020DB
:103490008DF8060003208DF8050001208DF8070047
:1034A00069460948FFF748F98020009069460748B7
:1034B000FFF742F94FF480410348FFF7B3F9802149
:1034C0000248FFF7ADF91CBD001402400010024095
:1034D00010B52DED028B3D4890ED000A3C48D0ED33
:1034E000000A30EE600AB0EE408AB2EE040AB4EE92
:1034F000C08AF1EE10FA06DCBAEE040AB4EEC08A15
:10350000F1EE10FA0ED24FF4FA613248304AD2EDA1
:10351000000A2E4A92ED000A00F028FB2E4880EDAA
:10352000000A04E09FED2D0A2B4880ED000A2C488C
:1035300090ED000A2B48D0ED000A30EE600AB0EEA4
:10354000408AB2EE040AB4EEC08AF1EE10FA06DC4C
:10355000BAEE040AB4EEC08AF1EE10FA0ED24FF4BD
:10356000FA6121481F4AD2ED000A1D4A92ED000A75
:1035700000F0FCFA1D4880ED000A04E09FED170AF8
:103580001A4880ED000A1448D0ED000AB7EE001A80
:1035900060EE810AB0EE600ADFED150A00F02AF84D
:1035A0000D4880ED000A1148D0ED000AB7EE001A70
:1035B00060EE810AB0EE600ADFED0D0A00F01AF845
:1035C0000A4880ED000ABDEC028B10BD8C01002082
:1035D00030010020280600208401002000000000A7
:1035E00090010020340100206006002088010020A6
:1035F0000000FA45B0EE401AB1EE600AB4EEC01A0F
:10360000F1EE10FA02D2B1EE600A7047B4EEE01AA1
:10361000F1EE10FA02DDB0EE600AF6E7B0EE410A14
:10362000F3E700002DE9F04105460C461646002060
:103630000A49086045F0800000F0B2FE002706E06D
:10364000FF2000F0ADFE2070641C781CC7B2B742AA
:10365000F6DB012001490860BDE8F0819882424212
:1036600070B5044600200849086044F0800000F06E
:1036700097FEFF2000F094FE054601200349C1F8A3
:103680009802284670BD0000988242420080424263
:1036900070B505460C46002007490860284600F032
:1036A0007FFE0646204600F07BFE01200349C1F85C
:1036B0009802304670BD000098824242008042422B
:1036C00010B54FF47A7003F063F803F03FF9002867
:1036D00043D00A2003F05CF880216B20FFF7D8FF6D
:1036E000642003F055F803216B20FFF7D1FF0A2077
:1036F00003F04EF800216C20FFF7CAFF0A2003F008
:1037000047F800211920FFF7C3FF0A2003F040F813
:1037100002211A20FFF7BCFF0A2003F039F802212A
:103720003720FFF7B5FF0A2003F032F810211B20E5
:10373000FFF7AEFF0A2003F02BF802211C20FFF751
:10374000A7FF0A2003F024F808211D20FFF7A0FF9F
:103750000A2003F01DF803F005F910BD00B52DEDAA
:10376000048B85B00E2201A93B20FFF75BFF9DF87B
:103770000400000200B29DF8051008435849088073
:103780000846B0F9000000EE100AB8EEC00ADFEDFE
:10379000550A80EE201A544880ED001A9DF8060064
:1037A000000200B29DF8071008434D4948800846C2
:1037B000B0F9020000EE100AB8EEC00ADFED490AC7
:1037C00080EE201A484880ED011A9DF8080000029A
:1037D00000B29DF809100843414988800846B0F9B5
:1037E000040000EE100AB8EEC00ADFED3E0A80EEDB
:1037F000201A3D4880ED021A9DF80A00000200B22E
:103800009DF80B1008433649C880B1F90600FCF753
:103810005FFE41EC190B9FED350B53EC102BFCF7C1
:1038200076FD41EC180BFCF79DFE2F49C8609DF812
:103830000C00000200B29DF80D10084328490881D1
:103840000846B0F9080000EE100AF8EEC00A9FED35
:10385000291A80EE810A2848D0ED000A30EE600A6D
:10386000214880ED040A9DF80E00000200B29DF888
:103870000F1008431A4948810846B0F90A0000EEC3
:10388000100AB8EEC00ADFED1B0A80EE201A1B48B2
:1038900090ED000A31EE400A134880ED050A9DF8CC
:1038A0001000000200B29DF8111008430C498881F5
:1038B0000846B0F90C0000EE100AB8EEC00ADFEDC1
:1038C0000D0A80EE201A0E4890ED000A31EE400AF3
:1038D000054880ED060A05B0BDEC048B00BD000074
:1038E00088030020000080469803002000000000AC
:1038F0000000F03F0000EB44E8000020EC00002056
:10390000F000002000BFFEE7B0EE401AB1EE600A02
:10391000B4EEC01AF1EE10FA02D2B1EE600A7047AE
:10392000B4EEE01AF1EE10FA02DDB0EE600AF6E74E
:10393000B0EE410AF3E7F0EE401AF4EEC11AF1EEF0
:1039400010FA02D2B0EE412A09E0F4EEE01AF1EEEC
:1039500010FA02DDB0EE602A01E0B0EE612AB0EEAE
:10396000420A70477047000070B5002100230F2203
:10397000C4781CB3174C246804F4E064C4F5E06414
:10398000C4F30721C1F10404E3B20A4144789C4026
:10399000E1B28478144021430C07210E0E4C0578C7
:1039A0006155047804F01F050124AC4005786D11C1
:1039B000AD0005F1E025C5F8004109E0047804F008
:1039C0001F050124AC40054D0678761145F82640C8
:1039D00070BD00000CED00E000E400E080E100E0DC
:1039E000024622B10120884008B101207047002022
:1039F000FCE7000030B504460D469FED5A0AF0EE94
:103A0000401A94F836000021FFF7EAFF10B1204673
:103A100000F0D4F894F834000521FFF7E1FF68BB0B
:103A2000206B281A00EE100AB8EE400ADFED4E2A8D
:103A300060EE220A256394F836000121FFF7D0FFDB
:103A400030B194F8360020F0020084F8360030BD22
:103A500094F834000621FFF7C3FFB8B194ED070ACC
:103A6000B4EEE00AF1EE10FA10D29FED3E0A84EDBA
:103A7000090A84ED0A0A84ED0B0AE8E700EE105A01
:103A8000B8EE400ADFED382A60EE220A94F83400DE
:103A90000321FFF7A5FF00285FD094ED000AD4EDC5
:103AA000012A30EE621A94F834000021FFF798FFE3
:103AB00038B1D4ED022AB0EE610A02EE810AF0EECE
:103AC000401A94F834000121FFF78AFF48B394EDBF
:103AD0000B0A01EE200A84ED0B0A94ED0B0AD4EDDB
:103AE000062AB4EEE20AF1EE10FA03DD94ED060ABE
:103AF00084ED0B0A94ED0B0AD4ED052AB4EEE20A2C
:103B0000F1EE10FA03D294ED050A84ED0B0AD4ED20
:103B1000032A94ED0B3AB0EE610A02EE830AF0EE4E
:103B2000401A94F834000221FFF75AFFA8B194ED2F
:103B3000090AD4ED0A2A30EE620A80EE202A94EDBA
:103B4000090A84ED0A0A84ED091AD4ED042AB0EEBC
:103B5000610A02EE820AF0EE401AC4ED081A00BFB4
:103B600075E7000000000000BD37863530B5F0EE87
:103B7000403AB0EE604A04460D46C4ED003A84ED8A
:103B8000014A29462046FFF735FF94ED080AF0EE7A
:103B9000404AB0EE640A30BD183000ED040A40ED32
:103BA000030A00ED021A40ED011A80ED002A0021FF
:103BB00001774177817718387047000030B50346A8
:103BC00013F8340F597880EA010413F8340900EA35
:103BD000040503212046FFF703FF98B19FED200A5B
:103BE00083ED090A83ED0A0A83ED0B0A03212846B7
:103BF000FFF7F6FE50B393F8360040F0020083F86A
:103C0000360023E001212046FFF7EAFE70B10121D2
:103C10002846FFF7E5FE48B193F834000421FFF78A
:103C2000DFFE18B99FED0E0A83ED0B0A0221204634
:103C3000FFF7D6FE50B102212846FFF7D1FE28B18A
:103C40009FED070A83ED090A83ED0A0A3433587899
:103C50001870987820F001009870343B30BD000057
:103C6000000000007047B0EE401AB1EE600AB4EEFA
:103C7000C01AF1EE10FA02D2B1EE600A7047B4EE4B
:103C8000E01AF1EE10FA02DDB0EE600AF6E7B0EEEF
:103C9000410AF3E710B52DED048BF0EE409A1F4872
:103CA00090ED000AB0EE408A1D48B0F9000000EE29
:103CB000100AB8EEC00AF0EE408A4FF4FA611948D3
:103CC000F0EE480A9FED180AFFF750FF174880ED05
:103CD000000A90ED000AF3EE040A80EE201AB0EE1E
:103CE000419A4FF448710F483830F0EE680AB0EE50
:103CF000490AFFF73BFF0E4880ED000ADFED0D0A91
:103D000090ED000AFFF7AFFF0B4880ED000A90ED41
:103D1000000A80ED000ABDEC048B10BD3C010020C0
:103D20001E0100201803002000007A45AC0000208E
:103D3000B000002000007A44B400002010B5DFED90
:103D4000142A9FED142ADFED141A9FED111ADFEDEE
:103D5000130A9FED130A1348FFF71EFF2F21114886
:103D600000F047FBDFED0A2A9FED0A2ADFED0A1A71
:103D70009FED071ADFED060AB1EE040A0948383054
:103D8000FFF70AFF2F210748383000F032FB10BD43
:103D90000000000000004843000048C3CDCC4C3E6A
:103DA000000020421803002010B52DED0A8B0C20D6
:103DB000FEF73AFD0446FCF79CFB41EC1C0B9FED23
:103DC0002A0B53EC102BFCF714FB41EC1B0B9FED63
:103DD000280B53EC102BFCF79AFA41EC1A0B9FEDD1
:103DE000260B53EC102BFCF78CFA41EC190B9FEDD2
:103DF000240B53EC102BFCF7FCFA41EC180BFCF7EE
:103E0000B1FB2149086008460068FCF77FFB41ECE4
:103E1000190BB0EE490AF0EE690A01F049FEB0EE66
:103E2000408AF0EE608A51EC180BFCF79BFB1649B8
:103E30000860084690ED000AF9EE040AB4EEE00AC4
:103E4000F1EE10FA08D390ED000AF1EE040AB4EE98
:103E5000E00AF1EE10FA04DD9FED0C0A0A4880ED4D
:103E6000000ABDEC0A8B10BD000000000000B0404D
:103E70000000006066660A40D7A3703D0AD7034081
:103E80000000008014AEC73FC8000020CDCCCC3F5E
:103E900029B1064A12680243044B1A6004E0034A3F
:103EA00012688243014B1A607047000030380240AC
:103EB00029B1064A12680243044B1A6004E0034A1F
:103EC00012688243014B1A6070470000403802407C
:103ED00029B1064A12680243044B1A6004E0034AFF
:103EE00012688243014B1A6070470000203802407C
:103EF00029B1064A12680243044B1A6004E0034ADF
:103F000012688243014B1A60704700004438024037
:103F100029B1064A12680243044B1A6004E0034ABE
:103F200012688243014B1A60704700002438024037
:103F3000F0B5002100220024022500260223324F82
:103F40003F6807F00C0121B1042905D0082937D1B9
:103F500005E02E4F076036E02D4F076033E02A4F13
:103F60003F1F3F68C7F38056274F3F1F3F6807F04A
:103F70003F036EB1264FB7FBF3F7DFF88CC0ACF10F
:103F8000040CDCF800C0CCF3881C07FB0CF40CE03C
:103F90001E4FB7FBF3F7DFF870C0ACF1040CDCF890
:103FA00000C0CCF3881C07FB0CF4174F3F1F3F6881
:103FB000C7F301477F1C7D00B4FBF5F7076002E003
:103FC000124F076000BF00BF0F4F3F6807F0F001BE
:103FD0000909104F7A5C0768D74047600A4F3F686D
:103FE00007F4E051890A0B4F7A5C4768D740876035
:103FF000054F3F6807F46041490B064F7A5C4768FC
:10400000D740C760F0BD0000083802400024F4002B
:10401000001BB700A101002000B58FB0012140486E
:10402000FFF736FF01211020FFF762FF072211463C
:104030003C48FEF7C9FB80200D9002208DF8380027
:1040400000208DF83A0003208DF8390000208DF80B
:104050003B000DA93348FEF76FFB334800F05AFFD1
:10406000324809900020ADF82800ADF82A004FF43E
:104070008060ADF82C000420ADF82E000020ADF8D3
:10408000300009A9284800F0EFFF0121264800F080
:104090002CFF01224021244800F033FF3A208DF804
:1040A000380001208DF839008DF83A008DF83B007A
:1040B0000EA8FFF759FC1E48FEF742F94FF00060CA
:1040C00000901948001D01901A48029000200390AA
:1040D00012200490002005904FF48060069000208C
:1040E000079008904FF4807009904FF440300A9088
:1040F00000200B900C900D900E9069460C48FEF736
:104100001BFA012210210A48FEF7F8F9002108489D
:10411000FEF70AF901210648FEF706F90FB000BDC7
:10412000020040000004024000100140A08601008F
:1041300040640240A80400201048B0F90000104973
:10414000B1F9001088420FD10E48B0F900001E28C6
:1041500003DD00200C49087009E00A480088401C73
:1041600000B20849088002E00020064908800348A0
:10417000B0F90000024908807047000004010020E7
:1041800006010020CC0000200000002010B50748E8
:104190000068074908604FF400610648FEF737FBE6
:1041A00002490860FCF7A8FC10BD00008000002058
:1041B0007C000020001C024010B5FFF7CFF804205F
:1041C0000149087010BD00000000002010B5FFF785
:1041D000C5F800F003F8FEF7D7FF10BD11480078CE
:1041E000F8B1114890F9090030B1012808D002282F
:1041F0000AD0032810D10BE000200C4908700FE012
:1042000001200A4908700BE003200849087007E004
:1042100002200649087003E004200449087000BF2A
:1042200000BF7047E600002092040020000000203C
:1042300010B542F210711848184AD2ED000A184A17
:1042400092ED000AFFF792FC164880ED000ADFEDC0
:10425000160A90ED000AFFF7CDF9124880ED000A2A
:1042600042F210711148124AB2F9002000EE102AF1
:10427000F8EEC00A0B4A92ED000AFFF777FC0948F6
:1042800080ED000ADFED080A90ED000AFFF7B2F9B1
:10429000044880ED000A10BD4805002038010020C8
:1042A000940100208001002000803B458005002013
:1042B0001A0100201CB500243548006840F0200099
:1042C0003349086032481430006840F480103049A7
:1042D000143108604FF46070009002208DF80400E3
:1042E00000208DF8060001208DF8070003208DF8CE
:1042F000050069462748FEF71FFA052207212548D1
:10430000FEF762FA052208212248FEF75DFA05222F
:1043100009212048FEF758FA4020009001208DF82E
:10432000040000208DF8060001208DF8070003200E
:104330008DF8050069461748FEF7FEF90120164979
:10434000086013480C38006840F4801010490C399C
:1043500008600846006820F48010086000BF44F040
:10436000040444F4807400BF44F0020444F00104E7
:1043700044F4007444F0380400BF44F0400407489B
:104380000480808B20F40060044988831CBD0000F9
:1043900030380240001402409882424200500140EE
:1043A0000246002106E0481C81B2B1F5167F01DD0E
:1043B000002070470D48008900F002000028F2D06C
:1043C0000A488281002106E0481C81B2B1F5167FBF
:1043D00001DD0020EDE70548008900F0010000281C
:1043E000F2D002488089C0B2E3E7000000500140EB
:1043F000704700F8351F427842F0010242703538AC
:10440000704700000CB5002001900090344800680F
:1044100040F480303249086000BF3148006800F441
:10442000003000900198401C0190009818B9019844
:10443000B0F5A06FF1D12A48006800F4003010B147
:104440000120009001E0002000900098012846D152
:1044500023484030006840F08050214940310860D6
:104460002048006840F480401E4908601C4808301D
:1044700000681B49083108600846006840F40040A5
:1044800008600846006840F4A05008601648091FFC
:104490000860081F006840F08070091F086000BFB6
:1044A0000F48006800F000700028F9D040F2056065
:1044B0000E4908600A480830006820F003000849E7
:1044C000083108600846006840F00200086000BF3C
:1044D00003480830006800F00C000828F8D10CBD33
:1044E00000380240007000400C544007003C02407D
:1044F0000A4890ED000ADFED0A0A30EE600A80ED0E
:10450000000A08480068401C064908600846006820
:10451000012802DB4FF0FF30086070473C010020AB
:10452000000080447800002010B5FFF707FCC82188
:10453000064800F04EFBC821044800F04CFB4FF445
:104540007A7002F025F900F07DF810BD00180040E7
:1045500010B5364800783649087034480078042889
:104560000CD100F06FF8334890ED000ABDEEC00AA0
:1045700010EE100A00B2FCF78FFC52E02B480078D6
:1045800001280CD100F05EF82A4890ED000ABDEE3B
:10459000C00A10EE100A00B2FCF77EFC41E023488E
:1045A000007802281DD122480078234909788842E2
:1045B00004D09FED220A224880ED000AFEF764F83D
:1045C000FEF710FE01F05EFFFDF7E4FF194890EDE5
:1045D000000ABDEEC00A10EE100A00B2FCF75CFC47
:1045E0001FE01248007803280CD100F02BF8114886
:1045F00090ED000ABDEEC00A10EE100A00B2FCF702
:104600004BFC0EE00948007858B900F01BF8094847
:1046100090ED000ABDEEC00A10EE100A00B2FCF7E1
:104620003BFC034800780449087010BD00000020DE
:1046300098000020B40000209900002000007A4576
:104640003C01002010B56421064800F0C2FA642144
:10465000044800F0C0FA9FED040A044880ED000A07
:1046600010BD00000018004000000000B400002051
:10467000042808D14FF0E021096941F004014FF00E
:10468000E022116107E04FF0E021096921F0040107
:104690004FF0E022116170477047000010B51548D7
:1046A000006840F47000134908601348006840F047
:1046B00001001149086000200F49083108600E48C8
:1046C00000680E4908400C4908600D48091D086043
:1046D000081F006820F48020091F08600020064998
:1046E0000C310860FFF78EFE4FF000600149803901
:1046F000086010BD88ED00E000380240FFFFF6FEC4
:104700001030002400B58BB001214020FFF7D0FB12
:1047100001218020FFF7BCFB092211462D48FEF73E
:1047200053F8092206212B48FEF74EF84FF410707B
:10473000099002208DF828008DF8290000208DF8BE
:104740002A0001208DF82B0009A92248FDF7F4FF6B
:1047500040F2CF70079040F2CF20ADF81800002053
:10476000ADF81A00ADF82000012211461A4800F0F9
:1047700080F906A9184800F031FA6020ADF804006D
:104780000120ADF806000020ADF8100001A9124884
:1047900000F078F96020ADF804000120ADF80600C3
:1047A0000020ADF8100001A90B4800F0B3F9082172
:1047B000094800F0A5F90821074800F0FDF901219A
:1047C000054800F01BF90121034800F026F90BB061
:1047D00000BD0000001C02400018004010B501217F
:1047E000880700F035F9012803D102F08DFDFFF7AD
:1047F000CDFC0121880700F00DF910BD1FB5012186
:104800000846FFF755FB4FF47A7002905320ADF83D
:1048100004000020ADF80600ADF80C0001A94FF02F
:10482000804000F0DBF901221146900700F021F9E9
:104830000121880700F0F1F81C208DF8000000200D
:104840008DF8010001208DF802008DF80300684604
:10485000FFF78AF81FBD000010B50121104800F0D5
:10486000F7F8012817D10F48007890B90E48008852
:10487000B0F5FA6F05DA0C480088401C0A49088038
:1048800007E0002008490880012006490870FEF76B
:1048900081FBFDF7C9FB0121014800F0BBF810BD09
:1048A000000C0040E6000020E40000201FB50121BC
:1048B0000820FFF7FDFA4FF47A7002905320ADF80C
:1048C00004000020ADF80600ADF80C0001A90D4869
:1048D00000F084F9012211460A4800F0CAF832209B
:1048E0008DF8000000208DF8010001208DF80200F5
:1048F0008DF803006846FFF737F80121014800F002
:104900008CF81FBD000C004030B58BB004460D463E
:1049100001210220FFF7ECFA01210802FFF7B8FAA3
:10492000032205213348FDF74FFF032206213148BA
:10493000FDF74AFF032207212E48FDF745FF03221A
:1049400002212C48FDF740FFE420099002208DF859
:1049500028008DF8290000208DF82A0001208DF80C
:104960002B0009A92348FDF7E7FE4FF4FA600790F2
:1049700040F24730ADF818000020ADF81A00ADF84D
:104980002000012211461C4800F073F806A91A48BD
:1049900000F024F96020ADF804000120ADF8060015
:1049A0000020ADF8100001A9134800F06BF860205A
:1049B000ADF804000120ADF806000020ADF81000AD
:1049C00001A90D4800F0A6F808210B4800F098F85E
:1049D0000821094800F0F0F80121074800F00EF81E
:1049E0000121054800F025F80121034800F015F8E1
:1049F0000BB030BD002002400004014021B102880C
:104A000042F08002028004E002884FF67F731A4071
:104A100002807047CA430282704721B1028842F087
:104A20000102028004E002884FF6FE731A40028001
:104A3000704731B1B0F8442042F40042A0F844205D
:104A400005E0B0F84420C2F30E02A0F844207047FD
:104A500030B50246002000230024158A05EA010330
:104A6000958905EA010413B10CB1012000E0002092
:104A700030BD1AB183890B43838102E083898B4364
:104A80008381704770B5002400220023058C4FF607
:104A9000FE7635400584028C8388048B4FF68F7533
:104AA0002C40B51E2C400D882C43751E2A408D8944
:104AB0002A434D882A43104DA84202D00F4DA842E8
:104AC00013D14FF6F7752A40CD892A434FF6FB756F
:104AD0002A408D882A434FF6FF652B404FF6FF553D
:104AE0002B400D8A2B434D8A2B43838004838D6892
:104AF0004563028470BD00000000014000040140D5
:104B00000A460021018B4FF6F773194011430183C8
:104B10007047000070B5002400220023058C4FF67A
:104B2000EF7635400584028C8388048B48F6FF7548
:104B30002C404FF6FF452C400D884FF6FF7606EAD5
:104B400005252C434FF6DF752A408D8906EA0515A9
:104B50002A434D8806EA05152A43154DA84202D07E
:104B6000144DA8421DD14FF67F752A40CD894FF6CE
:104B7000FF7606EA05152A434FF6BF752A408D8851
:104B800006EA05152A434FF6FF352B404FF2FF7515
:104B90002B400D8A06EA85052B434D8A06EA8505DA
:104BA0002B43838004838D688563028470BD00007D
:104BB00000000140000401400A460021018B4FF231
:104BC000FF7319404FF6FF7303EA02231943018371
:104BD000704741637047816370470000002202887C
:104BE000184B98420ED0184B98420BD0B0F1804F22
:104BF00008D0164B984205D0154B984202D0154B61
:104C0000984204D14FF68F731A404B881A43124BC7
:104C1000984207D0114B984204D04FF6FF431A40F8
:104C20000B891A4302804B68C3620B880385054BCE
:104C3000984202D0044B984201D18B7A038601231B
:104C400083827047000001400004014000040040DE
:104C500000080040000C004000100040001400401C
:104C600000B58FB001214248FFF712F901218804F5
:104C7000FFF71EF9072208213E48FDF7A5FD072290
:104C800009213C48FDF7A0FD4FF440700D90022033
:104C90008DF8380000208DF83A0003208DF8390097
:104CA00000208DF83B000DA93248FDF745FD324844
:104CB00000F030F94FF4E13009900020ADF8280001
:104CC000ADF82A00ADF82C000C20ADF82E00002025
:104CD000ADF8300009A9284800F0C6F9012126489E
:104CE00000F003F901224021234800F00AF90C20CA
:104CF0008DF8380002208DF8390003208DF83A0035
:104D000001208DF83B000EA8FEF72EFE1B48FDF794
:104D100017FB4FF0006000901748001D01901848E5
:104D200002900020039064200490002005904FF42E
:104D3000806006900020079008904FF480700990E2
:104D40004FF440300A9000200B900C900D900E9084
:104D500069460A48FDF7F0FB012210210748FDF7DC
:104D6000CDFB01210548FDF7DFFA0FB000BD0000C3
:104D700008002000000C024000480040286002406B
:104D8000E404002010B588B0044601214020FFF75C
:104D90007FF801212020FFF7ABF808220E212448DC
:104DA000FDF712FD082209212148FDF70DFD4FF402
:104DB0008440069002208DF81C008DF81D00002014
:104DC0008DF81E0001208DF81F0006A91848FDF778
:104DD000B3FC02940020ADF80C00ADF80E00ADF865
:104DE0001000ADF814000C20ADF8120002A9114813
:104DF00000F03AF901210F4800F077F840210D4802
:104E000000F06AF8012240F225510A4800F006F944
:104E100047208DF8040003208DF805008DF806006A
:104E200001208DF8070001A8FEF79EFD08B010BD17
:104E3000001802400014014010B540F225512148ED
:104E400000F0C2F800283BD01E4800F077F9C4B249
:104E50001D48047001201D4908701D48008800F499
:104E6000004068BB1A48008800F4804070B10A2CEA
:104E700003D000201649088022E001201449088050
:104E80000846008840F40040088019E00D2C06D147
:104E90000F48008840F480400D49088010E00C481D
:104EA0000088C0F30D000B490C5409480088401CD1
:104EB0000749088008460088C72801DD00200880CF
:104EC00010BD000000140140F8000020F90000208F
:104ED00000010020B403002001F40072B2F5007F4D
:104EE00000D100BFCA430280704721B1828942F4D9
:104EF0000052828104E082894DF6FF731A4082815C
:104F000070471AB1838A0B43838202E0838A8B4302
:104F10008382704710B504462548844208D1012198
:104F20001020FEF7F5FF00211020FEF7F1FF3EE014
:104F30002048844209D101214804FEF7C9FF00211D
:104F40004FF40030FEF7C4FF31E01B48844209D122
:104F500001218804FEF7BCFF00214FF48020FEF7FA
:104F6000B7FF24E01548844209D10121C804FEF7A7
:104F7000AFFF00214FF40020FEF7AAFF17E0104812
:104F8000844209D101210805FEF7A2FF00214FF458
:104F90008010FEF79DFF0AE00A48844207D10121F4
:104FA0002020FEF7B5FF00212020FEF7B1FF10BD45
:104FB000001001400044004000480040004C004008
:104FC000005000400014014070B502460024002348
:104FD0000025002040F66A16B14200D100BFC1F39F
:104FE000421501F01F03012606FA03F3012D02D139
:104FF0009689334006E0022D02D1168A334001E043
:10500000968A33400C12012606FA04F416883440BE
:1050100013B10CB1012000E0002070BDF0B50346D3
:10502000002400260025002040F66A17B94200D16E
:1050300000BF1846C1F3421401F01F06012707FA0A
:1050400006F5012C01D10C3004E0022C01D1103006
:1050500000E014301AB107682F43076002E00768C8
:10506000AF430760F0BD00002DE9FF4705460E463F
:105070000024A14600BFA046B08900B100BF2C8A21
:1050800024F44054F08804432C82AC8941F20C6033
:105090008443B08831890843718908430443AC8153
:1050A000AC8A24F44074B0890443AC826846FEF7AD
:1050B0003FFF2048854202D01F48854202D1DDF8DB
:1050C0000C9001E0DDF80890A88900F4004040B1A0
:1050D00009EBC90000EB091031684900B0FBF1F79A
:1050E00007E009EBC90000EB091031688900B0FB4B
:1050F000F1F76420B7FBF0F004012009642101FB03
:105100001078A88900F4004040B1322000EBC800BC
:10511000B0FBF1F000F00700044308E0322000EBA0
:1051200008106421B0FBF1F000F00F0004432C8163
:10513000BDE8FF8700100140001401400146888847
:10514000C0F30800704700BFFEE7000010B5FFF78E
:10515000EBF9FEF7B5FA01F0A5FCFFF72DF8FCF727
:1051600091FCFDF779FBFCF749FF40F2DC51074861
:10517000FFF72FFDFA2001F00BFB00210348FFF79A
:1051800028FD0020FBF788FE10BD00000004004051
:1051900003B401984100009850EAC12018BF0420D0
:1051A0004A0D18BF40F0010040F2FF72B2EB515FB0
:1051B00008BF40F00200012808BF052002B0704778
:1051C00070B5C1482DED020B2DED0E8B82B0119DF7
:1051D00025F000449FEDBEDB9FEDBFEB84423EDB3C
:1051E000A4F140511098A1F17F6108430FD0BC4851
:1051F000844202DC28D1109830B39DED100B02B030
:10520000BDEC0E8B02B0BDE8704001F0E9B89DED39
:10521000100B53EC1D2B51EC100BFBF778F89DEDA8
:10522000100B41EC180B53EC1E2B51EC100BFBF741
:105230006EF853EC182BFAF7C3FF41EC100B02B0D9
:10524000BDEC0E8B02B070BD012001F00DF902B073
:10525000BDEC0E8B02B0BDE8704001F0D5B8A1489E
:105260009FEDA18B844256DA9DED100BB4F1795F6E
:105270000ADA51EC100BFFF78BFF042808BF01F08E
:10528000D3F89DED100BDAE753EC102B51EC100B1B
:10529000FBF73DF841EC190B95480621B0EE490AA1
:1052A000F0EE690A784400F087FF53EC192B51ECBB
:1052B000100BFBF72CF841EC1A0B8E48B0EE490AA4
:1052C000F0EE690A0421784400F076FF53EC192BC4
:1052D00051EC100BFBF71BF853EC182BFAF770FF8F
:1052E00041EC100B51EC1A0B53EC102BFBF781F82F
:1052F000CDE900019DED000B53EC102B9DED100B43
:1053000051EC100BFBF703F89DED101B53EC112B28
:10531000FAF756FFD2E09DED100B51EC100B01F0A7
:1053200079FA53EC182BFAF7EFFF9FED730BCDE9E9
:10533000000153EC102B9DED000B51EC100BFAF714
:10534000E6FF41EC190B6E480621B0EE490AF0EE7B
:10535000690A784400F030FF53EC192B51EC100B24
:10536000FAF7D5FF41EC1B0B6648B0EE490AF0EEA8
:10537000690A0421784400F01FFF53EC192B51EC0B
:10538000100BFAF7C4FF53EC182BFAF719FF41EC96
:105390001C0B51EC190B01F07FFF41EC180B5A4824
:1053A0009FED5BABA04222DC53EC1C2B51EC1B0BA2
:1053B000FBF71FF8CDE900019DED000B51EC180B38
:1053C00053EC102BFAF7A3FF53EC182BFAF7F8FE67
:1053D00053EC1A2BFAF79BFF53EC1D2BFAF791FFB6
:1053E00053EC1E2BFAF790FF41EC100B5FE08DEDB4
:1053F000008B002000909DED000B51EC180B53EC3E
:10540000102BFAF7DDFE9DED000B41EC1E0B53EC6B
:10541000102B51EC100BFAF77AFF53EC192BFAF71B
:1054200073FF53EC1E2BFAF7E4FF41EC190B53EC1E
:105430001C2B51EC1B0BFAF7DCFF41EC1B0B53EC64
:105440001A2B51EC190BFAF762FF53EC1D2BFAF7EC
:105450005BFF41EC190B53EC1A2B51EC180BFAF7CC
:1054600056FF53EC1B2BFAF752FF53EC192BFAF7AC
:1054700048FF9DED000B41EC180B53EC1A2B51EC3F
:10548000100BFAF744FF9FED249B53EC192BFAF70E
:105490003BFF41EC100B51EC180B53EC102BFAF7BF
:1054A00030FF53EC192BFAF72FFF41EC100B002DB6
:1054B0003FF7C5AE51EC100B81F0004141EC100BF1
:1054C000BDE60000000000000000F03F000000000A
:1054D000075C143326A6913C182D4454FB21F93F58
:1054E0000000F07F0000E03F000000000000F03FFF
:1054F000D0230000DE230000000000000000E03F99
:1055000022230000302300003333EF3F000000006F
:105510000000000000000040182D4454FB21E93F2A
:1055200070B59B482DED020B2DED068B079D25F0E8
:105530000044A04218DC9748844202DC0AD1069855
:1055400040B19DED060BBDEC068B02B0BDE870408E
:1055500000F046BF002DCCBF9FED8F0B9FED900B51
:10556000BDEC068B02B070BD8F48A04215DD8F48A0
:10557000A042D8BF4FF0FF3458DD9DED060B51EC33
:10558000100BFFF705FE042808BF00F04DFF9DED4E
:10559000060BBDEC068B02B070BD9DED060B51EC09
:1055A000100B01F037F9CDE9060181489FED828BA0
:1055B000A0423CDD8248A0421FDD00249FED82AB6B
:1055C0009DED060B53EC1A2B51EC100BFAF7F8FD7E
:1055D0009DED060B41EC190B53EC1A2B51EC100B03
:1055E000FAF795FE53EC182BFAF78BFE53EC192BB8
:1055F000FAF7FFFECDE9060149E09DED060B012417
:1056000053EC182B51EC100BFAF7DAFD9DED060B5D
:1056100041EC190B53EC182B51EC100BFAF771FEFF
:1056200053EC192BFAF7E5FECDE906012FE06848A7
:10563000A0421FDD02249FED689B9DED060B53ECFD
:10564000192B51EC100BFAF762FE53EC182BFAF7FA
:10565000B7FD9DED060B41EC180B53EC192B51ECEB
:10566000100BFAF74EFE53EC182BFAF7C2FECDE9F9
:1056700006010CE09DED060B032453EC102B9FED6F
:10568000580B51EC100BFAF7B4FECDE906019DED75
:10569000060B53EC102B51EC100BFAF738FE41ECD3
:1056A000180B53EC182BFAF732FE41EC190B4E484D
:1056B0000621B0EE490AF0EE690A784400F07CFD5C
:1056C00053EC182B51EC100BFAF721FE41EC180BA0
:1056D0004648B0EE490AF0EE690A0521784400F028
:1056E0006BFD53EC192B51EC100BFAF710FE41EC4B
:1056F000100B51EC180B53EC102B002C0EDAFAF7B0
:105700005FFD9DED061B53EC112BFAF700FE9DED9E
:10571000061B53EC112BFAF7F7FD35E0FAF750FDB5
:105720009DED061B53EC112BFAF7F1FD41EC100B2C
:105730002F48784400EBC40090ED001B51EC100B97
:1057400053EC112BFAF7DDFD9DED061B53EC112BED
:10575000FAF7D7FD41EC100B2648784400EBC40063
:1057600090ED001B51EC100B53EC112BFAF7CCFD14
:1057700041EC100B002DA2BFBDEC068B02B070BD3A
:1057800051EC100B81F0004141EC100B01E70000DF
:10579000000010440000F07F182D4454FB21F93F15
:1057A000182D4454FB21F9BF0000DC3F0000203ECF
:1057B0000000F33F00000000000000000000F03F88
:1057C0000000E63F00000000000000000000004074
:1057D0000080034000000000000000000000F83FCF
:1057E000000000000000F0BF722000002820000030
:1057F000B21F00006A1F000070B56B4E2DED040B48
:105800002DED028B82B0DDF81CC0DDE905235C4282
:105810002CF000411C4341EAD474049D22F0004066
:10582000B44205D86C422C4340EAD474B4420BD93C
:105830009DED061B9DED040B02B0BDEC028B04B088
:10584000BDE8704000F0D6BDACF14054A4F17F64D7
:105850001C430BD0022404EAAC7444EAD27405431E
:105860009FED538B9FED542B07D015E09DED040B5E
:1058700051EC100B00F0FEFD42E0002C11BF012C9A
:105880009DED040B02B0BDEC028B04BF04B070BDF3
:10589000022C38D0032C3BD00B439FED491B9FEDCE
:1058A0004A0B0AD0B14218D1B04209D121F080414F
:1058B00020F08040079105900FE0002A15DA10E0F3
:1058C000434B7B44002C08BF93ED000B0DD0012C03
:1058D00010D0022C17D0032C1AD0B0421DD1002AB0
:1058E00003DAB0EE410AF0EE610A02B0BDEC028BC1
:1058F00004B070BD93ED000B51EC100B81F0004132
:1059000041EC100BF1E7B0EE480AF0EE680AECE764
:10591000B0EE420AF0EE620AE7E7401A00153C28B2
:10592000C8BF8DED000B19DCBCF1000FBEBF10F13C
:105930003C0F9FED290B8DED000B0FDB9DED060B52
:1059400053EC102B9DED040B51EC100BFAF751FDAD
:1059500000F060FF00F08EFDCDE90001002C08BFD3
:105960009DED000BC1D0012C10D0022C9FED1C0B23
:1059700053EC102B9DED000B51EC100B0DD0FAF7F2
:10598000C0FC53EC182BFAF7BCFCB9E7019880F087
:10599000004001909DED000BA7E7FAF7B2FC53EC35
:1059A000182BFAF7B1FCABE70000F07F0000000015
:1059B000182D4454FB210940182D4454FB2109C0E3
:1059C000182D4454FB21F9BF182D4454FB21F93FF5
:1059D000CA1E0000000000000000000000000000DF
:1059E000075C143326A6A13C10B52F499FED2C1B54
:1059F0002DED020B84B0059820F000408842D8BFFE
:105A00009DED040B2DDD2949884209D1049840B948
:105A10004FF0010000F028FD00F0F6FC06B010BDCC
:105A200005DB9DED040B00F0DBFC06B010BD684605
:105A30009DED040B00F0ECF810F0030004BF9DEDA9
:105A4000021B9DED000B0CD001280ED09DED021B1A
:105A50009DED000B022817D0012000F029FC06B0B4
:105A600010BD00F0F1FA06B010BD9DED021B9DEDDA
:105A7000000B012000F01CFC51EC100B81F00041E8
:105A800006B041EC100B10BD00F0DEFA51EC100B2B
:105A900081F0004106B041EC100B10BD0000000089
:105AA0000000000000000000FB21E93F0000F07F43
:105AB0002DED020B019820F0004001909DED000BB0
:105AC00002B070470000000010B52F499FED2C1B5D
:105AD0002DED020B84B0059820F000408842DCBF19
